:020000040800F2
:10000000B8370020F1010008CB2900088D16000840
:10001000C5290008690A00088533000800000000AF
:10002000000000000000000000000000F52D0008A6
:100030009F10000800000000D52C0008B52E000815
:100040000B0200080B0200080B0200080B0200085C
:100050000B0200080B0200080B0200080B0200084C
:100060000B0200080B0200080B0200080B0200083C
:100070000B0200080B0200080B0200080B0200082C
:100080000B02000800000000510900080B020008E4
:100090000B0200080B0200080B0200080B0200080C
:1000A0000B0200080B0200080B0200080B020008FC
:1000B0000B0200080B0200080B0200080B020008EC
:1000C0000B0200080B0200080B0200080B020008DC
:1000D0000B0200080B020008B53200080B020008F2
:1000E0000B0200080B0200080B0200080B020008BC
:1000F0000B0200080B0200080B02000800000000C1
:10010000000000000B020008000000000B020008C5
:100110000B020008000000000B0200080B020008A0
:100120000B0200080B0200080B0200080B0200087B
:100130000B02000800000000000000000B02000895
:100140000B0200080B020008000000000000000085
:10015000000000000000000000000000000000009F
:100160000000000000000000000000000B0200087A
:100170000B0200080000000000000000000000006A
:10018000000000000B02000800000000000000005A
:10019000000000000000000000000000000000005F
:1001A00000000000000000000B0200080B02000825
:1001B0000B0200080B0200080B0200080000000000
:1001C000000000000B02000800000000000000001A
:1001D0000B0200080B020008DFF810D000F0A6FBAD
:1001E00000480047AD450008AFF30080B837002055
:1001F0000648804706480047FEE7FEE7FEE7FEE7C1
:10020000FEE7FEE7FEE7FEE7FEE7FEE7BD2F00089C
:10021000D90100082DE9F05F0546002092469B4673
:1002200088460646814640241BE02846414647460C
:10023000224600F04BFA53465A46C01A914110D359
:1002400011461846224600F016F82D1A67EB0108F1
:100250004F4622460120002100F00DF817EB00095F
:100260004E41201EA4F10104DFDC484631462A46F7
:100270004346BDE8F09F202A04DB203A00FA02F151
:10028000002070479140C2F1200320FA03F3194384
:1002900090407047202A06DBCB17203A41FA02F043
:1002A00043EAE07306E041FA02F3D040C2F12002D3
:1002B000914008431946704740EA01039B0703D069
:1002C00009E008C9121F08C0042AFAD203E011F895
:1002D000013B00F8013B521EF9D27047D2B201E057
:1002E00000F8012B491EFBD270470022F6E710B53B
:1002F00013460A4604461946FFF7F0FF204610BD94
:100300002DE9FE4F804681EA0300C00F0C460090A5
:1003100021F0004123F00045B8EB0200A94105D2CD
:100320004046214690461C460B46024623F00040BC
:10033000104347D0270DC7F30A00C3F30A510290B8
:10034000401A019040286BDAC3F3130040F4801B7D
:100350000098924620B10023D2EB030A63EB0B0B0B
:1003600001985946C0F140025046FFF784FF064607
:100370000D4650465946019AFFF78CFF10EB0800D6
:100380006141002487EA115284EAE7731A4340D09E
:10039000009A62B3019A012A4FEA075215DC001B4A
:1003A00061EB02014FF0004202EA0752CDE9004240
:1003B000001C41F5801132462B4600F0DDF903B0F8
:1003C000BDE8F08F40462146F9E7001B61EB0201D2
:1003D000001C41F5801300185B412018A2F500179E
:1003E00047EB030140EAD570B6196D4111E06D0885
:1003F0004FEA360645EAC0754FEA0752001B61EB2B
:100400000201001C41F5801149084FEA3000001933
:10041000514132462B4603B0BDE8F04F00F09DB984
:100420000098012240000023D0EB020263EBE0734E
:10043000009821464FEAE074B8EB000061EB04013C
:10044000E9E783F000435BE781F0004158E72DE9DD
:10045000FE4F81EA030404F0004421F000410094BF
:100460004FF0000B23F0004350EA01045ED052EA43
:1004700003045BD0C3F30A54C1F30A552C44A4F21D
:10048000F3340194A0FB0254C1F3130141F4801131
:10049000C3F3130343F4801301FB024400FB034E38
:1004A000840A970A44EA815447EA8357A4FB076801
:1004B00002958D0A05FB07854FEA932C04FB0C542B
:1004C0002705029D4FEA065847EA1637B5EB08059F
:1004D0006EEB070C870E920E47EA811742EA8312F1
:1004E000A7FB0201B6EB0B0164EB00042B0D43EA02
:1004F0000C335E1844EB1C50DA465146E7FB020110
:10050000C5F313044FEA0B3343EA14534FEA0432A2
:10051000019C43EA0603A4F10C040294009CCDE97B
:1005200000B400F029F903B0BDE8F08F00200146C7
:10053000F9E72DE9F04D81EA030404F0004B21F0C6
:10054000004514464FF0000A23F0004150EA05022E
:1005500020D054EA01021DD0C5F30A570246C5F364
:100560001303C1F31300C1F30A5640F4801543F49A
:100570008013A7EB0608101BD64608F2FD3873EB74
:10058000050002D308F1010801E092185B41B8F1BF
:10059000000F03DA00200146BDE8F08D00204FF483
:1005A0008011064684460EE0171B73EB050705D342
:1005B000121B63EB050306434CEA010C49084FEAA2
:1005C000300092185B4150EA0107EDD152EA030076
:1005D00012D082EA040083EA0501084305D0101B0B
:1005E000AB4106D20122002306E000224FF0004377
:1005F00002E06FF0010253101AEB06004CEB0851B9
:1006000010EB0A0041EB0B01BDE8F04D00F0A5B87E
:1006100000F0004230F000400AD0C10D01F56071D9
:10062000C0F3160042EA0151C20840071143704767
:10063000002001467047000030B5041E71F100042F
:1006400004DB4FF00044404264EB0101141E73F1DF
:10065000000405DB1C464FF00043524263EB0403E9
:10066000994208BF904230BD01F0004330B421F000
:10067000004150EA010206D00A0DA2F56072C1F3F2
:100680001301002A02DC30BC00207047440F44EA0A
:10069000C104C100E01830BC00EBC25000F026B825
:1006A00030B50B46014600202022012409E021FA42
:1006B00002F59D4205D303FA02F5491B04FA02F53F
:1006C0002844151EA2F10102F1DC30BD202A04DB12
:1006D000203A21FA02F00021704721FA02F3D040BB
:1006E000C2F1200291400843194670470029A8BF73
:1006F0007047401C490008BF20F00100704710B44B
:10070000B0FA80FC00FA0CF050EA010404BF10BCFF
:10071000704749B1CCF1200421FA04F411FA0CF12C
:1007200018BF012121430843A3EB0C01CB1D4FEA65
:1007300000614FEA102042BF002010BC704700EB60
:10074000C35010440029A4BF10BC7047401C49008E
:1007500008BF20F0010010BC704710B5141E73F1E3
:10076000000408DA401C41F1000192185B411A4371
:1007700001D120F0010010BD2DE9F04D92469B46BD
:1007800011B1B1FA81F202E0B0FA80F22032904663
:10079000FFF771FD04460F4640EA0A0041EA0B01EB
:1007A00053465A46084313D0114653EA010019D064
:1007B000C8F140025046FFF789FF05460E465046F5
:1007C00059464246FFF757FD084305D0012004E093
:1007D00020463946BDE8F08D0020054346EAE07624
:1007E0002C4337430A986305E40AA0EB0800002273
:1007F000FD0A44EA47540A3002D500200146E9E7E1
:10080000010510196941DDE9084500196941BDE894
:10081000F04DA2E72DE9FE4FC3F30A5701F0004562
:100820000024C1F30A56C3F31303C1F3130143F4C5
:10083000801312EB020AA64641F48011009543EBA7
:10084000030CA7F1010B16E0B0EB0A0061EB0C0101
:10085000071E71F1000707DA4FF00008D0EB08001F
:1008600085F0004568EB0101171A73EB0107EBD324
:10087000761E001849415E45F6DA50EA010209D0B9
:10088000CDE900E5002213460296FFF775FF03B09D
:10089000BDE8F08F20460099F9E7C1F30A52C1F391
:1008A000130140F2FF3341F480119A4202DA002032
:1008B0000146704740F233439A42A2F2334202DCCF
:1008C0005242FFF703BFFFF7D6BC70B5044601F0F4
:1008D00000450020054304D14FF00045644265EB1C
:1008E000010103F00045284305D118464FF00043AD
:1008F000524263EB0003101B73EB010002D24FF076
:10090000004009E082EA040283EA01034FF000504C
:100910001A4301D14FF0C0404FEA2062EFF300814B
:1009200062F31F6181F3008870BD0000064C074D23
:1009300006E0E06840F0010394E8070098471034AF
:10094000AC42F6D3FFF74CFCF458000814590008E9
:1009500070B5314D6868C0F3801000285BD04FF04F
:10096000A046B1682D480140091DB160A968014049
:10097000091DA9609FED2A0A00F092FB286C294C02
:100980000921A080304600F022FF2080092128465E
:1009900000F01DFF60802288E16A891A00EE101ABB
:1009A000F8EEC00A9FED200A60EE800AC4ED030A4B
:1009B000216BF1EE600A081A01EE100AB8EEC11AB6
:1009C00021EE000A9FED1A1A84ED040A30EEC00AE7
:1009D000DFED160A84ED050A94ED020AA08820EEE8
:1009E000200A00EE900AF8EE600A60EE810A9FEDA0
:1009F000111A00EE810A84ED020A00F061FD402028
:100A000028600D480168A1F51C52103A01D1511E11
:100A10000160491C016070BD00010050C0FFFF7FF4
:100A2000ACC52738C0010020FFFFA43C6666663FC6
:100A3000CDCCCC3DCDCC7A3C0000002010B502F0EE
:100A400085FC02490020487010BD0000BC00002059
:100A500010B5044C0020207002F078FC012060707A
:100A600010BD0000BC00002000F0AEFBFEE700005F
:100A700070B50A4C00252570606800F0A5FD656022
:100A800002F040FC064C012628B102F05FFC257004
:100A90000448066070BD2670FAE70000840000205C
:100AA000BC000020000200202DE9F041814C00250F
:100AB0002DED028B82B023789FED7F1A4FF0010855
:100AC000DFED7E1A9FED7E3A7E4F04F11802A66894
:100AD00097ED5C0AA2F10801042BF1EE402A5CD0EC
:100AE0000FDC002B7ED0012B12D0764A92ED5B2AD0
:100AF000704A1032022BD2ED000A10D0032B71D1B4
:100B000033E0052B57D0062B7CD0102BF7D1C1E05A
:100B1000A56081ED001A00F05BFB022070E090ED13
:100B2000053A32EE432A9FED683A42EE030AC1EDE0
:100B3000000AF4EEC00AF1EE10FA04DCF4EEE20A68
:100B4000F1EE10FA05D200F035FC84F80180102097
:100B500056E090ED020A03F08FF95C49A0688842E4
:100B600040D300F027FC03204AE080EE820A20EE0A
:100B7000030A87ED040A10EE100AFFF749FD41EC65
:100B8000100B53A053EC102B02F000FC97ED040A5D
:100B9000684603F0CFFC042032E0A560E560C1EDBB
:100BA000002A81ED010A82ED001A82ED011A00F09F
:100BB0000FFB052024E0032E73D3A560237BD0ED2B
:100BC000050A03F0010302EB830201EB830192EDBE
:100BD000000A30EE200A82ED000AD1ED000A90ED05
:100BE000020A01E00DE00DE003F046F9E06842F290
:100BF0001071401CE060884253DB00F0DBFB0620F4
:100C000020704EE0D2EC020ADFED371A30EEC11A46
:100C1000C1EE210A80EE201A21EE030A87ED050AB3
:100C200010EE100AFFF7F4FC41EC100B2FA053EC70
:100C3000102B02F0ABFB97ED050A684603F07AFC37
:100C400097ED620A97ED041AF8EEC00A97ED050ACF
:100C500020EE808AC1EE000A87ED088A20EE880A1D
:100C600087ED090A10EE100AFFF7D2FC05460E4682
:100C700018EE100AFFF7CCFC41EC100BCDE9005642
:100C800053EC102B1FA002F081FBC7F86881C7F856
:100C9000008006E061781FA002F078FBFFF7E8FE15
:100CA0002570A068401CA06002B0BDEC028BBDE8BE
:100CB000F08100008400002000000000920A8640BD
:100CC000ABAA2A3F0002002017B75139F8240100CF
:100CD00070686173655F726573697374616E636573
:100CE000203D2025660A0D00CCCC4C3E7068617317
:100CF000655F696E64756374616E6365203D202570
:100D0000660A0D0050493A202566202020202566DD
:100D10000A0D000043616C6962204572726F722097
:100D200025640A0D0000000070B50C4D00242868F1
:100D300020B10B490C7000F047FC2C60094D68682D
:100D400020B94FF4205000F059FC68600648046652
:100D5000C0F868410120287070BD000080000020AC
:100D6000BC000020840000200002002017499FEDF5
:100D7000180A9FED181AD1ED000A1849C0ED000AB3
:100D800080ED010A80ED021A1348154AC0ED010AF0
:100D900080ED020A80ED030A80ED060A91ED110A4A
:100DA00010EE101A914201DB9FED0E0AF0EE000AE0
:100DB00020EE200AF5EE000A80ED050A20EE000A7A
:100DC00020EE200A80ED040A70470000F8000020A1
:100DD00000000000CDCCCC3D5C00002000020020D3
:100DE0000050C3450050C3451C214FF4405000F053
:100DF00041B910B54FF48054204600F03CF840F063
:100E000004012046BDE8104000F034B910B54FF49D
:100E10008054204600F02FF820F004012046BDE861
:100E2000104000F027B970B500F01EF805460A2002
:100E300001F0ECFF00F01BF804460A2001F0E6FF89
:100E4000C5F30A01C4F30A0000EAC12070BD00F036
:100E500029B80000034910200969884300D0012007
:100E60007047000000080048002000F004B84FF46C
:100E70000060AFF3008038B54BF6EF61ADF80010BD
:100E80004FF09044102140F40040A1624FF47A7278
:100E9000694603F0B9FD1020A061BDF80000C0F361
:100EA0000A0038BD10B586B0002000F077F8142095
:100EB00001F0ACFF012000F071F8FFF795FF64200E
:100EC00001F0A4FF00240120CDE90140CDE9034059
:100ED0000346224621462046009400F089F864200B
:100EE00001F094FF0E220D21032000F09FF86420F2
:100EF00001F08CFF0E230C220321012000F09FF84B
:100F0000642001F083FF032001940294CDE90340A3
:100F10000346002201211046009400F04BF86420A3
:100F200001F074FF0F2001220090032311460020DE
:100F300000F090F8642001F069FF4FF48050FFF753
:100F40009AFF641E24281FD14FF4C050FFF793FF6F
:100F5000A0F54071DE3917D14FF40050FFF78BFF39
:100F6000A0F5E061CE390FD14FF44050FFF783FF79
:100F7000A0F50071C33907D14FF42050FFF77BFF74
:100F8000A0F580717F3902D0204606B010BD02481E
:100F900000F038FA0020F8E7C001002000284FF0E8
:100FA00090414FF0080001D0886100E08862022083
:100FB00001F021BFF0B48002DDE9044540EA4120A0
:100FC00040EA0220DDE9066740EA831040EA441067
:100FD00040EA051040EAC60040EA8700DDF820C07C
:100FE000F0BC40EA0C0081B24FF4405000F042B82F
:100FF000F0B44002DDE9044540EA012040EAC210B5
:10100000DDE9066740EA431040EA041040EAC50003
:1010100040EA860040EA4700DDF820C0F0BC40EA24
:101020000C0081B24FF4805000F024B8000240EA76
:101030000110104381B24FF4C05000F01BB8800281
:1010400040EA012040EA0210184381B24FF40050F8
:1010500000F010B830B4800240EA012040EA82106B
:10106000029C40EA0310204381B230BC4FF4205070
:10107000AFF3008038B50246C1F30A004BF6EF61CA
:101080001043ADF800104FF090441021A1624FF4CE
:101090007A72694603F0B8FC1020A06138BD704731
:1010A00070B52DED028BB0EE408A03F0B5FD3E4CDD
:1010B000DFED3E0A9FED3E1AE060400000EE100AB0
:1010C0003C4DB8EEC00A60EE200A80EE810A84ED45
:1010D000050AD5ED030AF8EEE00A20EE800A10EECC
:1010E000100AFFF795FA41EC100B9FED331B02F04D
:1010F000B5F951EC100BFFF7B7FAA061D4E9030181
:10110000401AB0F5804F02DBA068401E04E010F5E5
:10111000804F02DCA068401CA06094ED050ADFED62
:10112000281A0120C0EE210A94ED020AB8EEC00A86
:1011300030EE801A84ED001A94ED010A84ED011A54
:1011400031EE400AC0EE080AB0EE600AC0F1270195
:1011500004EB810191ED0A1AC0F1280104EB810131
:1011600031EE000A401C81ED0A1A2828EEDBC4ED9E
:101170000A0A9FED141AC0EE010AC4ED070A95EDA4
:10118000030A60EEA10AB8EEC00A20EE800A84EDE0
:10119000080AB0EE480A03F05FFD84ED090AE06832
:1011A0002061BDEC028B70BDF8000020DB0F4940D0
:1011B00000FEFF460002002000000060FB211940F5
:1011C000DB0FC9400000204272B600F0F3F8FEE7E2
:1011D00010B5EFF3108472B601F05EFDFFF716FE56
:1011E00002490120087084F3108810BD0C00002013
:1011F00030B504462DED068BB0EE61AA04F10C0269
:1012000089B0F0EE411AB0EE608AF0EE408A92ECBE
:10121000030A01A9684602F019FF9DEC020A05A91C
:1012200004A8B0EE611A03F087FA94ED060A9FED68
:10123000581A60EE011A9DED040ADFED560A564D6C
:1012400078EEC09A40EE201AC4ED061AD4ED071AC3
:101250009DED052A21EE811A38EE429A02EE201AFF
:1012600084ED071AD5ED080A94ED092A94ED0A0ACF
:1012700000EEA92A00EE890AD4ED020A9FED471A72
:10128000F7EE001A20EE811AC1EE810A60EE828A22
:1012900020EE808A28EEA80A08EE080A02F060F91B
:1012A0009FED3F1AF0EE400A81EE200A10EE100A80
:1012B000B0F17E5F12DA68EE808A28EE008AD4ED03
:1012C000090A9FED380A60EE800AC4ED090AD4EDE0
:1012D0000A0A20EE800A84ED0A0A15E095ED091A43
:1012E0009FED310AD4ED090A21EE001A49EE810A78
:1012F000C4ED090A95ED091AD4ED0A0A21EE000A97
:1013000049EE000AC4ED0A0A94ED060AD4ED070A74
:1013100003A920EE280A02A8B0EE4A1A08EE200A15
:10132000F0EE480A84ED080AB0EE680A03F018F9F6
:1013300008AA07A906A8DDED030A9DED020A03F03D
:1013400095FBDDED060A9FED190A194960EE800A4A
:10135000FCEEE00A10EE900A80B20860DDED070AAC
:10136000091F60EE800AFCEEE00A10EE900A80B2DF
:101370000860DDED080A091F20EE800ABCEEC00AF5
:1013800010EE100A80B2086009B0BDEC068B30BDCB
:101390003333733FCDCC4C3D00020020ABAA2A3F33
:1013A000AC5C313FA4707D3FACC52738008054450C
:1013B0003C2C014010B5EFF3108472B6FFF719FD15
:1013C00001F05AFC02490020087084F3108810BD17
:1013D0000C000020094A40F2A4611160121F116044
:1013E000121F11609FED060A80ED060A80ED070AC4
:1013F00080ED090A80ED0A0A704700003C2C01408C
:10140000000000002DE9F041002704463E464FF45D
:101410007A783D46642001F0F9FC20886D1C074471
:10142000608845450644F5DB97FBF8F196FBF8F23A
:10143000C4E90B12BDE8F04101A001F0A7BF000014
:10144000666666693A202558202025580D0A000056
:10145000014800787047000018000020164910B5B8
:101460000022A1F1080306280ED2DFE800F00D03E8
:10147000050A0E1E4A7006E01868002804D10120F3
:1014800017E0022015E08A7010BD18680028FBD113
:101490000A48D0F86831002BF6D04368002BF3D10E
:1014A00080680228F0D1032003E018680028EBD1FF
:1014B00004204870E7E70000180000200002002028
:1014C00070B5354D2DED028B68782978884207D0AC
:1014D00002F0DAFFA87818B16878287002F05EFF91
:1014E00028782E4C05281FD2DFE800F053031403A0
:1014F00018009FED2B8A2B4802F0CAFD94ED061AC6
:10150000F0EE400AB0EE480AF0EE411A2648FFF726
:101510006FFE09E02448FFF7C7FA05E094ED060ADC
:101520002249214803F024FA1F481B4C90ED020A7F
:101530001F48083CD0ED160AB4EEE00AF1EE10FAAE
:1015400003DB216841F080412160D0ED150AB4EE43
:10155000E00AF1EE10FA03D8206840F00050206055
:10156000FFF778FC20B1FFF75EFC2168084320609C
:10157000206820B1FFF71EFF00206870A870206867
:101580006168884205D021680AA001F0FFFE20684A
:101590006060BDEC028B70BD18000020F8000020D8
:1015A00000000000F4010020C0010020A83300204A
:1015B000000200204572726F7220436F64653A200A
:1015C00025580A0D0000000030B4002811D00A4A46
:1015D00050F8041C0838D36819420AD00468002C5B
:1015E00007D19943416053681944516030BC03F0FE
:1015F000EFB830BC70470000A40000202DE9F04196
:10160000214E05460027306808B903F0BBF8F068A2
:10161000054236D1ADB30835680704D005F00700A0
:10162000C0F10800054465B37068854229D81648A2
:10163000103001460C6801E020460C466168A94262
:1016400002D221680029F7D131688C4219D007688D
:101650002168016060680837411B102904D96019AE
:101660004160656003F0B4F861687068401A7060AA
:10167000B268904200D2B060F06801430020C4E933
:1016800000013846BDE8F081A4000020FFF79CFD72
:10169000FEE7000010B5224C606801F0D7FB00287F
:1016A0003CD001F0D9FB6060FFF7D2FE40F2DC5184
:1016B0004FF6FF7240B14FF4967301280FD0022805
:1016C00017D0042827D10AE0208810B1642802D05E
:1016D0001EE0012000E0002000F024F81BE020883C
:1016E0000028F6D06428F6D0C828F2D09842F2D06C
:1016F0000EE020880028ECD06428ECD0C828E8D080
:101700009842E8D0B0F5C87FE3D0B0F5FA7FE2D0D8
:10171000884200D322802088401C208010BD000019
:1017200078000020044900284FF0400001D0886173
:1017300070478862704700000004004830B54FF0E1
:10174000A0444B68A46800220E4D04F00104AD686B
:1017500005F001052C4302D00122104630BD0A4D90
:1017600053B10C681C43D1E902310B4381681C431F
:1017700029400C438460F0E7836809682B400B43E1
:101780008360EAE700010050E030C0FF10B54B680D
:101790008468002214F0010F02D00122104610BD0F
:1017A00033B1D1E902342343C46824F0047403E064
:1017B000C368CC6823F004732343C360D1E90031CC
:1017C0000B43C16C6FF308010B43C364E6E70C22C3
:1017D00002EA91110844D0F8800080B2704710B539
:1017E000C36C01F01F011F248C40C2F38462A34329
:1017F0008A401343C36410BD30B58368002213F0E0
:10180000010F02D00122104630BDD1E9003423433C
:101810008968C4684CF21805AC4321430B43C3608C
:10182000F1E7000070B54C688368002213F0010FE7
:1018300002D00122104670BD002C0E4B0C6807D060
:101840008D682C43D1E9035635432C434D6904E0A0
:10185000CD682C43D1E9045635432C43C5681D405F
:101860002C43C4604968036B23F00F030B430363ED
:10187000E0E700001CC0F0FF0C2303EA911310B551
:101880001844036B01F01F011F248C40C2F38462D3
:10189000A3438A401343036310BD042303EAD153D7
:1018A00010B518444369C1F3045107248C40A34385
:1018B0008A401343436110BD10B550F8B03FC1F3E7
:1018C0001204A34302F01804024AE2400A40134300
:1018D000036010BDFFFF0700D0F8C0206FF30D02BA
:1018E0000A43C0F8C020026922F4803201B101210C
:1018F00042EA0141016170478268044B01F0804176
:101900001A400A4342F0004181607047C0FFFF3F28
:10191000044908B5CA6C0243CA64C96C014000910D
:1019200008BD000000100240044908B5CA6C02431B
:10193000CA64C96C0140009108BD0000001002405B
:10194000044908B5CA6C0243CA64C96C01400091DD
:1019500008BD000000100240F0B50A680F2692FA98
:10196000A2F2B2FA82F303248AE001259D402A40C4
:101970007ED04D68012D01D0022D20D18D68876861
:1019800092FAA2FCBCFA8CFC4FEA4C0E04FA0EFC54
:1019900027EA0C0792FAA2FCBCFA8CFC4FEA4C0C2A
:1019A00005FA0CF52F438760CF680D68D0F804C0A6
:1019B0002CEA050C7D434CEA050CC0F804C00F6905
:1019C000D0F80CC092FAA2F5B5FA85F54FEA450EAB
:1019D00004FA0EF52CEA050C92FAA2F5B5FA85F593
:1019E0006D00AF404CEA070CC0F80CC04D68022DEA
:1019F0002FD1FF2A15D8D1F814C0056A92FAA2F7A0
:101A0000B7FA87F7BF0006FA07F7BD4392FAA2F7C5
:101A1000B7FA87F7BF000CFA07FC45EA0C05056228
:101A200017E0D1F814E0476A150A95FAA5FCBCFA4C
:101A30008CFC4FEA8C0C06FA0CFC95FAA5F5B5FA6D
:101A400085F5AD0027EA0C070EFA05FE47EA0E07FA
:101A500047624D68076892FAA2FCBCFA8CFC4FEA18
:101A60004C0C04FA0CFE27EA0E0792FAA2F200E0F0
:101A700005E0B2FA82F2520095402F4307605B1CEA
:101A80000A6832FA03F57FF470AF0020F0BD4FF41E
:101A90007A71B0FBF1F14FF0E020491E4161002165
:101AA000816105210161704710B50024C02823D150
:101AB0001248D0F8880000F0C00040F440004038E0
:101AC000B0F540000AD040280CD080280FD001F09B
:101AD00033F901F001F901F00FF901E001F02CF9FF
:101AE000044609E000F068F830B1054C04E000F06D
:101AF0006BF808B14FF40044204610BD00100240BE
:101B00000024F40070B5002429492A4D4FF4004602
:101B1000032804D00C281AD030282FD040E0D1F868
:101B200088006FF4403100F0030040F4403040186A
:101B30000AD0012836D002282ED001F0FDF801F09D
:101B4000CBF801F0E9F817E001F0F6F814E0D1F86D
:101B5000880000F00C0040F44020001FB0F5402049
:101B6000F2D004281ED0082816D000BF01F0E4F8F7
:101B700001F0B2F801F0C0F8044611E0D1F8880095
:101B800000F0300040F440101038B0F54010DBD0C9
:101B9000102807D02028E9D100F016F800B134460B
:101BA000204670BD00F008F80028F9D02C46F7E771
:101BB000001002400024F40002480068C0F38020B6
:101BC00070470000001002400248D0F89000C0F3B7
:101BD000400070470010024003498A6822F0F0027A
:101BE00002438A60704700000010024010B503688D
:101BF0000122C3F3801373BBD1E900231A43D1E957
:101C0000033423431A434B691A438B691A43CB6944
:101C10001A430B6A1A4303684FF6BF74A3431A436F
:101C20000260426840F604739A434B6942EA1342E9
:101C30008B681A4342608A68B2F5006F03D242682B
:101C400042F4805242600A6AB2F5005F02D1898C88
:101C500089B201610022C16921F40061C1611046AD
:101C600010BD00000149086070470000040000201A
:101C700030B50A7B8B681F4C1A434B6822F4806294
:101C80001A430B6822F400621A43CB8922F4805273
:101C90001A430B6922F400521A43CB6A22F48042A1
:101CA0001A4322F400421A43114B984201D0A04239
:101CB00007D14D6922F470222A438D6922F08052A7
:101CC0002A43984201D0A0420FD14B6A22F47002FD
:101CD0001A43CB6922F080721A430B6A22F0007219
:101CE0001A43896A22F000520A434264002030BD40
:101CF000002C0140003401402DE9F0430268224BE2
:101D0000224D234E234C4FF08049984207D048453E
:101D100005D0A84203D0B04201D0A04203D14F6801
:101D200022F070023A431C4FDFF870C0DFF8708079
:101D300098420DD048450BD0A84209D0B04207D0F8
:101D4000A04205D0B84203D0604501D0404503D140
:101D5000CD6822F440722A4302608A68C2620A880F
:101D60008262984207D0A04205D0B84203D06045B5
:101D700001D0404501D109690163416941F0010188
:101D800041610020BDE8F083002C014000040040C8
:101D90000008004000340140004001400044014080
:101DA00000480140012922D0042922D0102922D044
:101DB000402922D0B1F5807F21D0B1F5806F20D0AD
:101DC000B1F5805F1FD0B1F5804F1ED0B1F5803FD7
:101DD0001DD009210F4A1830525C104402680D4B87
:101DE0000A335B5C042199408A43026070470021FA
:101DF000F0E70121EEE70221ECE70321EAE7042105
:101E0000E8E70521E6E70621E4E70721E2E7082104
:101E1000E0E70000944C0008012922D0042922D0D8
:101E2000102922D0402922D0B1F5807F21D0B1F5F0
:101E3000806F20D0B1F5805F1FD0B1F5804F1ED0EC
:101E4000B1F5803F1DD009210F4A1830525C104473
:101E500002680D4B0A335B5C082199400A4302601B
:101E600070470021F0E70121EEE70221ECE70321B2
:101E7000EAE70421E8E70521E6E70621E4E7072190
:101E8000E2E70821E0E70000944C00082DE9F04764
:101E90008C460121BCF5805F25D009DCBCF1010F27
:101EA00014D0BCF1100F15D0BCF5807F16D116E010
:101EB000424B434C434D444E444F4FF00009BCF558
:101EC000803F14D0BCF5801F74D141E0114600F072
:101ED00099FD02E0114600F0E1FD01466AE011467D
:101EE00000F02CFEF9E7114600F076FEF5E7016AF6
:101EF00021F480310162D0F820C0016DDFF8D0807C
:101F00002CF4003C01EA0801D2F80080984241EA32
:101F10000801B2F810804CEA084CB2F804802CF4A6
:101F2000803C4CEA084C07D0A04205D0A84203D020
:101F3000B04201D0B84206D14368946923F480339B
:101F400043EA042343600165D168826C81642EE01A
:101F5000016A21F480110162D0F820C0016DDFF820
:101F600074802CF4001C01EA0801D2F80080984229
:101F700041EA0821B2F810804CEA085CB2F804800B
:101F80002CF4801C4CEA085C07D0A04205D0A84283
:101F900003D0B04201D0B84206D14368946923F41B
:101FA000802343EA842343600165D168C164C0F89B
:101FB00020C049460846BDE8F0870000002C0140DB
:101FC000003401400040014000440140004801400D
:101FD0008FFFFEFFFF8FFFFE2DE9F04104460068F2
:101FE0000D46012610F0010F4CD12969A868EA6955
:101FF000084369691143084321682B4A114008438B
:102000002060E868616821F4405101436160A8697B
:10201000A16821F440710143A1602448844201D1A8
:10202000032008E02248844201D10C2003E021482B
:10203000844203D13020FFF765FD05E01E4884424D
:1020400019D1C020FFF730FDA8B1696899B12A689D
:102050000026EB690B2A0ED8184FD2B2B3F5004F09
:1020600057F82220B0FBF2F00FD000EB5100B0FB8C
:10207000F1F080B2E0602888E16A80B221F00F01BF
:102080000143E1623046BDE8F081400000EB5100C1
:10209000B0FBF1F081B24FF6F07201EA0200C1F339
:1020A00042010843E6E70000F369FFEF0038014012
:1020B0000044004000480040004C0040A84C00088C
:1020C00070B598B0002414941594182106A816949D
:1020D000FEF70BF911941294139410940C940D9430
:1020E0000E94182168460F94FEF7FFF84FF4005045
:1020F000FFF71AFC0420FFF717FC0220FFF714FC7F
:1021000004200325CDE90005544E69460494304669
:10211000FFF722FC0820CDE900056946049430460B
:10212000FFF71AFC0220CDE90005694604944C48EB
:10213000FFF712FC4B4800680022C0F30220012187
:1021400000F046FC0146122001F03DF9122001F09A
:102150002DF94FF0A0451494159414A9284616940F
:10216000FFF74AFB0120CDE90640089409940A9440
:1021700006A928460B94FFF755FB00212846FFF7D8
:10218000ABFB286940F20341884328614FF440309B
:10219000CDE9100410A93448FFF7D0FA8020CDE92A
:1021A0000C040E940CA928460F94FFF7EFFAE86888
:1021B0002E49084040F00040E860E86C20F4C07010
:1021C00040F08000E864A86829490840A860A86831
:1021D0002849084040F08050A860274827490068F7
:1021E000B0FBF1F000EB800080000A21B0FBF1F0C1
:1021F00000E0401E0028FCD1214C06212246284642
:10220000FFF73AFB012221462846FFF746FB7F22D3
:1022100021462846FFF750FB1A4C0C21224628463F
:10222000FFF72AFB012221462846FFF736FB7F22D3
:1022300021462846FFF740FB134C09212246284639
:10224000FFF7CDFA042221462846FFF726FB7F221E
:1022500021462846FFF730FB18B070BD0008004843
:10226000000400480CED00E000030050FFFFDF7F9A
:10227000C0FFFF5FC0FFFF7F04000020400D030090
:10228000000180210002B0250010603270B594B0CA
:10229000002510951195182106A81295FEF725F82E
:1022A0000C950D950E95182168460F95FEF71DF8B3
:1022B0004FF40050FFF738FB0420FFF735FB0220F6
:1022C000FFF732FB20200324CDE900046946049582
:1022D0005648FFF741FB0420CDE900046946049508
:1022E0005348FFF739FB534800680022C0F302202F
:1022F000012100F06DFB0146122001F064F812206C
:1023000001F054F84C4C1095119510A920461295E7
:10231000FFF772FA06950795089509950A9506A99B
:1023200020460B95FFF77EFA00212046FFF7D4FAEE
:10233000206940F20341884320618020CDE90C05EB
:102340000E950CA920460F95FFF720FAE0683B494F
:10235000084040F00040E060E06C20F4C07040F0C5
:102360008000E064A06836490840A060A068354E4F
:10237000304040F08050A060334834490068B0FBE2
:10238000F1F000EB800080000A21B0FBF1F000E0EA
:10239000401E0028FCD12E4D06212A462046FFF77C
:1023A0006BFA012229462046FFF777FA7F22294659
:1023B0002046FFF781FA274D09212A462046FFF7DC
:1023C0000EFA042229462046FFF767FA7F222946A3
:1023D0002046FFF771FA0A2000F00DFD4FF0A045EE
:1023E0007F212846FFF788FAA868C00FFCD17F211B
:1023F0002046FFF781FAA068C00FFCD1A8683040E2
:10240000401CA860A0683040401CA060606840F09C
:1024100040006060A868304040F00800A860A068F4
:10242000304040F00800A06014B070BD00080048C3
:10243000000400480CED00E000010050FFFFDF7FCA
:10244000C0FFFF5FC0FFFF7F04000020400D0300BE
:102450000008302E001060322DE9F04387B01821BB
:102460006846FDF742FF2020FFF752FA0420FFF7ED
:102470004FFA0120FFF74CFA0220FFF749FA4FF01C
:1024800090460220B0620820B062284F4FF4805975
:10249000C7F828904020B8621020B06100240125C0
:1024A000CDE90054694630460494FFF755FA0220FE
:1024B0000090CDE901540394694630460494FFF737
:1024C0004BFA08200090CDE9015403946946304648
:1024D0000494FFF741FA4FF01008CDF80080CDE9E1
:1024E00001540394694630460494FFF735FACDE968
:1024F000008469460E480495FFF72EFACDF8009047
:10250000CDE901540394694638460494FFF724FA50
:1025100040200090CDE90154039469463846049464
:10252000FFF71AFA07B0BDE8F08300000004004886
:10253000000800482DE9F04192B0282106A8FDF7D7
:10254000D4FE18216846FDF7D0FE2B48016E41F4F9
:1025500080510166006E00F4805010900120FFF75A
:10256000EFF92027022500240097CDE90154052624
:10257000CDE904464FF09048694640460394FFF782
:10258000EBF940200090CDE90154CDE904466946BD
:1025900040460394FFF7E0F980200090CDE9015414
:1025A000CDE90446694640460394FFF7D5F94FF458
:1025B0008270CDE906404FF47060CDE90804012037
:1025C0000A9040020B900720CDE90C74CDE90E4033
:1025D0000A4C06A92046FFF709FB606820F01000AE
:1025E0006060606820F008006060206840F0400093
:1025F000206012B0BDE8F0810010024000300140C0
:102600002DE9F04192B0282106A8FDF76EFE1821B1
:102610006846FDF76AFE2C484FF48048816D41F40E
:1026200080418165806D00F4804010900220FFF7AA
:1026300087F902254FF40050CDE900050024052656
:10264000CDE90254214FCDE9044669463846FFF7EB
:1026500083F9CDE90085CDE90254CDE90446694608
:102660003846FFF779F9A803CDE90005CDE9025412
:10267000CDE9044669463846FFF76EF94FF482709B
:10268000CDE906404FF47060CDE9080401200A90BE
:1026900040020B901820CDE90C040720CDE90E4034
:1026A0000B4C06A92046FFF7A1FA606820F0100045
:1026B0006060606820F008006060206840F04000C2
:1026C000206012B0BDE8F081001002400004004814
:1026D000003800402DE9F043A1B014211AA8FDF7FD
:1026E00004FE202106A8FDF700FE30210EA8FDF70C
:1026F000FCFD18216846FDF7F8FD614E4FF40069B6
:10270000306E40F400603066306E002400F40060EB
:102710001F9040201B9040F64850CDE91C0401203A
:10272000584D1E90ADF868401AA92846FFF7E4FA04
:10273000286840F08000286001212846FFF76CFBE4
:102740006020CDE9060440F2A460CDE908400A9477
:102750000B940C9406AA012128460D94FFF796FBD2
:1027600001212846FFF71EFB10212846FFF754FBE6
:1027700006AA10212846FFF789FB10212846FFF7FB
:1027800011FBAF1539462846FFF746FB06AA394626
:102790002846FFF77BFB39462846FFF703FB4FF43B
:1027A000805841462846FFF737FB40F63E500990D7
:1027B00006AA41462846FFF769FB41462846FFF72F
:1027C000F1FA68683049084040F070006860686855
:1027D00020F470006860A86820F08000A8600E9463
:1027E0006814CDE912040F948DF844401094ADF8AC
:1027F000464000031494CDE91540179418940EA98F
:1028000028461994FFF734FAF06C40F00100F064A8
:10281000F06C009700F001001F900225CDE90154F3
:102820000626CDE904464FF09047694638460394A2
:10283000FFF792F828020090CDE90154CDE9044653
:10284000694638460394FFF787F868020090CDE99F
:102850000154CDE90446694638460394FFF77CF8F5
:10286000CDF80090CDE901540B20CDE90440694634
:1028700003943846FFF770F821B0BDE8F0830000FC
:1028800000100240002C01408FFFFFFD2DE9F041B8
:1028900090B0202106A8FDF728FD18216846FDF715
:1028A00024FD4348816D41F400318165816D01F45F
:1028B00000310E91C16C41F00201C164C06C022470
:1028C00000F002000E9008200025CDE90004032747
:1028D0000726CDE90275DFF8DC80CDE904566946AC
:1028E0004046FFF739F810208DE891000124059645
:1028F000CDE9035469464046FFF72EF82E4800689C
:10290000C0F30220C0F10701042900D90421021DEF
:10291000072A01D2002000E0C01E8C40641E04F093
:10292000030181400801254981F800042349402022
:102930002239C1F800014FF4E130CDE906500C20F6
:10294000CDE90A501E4C089509950C9506A920461C
:102950000D95FFF741FBA06865F35F70A060A0686C
:1029600020F06060A060206820F000502060606867
:1029700020F490406060A06820F02A00A0602068E9
:1029800040F001002060E069C0F340500028FAD018
:10299000E069C0F380500028F5D0206840F02000A6
:1029A0002060A06840F00100A06010B0BDE8F08198
:1029B00000100240000400480CED00E026E000E0BA
:1029C00000440040FEF700FCFEE7FEF7FDFBFEE7DB
:1029D00030B500F00703C3F10704042C00D9042428
:1029E000181D072801D2002300E0DB1E012505FA8F
:1029F00004F0401E084098409D406D1E154028433D
:102A000030BD000030B5026A22F001020262036AA2
:102A1000446882691B4D22F003022A400D6823F0AE
:102A200002032A430D692B434D6823F001032B4316
:102A3000154DA8420BD0154DA84208D0144DA84200
:102A400005D0144DA84202D0134DA84212D14D69B1
:102A500023F0080343EA85038D6823F0040343EA67
:102A600085038D6924F480742C43CD6924F40074AB
:102A700044EA450444608261C968416303620020FE
:102A800030BD00008FFFFEFF002C014000340140EC
:102A900000400140004401400048014030B5026A56
:102AA00022F010020262056A426883691D4C23F419
:102AB000407323400C6843EA042425F020030D6989
:102AC00043EA05134D6823F0100343EA0513164D3E
:102AD000A8420BD0154DA84208D0154DA84205D0EC
:102AE000144DA84202D0144DA84213D14D6923F0D1
:102AF000800343EA85138D6823F0400343EA85137E
:102B00008D6922F4806242EA8502CD6922F4006276
:102B100042EAC50242608461C968816303620020A1
:102B200030BD0000FF8FFFFE002C0140003401404B
:102B300000400140004401400048014030B5026AB5
:102B400022F480720262046A4368C2691C4D22F05A
:102B500003022A400D6824F400742A430D6944EAF4
:102B600005244D6824F4807444EA0524154DA842D8
:102B70000BD0154DA84208D0144DA84205D0144DD5
:102B8000A84202D0134DA84213D14D6924F4006429
:102B900044EA85248D6824F4806444EA85248D69A0
:102BA00023F4805343EA0513CD6923F4005343EA29
:102BB00045134360C261C968C1630462002030BD2F
:102BC0008FFFFEFF002C0140003401400040014017
:102BD000004401400048014030B5026A22F48052AE
:102BE0000262056A4268C3691D4C23F440732340A6
:102BF0000C6843EA042425F400530D6943EA0533C5
:102C00004D6823F4805343EA0533164DA8420BD098
:102C1000154DA84208D0154DA84205D0144DA84224
:102C200002D0144DA84213D14D6923F4004343EA66
:102C300085338D6823F4804343EA85338D6922F41C
:102C4000804242EA8512CD6922F4004242EAC5126E
:102C50004260C461C96801640362002030BD0000A5
:102C6000FF8FFFFE002C0140003401400040014076
:102C700000440140004801400648416C21F40041F5
:102C800041646FF001010161026912F0010FFBD094
:102C900001617047002C01400D4940F2A4600860BA
:102CA000091F0860091F086009486FF001013C38DE
:102CB0000161026912F0010FFBD00161016A40F26B
:102CC000111211430162416C41F4004141647047AB
:102CD0003C2C01407047000005498968054A01F015
:102CE000F0010909515C01F01F01C8407047000064
:102CF00000100240D84C000805498968054A01F4D3
:102D0000E06102EB1121097801F01F01C840704712
:102D100000100240E84C000805498968054A01F4A2
:102D2000605102EBD121097801F01F01C8407047C2
:102D300000100240E84C00081549886800F00C03B8
:102D40001448042B0DD04210082B09D00C2B08D1AD
:102D5000CB6803F00303022B05D0032B03D101E062
:102D6000104670471046CA68C2F306224243C8683C
:102D7000C96800F0F003012000EB1313B2FBF3F27B
:102D800001F0C06100EB51604000B2FBF0F0704711
:102D9000001002400024F4000022144903E0521CF9
:102DA00092B2C82A17D88B68C3F34003002BF6D021
:102DB000C86000200E4A03E0401C80B2C8280AD830
:102DC0009368C3F3C013002BF6D1002005E0401C2C
:102DD00080B2C82801D9002070478A6812F0010F1C
:102DE000F5D002480C30006880B2704700380040CF
:102DF00000300140704730B504464FF47A7502E068
:102E0000284600F003F8641EFAD230BDF0B54FF04A
:102E1000E0240021A3690C4EAA25A269934202D99D
:102E2000A3EB020303E003D2A6EB02073B441944E1
:102E30001346B1FBF5F2824205D2801AB1FBF5F2DE
:102E400005FB1211E9E7F0BD10980200014909687D
:102E5000081A704708000020014800687047000009
:102E6000080000204FF0E0210F4848610F4800683B
:102E7000C0F30220C0F10702042A00D90422031D76
:102E8000072B01D2002000E0C01E012393405B1EEF
:102E900003F002028240064B0020120183F8142D39
:102EA00088610720086170470F9802000CED00E070
:102EB0000FE000E002480168491C01607047000013
:102EC0000800002070B53648016821F00F0141F07C
:102ED00004010160016801F00F010429FAD13148B1
:102EE00050F8801F21F4807101602F4C206840F45D
:102EF000803020602068C0F340400028FAD0E168AC
:102F000045F21350294A11400843E060E06840F060
:102F10008070E060206840F0807020602068C0F31E
:102F200040600028FAD0A06840F00300A060802034
:102F3000FEF752FEA06800F00C000C28FAD11C48E5
:102F4000016841F0807101601A48016841F0010197
:102F500001600021416041686429FCD30020FEF734
:102F60003BFEA06820F4E060A060A06820F4605000
:102F7000A060114D2846FEF78AFD2846FEF772FE36
:102F8000D4F8880020F00C00C4F88800D4F8880039
:102F900020F0405040F00050C4F8880070BD0000A0
:102FA0000020024000700040001002400C80FFF939
:102FB000FCED00E0001000E080FE210A02480168FC
:102FC00041F470010160704788ED00E03349DFEDA6
:102FD000320AB5EEC00AD1ED001A91ED021A30485E
:102FE000F1EE10FA02D2C0ED001A16E091ED062AB9
:102FF000F6EE002AB4EEC20AF1EE10FA13D2D1EDC9
:10300000030A41EE001A20EEA22A60EE002A00EE2A
:10301000801A42EE221AC0ED001A80ED011A00BF9C
:10302000C0ED020A704791ED071A32EE011AB4EEB4
:10303000C01AF1EE10FA0ADD70EE421A91ED091A8B
:1030400091ED040A00EE211A80ED001A17E0D0ED90
:10305000031A124AF4EEC01A92ED011AF1EE10FAB8
:1030600010DD30EE610AD1ED050A60EEA21A20EE05
:10307000002A20EE800A01EE821A80ED001A80ED0F
:10308000010ACDE7F4EEC01AF1EE10FACAD880EDCD
:10309000001AC0ED010AC3E700000000C8000020CC
:1030A0009033002010B52DED0A8BB0EE62BAF0EE31
:1030B000418AB0EE00CAB0EE609A68EEA8BA6BEE34
:1030C0000C0AF0EE40AA84B0B0EE42AA8BEEA00A41
:1030D000F0EE61CA7AEEC99A10EE100AFDF798FA7E
:1030E000CDE9020118EE900AFDF792FACDE9000150
:1030F0000399019861F31E0003909DED020B51ECC2
:10310000100BFDF7B1FA00EE100A39EEC00A10EE0E
:10311000100A002802DABFEE008A01E0B7EE008A4A
:103120005F4C28EE0A0A28EE281A68EE4B0A84ED56
:10313000030A28EE2C0AC4ED050A84ED040A68EEA1
:10314000001AB4EEE11AF1EE10FA03DD28EE4A1A85
:1031500084ED031A30EE682A94ED031AF1EE402A4A
:10316000B6EE00AAC2EE011A82EEA02A70EE282A5C
:10317000C4ED061A61EE8A1A61EEA21A84ED082ADD
:1031800022EE0A2A42EE001A28EE292A68EE212AA7
:10319000B4EEE22AF1EE10FA58D221EE0C0A6BEEF0
:1031A000A01A20EE200A70EEC10A40EE291A81EE24
:1031B000A00A10EE100AFDF72BFA9FED3ABB41EC86
:1031C000100BB0EE4B1AF0EE6B1A00F00CF951EC4C
:1031D000100BFDF749FA00EE100A00F0C1F920EEDD
:1031E000088A84ED048A78EE680A94ED031A80EE6A
:1031F000810A10EE100AFDF70BFA41EC110BB0EE4C
:103200004B0AF0EE6B0A00F0EEF851EC100BFDF7F4
:103210002BFAA06194ED051AF1EE480A80EE810ABE
:1032200010EE100AFDF7F4F941EC110BB0EE4B0A69
:10323000F0EE6B0A00F0D7F851EC100BFDF714FA22
:103240009FED1A0A206284ED070A05E079EEE10A93
:1032500080EE801A84ED071A94ED060AD4ED070A71
:1032600094ED081A124870EE200A70EE810AC0ED43
:10327000030A84ED009AC4ED01AAC4ED028AD4EDDC
:10328000030A08EE809A20EE000A60EE8A0A00EE39
:10329000809A84ED099A04B0BDEC0A8B10BD000041
:1032A000C800002000000000000000000000000036
:1032B0009033002010B5114CE069C0F34010002895
:1032C00015D0606AC0B2A0620D493138052804D219
:1032D000DFE800F005070E101200086803E0012087
:1032E00000E002200860FEF7B9F80820206210BD57
:1032F0000320F7E70420F5E70520F3E7004400404A
:103300000002002070B50F4C002542F2080620682C
:1033100018B93046FEF772F9206032460A49FCF7C8
:10332000CBFF002242F20401206800F09DFE2168DC
:1033300001F500514968814201D04FF0FF35284620
:1033400070BD00008000002000B8010810B50B4CD3
:10335000206820B942F20800FEF750F920609FED86
:10336000080AD4F8001000204FF4006201EB80033B
:10337000401C83ED000A9042F8DB10BD8000002065
:1033800000000000FDF720FFFEE700000FB4054B32
:1033900010B503A9044A029800F0EAF910BC5DF8E0
:1033A00014FB000049450008F0000020002809DB5C
:1033B00000F01F02012191404009800000F1E0204F
:1033C000C0F8001170470907090E002804DB00F15E
:1033D000E02080F80014704700F00F0000F1E020BA
:1033E00080F8141D704700B52DED048BB0EE418AB6
:1033F000F0EE618AB0EE409AF0EE609A83B053EC42
:10340000182B51EC190BFDF760FA00F07040B0F189
:10341000005F1AD018EE101A18EE900A8DED008B8E
:10342000002918BF0121084320F00040C0F17F604F
:1034300000F1E040C00F01BFB0EE480AF0EE680AAC
:1034400003B0BDEC048B08BF00BDB0EE490A03B069
:10345000F0EE690ABDEC048B00BD000010B52DED47
:10346000040B86B09DED060B10EE100A10EE901ABC
:103470008DED000B002818BF0120084320F000400C
:10348000C0F17F6000F1E040C00F21D19DED080B3D
:1034900010EE101A10EE900A8DED000B002918BFE7
:1034A0000121084320F00040C0F17F6000F1E040BE
:1034B000C00F0DD129490798B1EB400F04BF069802
:1034C000002842D00998400004BF089800283CD04A
:1034D0009DED080B53EC102B9DED060B51EC100BE2
:1034E000FDF798F9CDE902019DED020B40F2FF7165
:1034F00010EE900A8DED000B31EA105021D00798A4
:10350000039900F0004001F00041884219D09DED80
:10351000080B8DED040B9DED020B8DED000B10EEF5
:10352000900A059961F31E0005909DED041B9DED29
:10353000020B51EC110B53EC102BFCF785FFCDE97E
:1035400002019DED020B0AB010BD012000F048F809
:103550000AB0BDE8104000F023B800000000E0FF12
:1035600010B52DED028BB1EEC08A18EE100A20F0D6
:103570000040C0F1FF40C00F0AD010EE100A20F04A
:103580000040C0F1FF40C00F04BF012000F028F848
:10359000B0EE480ABDEC028B10BD00000000000038
:1035A0009FED050B10B553EC102B51EC100BFCF7F5
:1035B000C0FF41EC100B10BD000000000000000037
:1035C00002E008C8121F08C1002AFAD170477047EC
:1035D000002001E001C1121F002AFBD1704700004A
:1035E0000149086070470000F40000202DE9FF5FEA
:1035F00082B00021DDE90430020DDDF840B0034364
:1036000018D044F61050A2F2FF324243151411981C
:1036100001281FD0A5EB0B00401C5FEA000A4FF009
:1036200000064E4FDFF83891B046504615D5CAF126
:10363000000413E0119801244AA3012801D16FEA84
:103640000B010298119AC0E90031C0E9024206B0AC
:10365000BDE8F09FCBF10000DFE704460021404ABF
:10366000491842EB0450CDE9001012E0E00707D002
:1036700032463B4640464946FCF7E9FE80468946CD
:1036800032463B4610461946FCF7E1FE06460F4619
:103690006410002CEAD1DDE90401DDE90023BAF170
:1036A000000F06DAFCF7D3FE42464B46FCF7CFFE8E
:1036B00005E0FCF73EFF42464B46FCF73AFF044666
:1036C0000E460022284BFCF7B7FF03D84FF0FF301F
:1036D000014607E00022254B20463146FCF710FE4C
:1036E000FDF7DBF8102409E0002C0ADB0A22002396
:1036F000FCF790FD039B30321A55641E50EA01021C
:10370000F2D1641C039AC4F111031444119A012AE2
:1037100003D0012208430DD10AE0084304D0002061
:103720004FF0110B119072E7A3EB0B056D1E0DE02E
:103730005B4504DD4FF0000205F1010504E003DA0A
:103740004FF00002A5F10105002AECD00298119972
:10375000C0E90231C0E9004579E7000000001440EB
:103760000000F03F300000000000F0430000E03FA8
:103770002DE9FF4F95B09A46884606460025EEE1B2
:10378000252877D100242746F94A0121039400E037
:10379000044316F8013F203B01FA03F01042F7D131
:1037A00030782A2811D06FF02F033078A0F1300242
:1037B000092A16D8039A44F0020402EB820203EBB2
:1037C00042021044761C0390EFE758F8042B039252
:1037D000002A03DA504244F40054039044F00204F7
:1037E000761C30782E2816D116F8010F44F0040408
:1037F0002A280DD06FF02F023078A0F13003092B6A
:1038000009D807EB870302EB4303C718761CF3E7DD
:1038100058F8047B761C30786C280FD006DC4C28D6
:1038200017D068280DD06A2814D104E0742810D06D
:103830007A280FD10DE044F400140AE044F4801417
:1038400001E044F440147278824202D104F58014FD
:10385000761C761C307866280BD013DC582877D07D
:1038600009DC002875D04528F6D04628F4D0472832
:103870001AD193E118E0632835D0642879D06528FF
:1038800012D18BE1702873D008DC6728F1D0692849
:103890006FD06E280DD06F2806D1ACE073282CD0E5
:1038A000752874D0782853D05246179990476D1CCC
:1038B00054E1C4F30250022809D003280DD0D8F8EF
:1038C000001004280DD00D6008F1040846E1D8F876
:1038D0000010EA17C1E90052F6E7D8F800100D8091
:1038E000F2E70D70F0E718F8041B8DF800100020C7
:1038F0008DF80100EB46012003E058F804BB4FF0BF
:10390000FF3061074FF0000102D40DE009F1010121
:103910008946B9420FDA8145F8DB1BF80910002906
:10392000F4D108E009F1010189468142FADB1BF874
:1039300009100029F6D103985346A0EB0907214648
:103940003846179A00F080FA284400EB090507E092
:1039500044E008E10DE01BF8010B5246179990472F
:10396000B9F10109F7D2534621463846179AF2E0D9
:1039700039E00A21C4F302524FF0000B0091022AF1
:1039800006D058F8040BC117032A09D00AE023E037
:1039900008F1070020F00702F2E80201904605E076
:1039A00000B2C117042A01D140B2C117002906DABA
:1039B0000A460021404261EB02012D2202E022056D
:1039C00004D52B228DF80420012203E0E20701D068
:1039D0002022F7E7914657E00A2100E010214FF03E
:1039E000000B00910BE010214FF0000B44F0040499
:1039F0000827009103E008204FF0000B0090C4F36B
:103A00000252022A05D058F8040B0021032A08D0DC
:103A100008E008F1070020F00702F2E802019046F2
:103A200003E080B2042A00D1C0B24FF0000922079F
:103A30002AD53278702A07D0DDF800C08CF0100C3F
:103A40005CEA0B0C05D00EE040228DF80420012228
:103A500008E050EA010306D030238DF804308DF8D9
:103A6000052002229146009B83F0080353EA0B03D2
:103A70000AD150EA010201D1620705D530228DF842
:103A800004204FF001097F1E3278582A04D039A251
:103A90000C920CAA02920BE03BA2F9E75B46009A5B
:103AA000FCF7B8FB0C9B9B5C029A521E02921370AF
:103AB00050EA0102F2D1029804A9081A00F1200B81
:103AC000600702D524F4803400E001275F4502DD61
:103AD000A7EB0B0000E0002000EB0B010090039827
:103AE0004944401A0390E00306D453462146179AEE
:103AF000039800F0A9F90544002706E001A8524602
:103B0000C05D179990476D1C7F1C4F45F6DBE003A5
:103B10000CD553462146179A039800F095F90544B1
:103B200004E030205246179990476D1C0099481EBA
:103B300000900029F5DC08E00298029952460078CE
:103B4000491C0291179990476D1CBBF10001ABF124
:103B5000010BF1DC5BE100F065F90544761C30787F
:103B600000287FF40DAE19B02846BDE8F08F0000A4
:103B70000928010030313233343536373839616243
:103B80006364656600000000303132333435363707
:103B9000383941424344454600000000600700D4E4
:103BA000062708F1070020F00700F0E8022380460E
:103BB00003F0004C5FEA0C0001D097A009E020055B
:103BC00001D596A005E0E00701D095A001E0AFF295
:103BD0004C001390307823F0004365280CD006DCAD
:103BE000452809D046281DD047287FD13BE06628CC
:103BF00018D067287AD136E00021112F01DB11207F
:103C000000E0781CCDE9000104A90CA8FFF7EEFC48
:103C1000DDE90D010C9A4FF0000B07F1010910923C
:103C200000914EE04FF000400097CDE9011004A94B
:103C30000CA8FFF7DBFCDDE90D020C9B0F994FF0A0
:103C4000000B91461093009211B9791C00EB010909
:103C5000B7EB090003D4C0F1FF3B07F10109A9EB61
:103C60000700019042E0012F00DA01270021112F07
:103C700001DD112000E03846CDE9000104A90CA8BF
:103C8000FFF7B4FCDDE90D010C9A00914FF0000B39
:103C9000B946109221070FD4009A4A4503DA91469B
:103CA00001E0A9F10109B9F1010F05DD109AA9F1AF
:103CB0000101515C3029F4D0B84202DA10F1040F4E
:103CC00003DA0121CDE9011010E0002803DC834470
:103CD000A9EB000102E0411C494500DD8946A0EB4B
:103CE0000B00401C01904FF000400290200705D4CB
:103CF0000198484502DB4FF0FF30019000208DF81D
:103D00004B0002980DF14B07B0F1004F25D0022077
:103D10000C902B200D90029800280CDA4042029063
:103D20002D200D9007E00A210298FCF7B9FC3031F4
:103D3000029007F8011D0C99481E0C900029F2DC36
:103D400002980028EFD1791E0D980870307800F0A5
:103D5000200040F0450007F8020D11A8C01BC01D4F
:103D600002901398007800B1012000EB090101983E
:103D700001EBE071029801440398401A401E039041
:103D8000E00306D453462146179A039800F05CF8E6
:103D900005441398007818B15246179990476D1C46
:103DA000E00323D553462146179A039800F04CF8B8
:103DB00005441BE0BBF1000F07DB0098584504DD0C
:103DC0001098179910F80B0001E01799302052460F
:103DD000904701980BF1010B401E05F10105019080
:103DE00004D12E205246179990476D1CB9F100015D
:103DF000A9F10109DEDC05E017F8010B524617991D
:103E000090476D1C0299481E02900029F4DC53462D
:103E10002146179A03989EE62D0000002B00000013
:103E2000200000002DE9F041044600251E461746FB
:103E3000880404D405E039462020B0476D1C641E78
:103E4000F9D52846BDE8F0812DE9F041044600256A
:103E50001E469046C80301D5302700E0202788047D
:103E600004D505E041463846B0476D1C641EF9D5BF
:103E70002846BDE8F081000000B5B7EE002A2DED20
:103E8000048BB0EE619A85B0DFED2B1A60EE211A3B
:103E900082EE210A60EE208A20EE018A28EEA80A2E
:103EA00008EE080AFFF75CFB9FED241AF0EE400ACB
:103EB00081EE200A10EE100AB0F17E5F03DA68EEA0
:103EC000808A28EE008A01A96846B0EE491AF0EE11
:103ED000480AB0EE680A00F043FB9DEC020A04AA0F
:103EE00003A902A800F0C2FDDDED020A9FED140A4D
:103EF000144960EE800AFCEEE00A10EE900A80B2EF
:103F00000860DDED030A091F60EE800AFCEEE00A9E
:103F100010EE900A80B20860DDED040A091F20EE61
:103F2000800ABCEEC00A10EE100A80B2086005B02C
:103F3000BDEC048B00BD0000ABAA2A3FAC5C313F56
:103F4000008054453C2C01409FED1D1AF5EE000AFF
:103F500040EE010ABDEEE00AF5EEC00A10EE100ACE
:103F6000F1EE10FA00D2401E00EE100AB8EEC00AC0
:103F700030EEC00ADFED130A20EE200ABCEEC01AB4
:103F800011EE100A80B2B0F5007F02D330EE600A65
:103F9000002000EE900A0C49F7EE001AF8EE600AD5
:103FA00001EB800090ED011A70EE600A90ED000ABE
:103FB00071EEE01A21EE800A00EE810A70470000DF
:103FC00083F9223E00000044F0500008DFED1C0A97
:103FD00020EE200AFDEEC00AB5EEC00A10EE900AEF
:103FE000F1EE10FA00D2401E00EE900AF8EEE00A60
:103FF00030EE600ADFED130A20EE200ABCEEC01A94
:1040000011EE100A80B2B0F5007F02D330EE600AE4
:10401000002000EE900A0C49F7EE001AF8EE600A54
:1040200001EB800090ED011A70EE600A90ED000A3D
:1040300071EEE01A21EE800A00EE810A704700005E
:1040400083F9223E00000044F050000880ED000A91
:1040500030EEC10ADFED030A20EE200A81ED000AEE
:10406000704700003ACD133F034610B51046074A8B
:1040700008E000BF13F8014B84EA106452F82440B2
:1040800084EA0020491EF5D210BD0000F04C000863
:104090002DE9F041B84FB94CB64D2DED028B2946B4
:1040A00097ED013A94ED021A686897ED000A73EEF5
:1040B000411AD7ED022A91ED062ADFEDB18A9FED74
:1040C000B18AD4ED010A05280AD2DFE800F0030A1C
:1040D000325E750084ED010A84ED023AC4ED032AD4
:1040E000A9E095ED0D0AD4ED031A20EE280A72EE30
:1040F000E10AB0EEC01AB1EE410AF4EEC00AF1EEE8
:1041000010FA02DDB0EE602A01E0B0EE402AB4EE13
:10411000C12AF1EE10FA02DDB0EE410A06E0F4EE3B
:10412000C00AF1EE10FA01DDB0EE600A31EE800A4D
:1041300028E095ED0E0A20EE280AF0EEC00AB1EE56
:10414000600AF4EEC01AF1EE10FA02DDF0EE612A18
:1041500001E0F0EE402AF4EEE02AF1EE10FA02DD82
:10416000F0EE601A06E0F4EEC01AF1EE10FA01DC8F
:10417000F0EE401A31EE210A84ED020A81EEA80A1F
:1041800020EE020A84ED030A55E030EE600AD4ED19
:10419000042A22EE800AD4ED052A02EEA10A00EEDE
:1041A000281A62EE001AC4ED031A84ED021A41EED9
:1041B000280AC4ED010A3EE02078734E58B105F19B
:1041C0004800D0EC031AFEF76DFF86ED048A00204C
:1041D0003075207001E0307D68BB96ED040AD6EDA5
:1041E000030AB4EEE00AF1EE10FA0CDD0220A8603A
:1041F00097ED000A012084ED010A84ED028A84ED26
:10420000038A307517E0FEF7E1FE96ED000A84EDB3
:10421000010A96ED010A84ED020A96ED020AD5ED37
:10422000060A20EE200A84ED030A96ED040A30EE19
:10423000280A86ED040AA868D4ED020A5349F7EE6D
:10424000001A022816DB91ED000A94ED011AEA6BC0
:1042500031EE400A95ED0B1A41EE000AB0EEC00AAD
:1042600042B195ED101AB4EEC01AF1EE10FA01DB6E
:10427000C0EE011A95ED600AB1EE401AB4EEE01AF4
:10428000F1EE10FA02D2B0EE602A01E0B0EE412A5F
:10429000B4EEC20AF1EE10FA09D3B4EEE01AF1EE70
:1042A00010FA02D2B0EE600A01E0B0EE410A94EDDD
:1042B000031AF0EE480A01280DDBD1ED070A70EE73
:1042C000600A95ED0A0A20EE210A00EE201A94ED0C
:1042D000060A31EE001A95ED072AD5F8742181EE11
:1042E000020A8AB12A4A127872B1C96847F6FF7287
:1042F000C1EBC12191FBF2F1264A126802EB810168
:1043000091ED001A31EE000A95ED611A0021B4EE2C
:10431000C01AF1EE10FA02D20121B0EE410AB1EE5C
:10432000411AB4EEC01AF1EE10FA04DDB0EE410A03
:10433000012802DB08E0012805DA84ED068ABDECDD
:10434000028BBDE8F08141B1D4ED060A9FED121A4F
:1043500060EE810AC4ED060AF1E795ED0C1A21EE34
:10436000211A61EE281A94ED061A01EEA01A84EDC6
:10437000061AE4E700020020F40100205C0000209F
:10438000ACC527380000000090330020F800002062
:10439000BC00002080000020A4707D3F1D4810B5A7
:1043A0000078052835D2DFE800F00305121928004F
:1043B00019A02AE01DA0FEF7E9FF2148FCF7D6FC72
:1043C0002048FDF707F8BDE81040FCF701BF1EA02C
:1043D000FEF7DCFFBDE81040FCF7A6BC1FA0FEF70F
:1043E000D5FF1748FCF7C2FC1648FCF7F3FFFCF7B3
:1043F000EFFEBDE81040FCF72BBB00F0A1FA11481E
:10440000FCF7E8FFFCF7E4FE19A0BDE81040FEF75A
:10441000BDBF10BD18000020456E746572204D456B
:104420004E55204D6F64650A0D000000456E7465A1
:1044300072204D6F746F72204D6F64650A0D00001D
:10444000F4010020C001002043616C696272617454
:10445000696F6E2053746172740A0D00416E746945
:10446000636F6767696E672053746172740A0D0029
:10447000456E7465722053696D706C65464F4320BC
:104480004D6F64650A0D000070B5114C0125207850
:1044900005281CD2DFE800F00305090F15000DA068
:1044A00012E0FCF787FF0EA00EE0FCF783FFFCF79D
:1044B000DFFA10A008E0FCF77DFFFCF7BFFA12A0BE
:1044C00002E0FCF777FF15A0FEF760FFA57070BD56
:1044D0001800002045786974204D454E550A0D009E
:1044E00045786974206D6F746F72206D6F64650A12
:1044F0000D00000043616C6962726174696F6E2027
:10450000456E640A0D0A0D00416E7469636F67673A
:10451000696E6720456E640A0D0A0D00457869745E
:104520002053696D706C65464F43206D6F64650A5A
:104530000D00000010EE101A01700A0A42700A0CF9
:104540008270090EC17070470449C2B28A62CA699A
:10455000C2F38012002AFAD07047000000440040E5
:1045600070B50C462DED048BF0EE419AF0EE408ACA
:104570000546B0EE608AB0EE690AFFF7E5FCB0EEE2
:10458000409AB0EE690AFFF721FDB0EE401A28EE1E
:10459000890A08EE410A85ED000A28EE810A08EE34
:1045A000090A84ED000ABDEC048B70BD86B0454855
:1045B000016E41F001010166016E01F001010091FF
:1045C000816D41F080518165806D00F080500090D8
:1045D0003D4801684FF6FF0211403C4A41F44071EA
:1045E000114301600068C0F30220C0F107010429F3
:1045F00000D90421021D072A01D2002000E0C01EBC
:1046000001228A40521E02F0020181400025080169
:104610002F4981F8140D2F48816841F48041816051
:10462000FEF750FCFEF71EFCFDF716FFFDF748FDF8
:10463000FDF72CFEFDF77EFFFDF7E2FFFEF74AF8DF
:10464000FEF724F9244C9FED250A2548A56084ED4A
:10465000010A2561016841F001010160FCF7F7FBE7
:1046600018B120A0FEF792FEFEE724A0FEF78EFE12
:1046700000F0D4F80120FCF7F1FEA246FDF70AF89D
:10468000DAF82400FBF7C4FF80468946DAF81C00FC
:10469000FBF7BEFF06460F46DAF81800FBF7B8FF37
:1046A00004460D46DAF81400FBF7B2FF8DE8F0037C
:1046B00041EC100B19A053EC102BDAF80C10FEF79C
:1046C00065FEDBE7001002400CED00E00000FA059B
:1046D0000FE000E000700040F80000200000000043
:1046E000002C01400A0D4452563833323320696E93
:1046F0006974206661696C210A0D00000A0D44523C
:10470000563833323320696E69742073756363657C
:10471000737366756C210A0D000000006969696990
:10472000693A202564202025662020256620202542
:1047300066202025660D0A0070B50C462DED048B11
:10474000F0EE419AF0EE408A0546B0EE608AB0EE97
:10475000690AFFF7F9FBB0EE409AB0EE690AFFF77D
:1047600035FCB0EE401A28EE890A08EE010A85ED04
:10477000000A28EE090A08EEC10A84ED000ABDEC21
:10478000048B70BD10484FF44051420706D0C01D45
:104790000D4920F00700411AC1F540510B4A002392
:1047A0000144C2E900030839103A21F00701116001
:1047B0004B600B600B1AC0E9001393604FF0004090
:1047C0005360D0607047000090030020B4000020C8
:1047D00030B5114900E011460A688242FBD34B68AC
:1047E0005C18844203D14068184448600846436816
:1047F0001C18944209D1084C103C2468A24209D0EC
:1048000052681A4442600A6812680260814200D00D
:10481000086030BD0460F9E7B400002010B5374CE3
:104820000120206036A0FEF7B1FD002004219FED9D
:10483000370A6060C4E9020184ED040A9FED340A7E
:10484000DFED360A84ED050A9FED320A9FED341A3A
:1048500084ED060A9FED300AF2EE041A84ED070A91
:10486000C4ED0D0A84ED0E1AC4ED111A9FED2D0A48
:10487000E06384ED100A9FED2C0A84ED0B0A9FED96
:104880002B0A84ED0A0A9FED2A0A84ED0C0A9FED9B
:10489000290A84ED600AB3EE040A84ED610AB2EEDF
:1048A000080A84ED150AB3EE0E0A84ED160A9FED90
:1048B000220A84ED170A84ED121A84ED130A84ED9E
:1048C000140A9FED1E1AC4F8740184ED5E1AC4ED3B
:1048D0005F0A2066C4F86801C4ED5B1AF0EE000AB6
:1048E000C4ED5C0A4FF47A70F0EE080AC4F888014F
:1048F000C4ED080A84ED090A10BD00000002002082
:104900000A0D445256383332330A0D0063F0303DFD
:104910008BE1EA366F12833A8FC2753D0AD7233C8A
:104920000000484217B7D138000082439A99193ED7
:104930000AD7A33C0000B4420000C8426F12033BF8
:104940000848B0EE080A80ED000A9FED070A80EDE6
:10495000010A9FED060A80ED020AB1EE040A80ED1D
:10496000030A7047A83300200000964300000000AF
:1049700000B5D0ED020A9FED201AF7EE001A85B0BF
:1049800060EE810A684681EEA01AD1ED030A01A902
:1049900060EE810AB0EE401A9FED180AFFF7E0FDC5
:1049A0009DEC020A04AA03A902A800F05FF8DDED5D
:1049B000020A9FED130A134960EE800AFCEEE00A3A
:1049C00010EE900A80B20860DDED030A091F60EE68
:1049D000800AFCEEE00A10EE900A80B20860DDED7D
:1049E000040A091F20EE800ABCEEC00A10EE100A6D
:1049F00080B2086005B000BDABAA2A3F00000000ED
:104A0000008054453C2C0140F0B50646002008804B
:104A10000546441E42F21073134A04E06D1C9D4289
:104A200001D9204604E09768C7F34007002FF5D06E
:104A3000D660002504E06D1C9D4201D9204604E0AB
:104A40009668C6F3C016002EF5D1002504E06D1C53
:104A50009D4201D9204603E0966816F0010FF6D07A
:104A6000D2680A80F0BD0000003001409FED663A38
:104A7000F0EE402A40EEC32A60EE834A9FED631AAF
:104A8000B0EE402AF0EE401A20EE814AB1EE401A14
:104A900000EE832A00EEC31A50EE831AF5EEC00A28
:104AA000B7EE003AF6EE003AF1EE10FA30DB9FED89
:104AB000585AB5EEC00A60EE850AF1EE10FA13DB23
:104AC000F4EEC04AF1EE10FA55DC33EE620A30EE35
:104AD000600A20EE230A80ED000A30EE220A81ED02
:104AE000000A30EE200A54E0B4EEC04AF1EE10FAAB
:104AF00041DD33EE600A30EE410A20EE230A81EDFB
:104B0000000A30EE200A82ED000A30EE010A2FE0A2
:104B10009FED405AB5EEC00A60EE850AF1EE10FA3C
:104B200013DBB4EEC04AF1EE10FA35DC33EE600A66
:104B300030EE420A20EE230A80ED000A30EE020A2F
:104B400082ED000A30EE200A34E0F4EEC04AF1EEC5
:104B500010FA21DD33EE610A30EE600A20EE230AFE
:104B600082ED000A30EE200A81ED000A30EE210AC3
:104B700080ED000A20E033EE420A30EE610A20EEBA
:104B8000230A81ED000A30EE210A80ED000A30EEA2
:104B9000020A82ED000A0FE033EE410A30EE620AAB
:104BA00020EE230A82ED000A30EE010A80ED000AB1
:104BB00030EE220A81ED000A90ED000AB5EEC00A3F
:104BC000F1EE10FA1DDB10EE100A4FF07E53984202
:104BD00017DC91ED000AB5EEC00AF1EE10FA10DB19
:104BE00010EE100A98420CDC92ED000AB5EEC00AF5
:104BF000F1EE10FA05DB10EE100A984201DC0020FD
:104C000070474FF0FF3070473ACD133F3ACD13BF96
:104C10003ACD933F3ACD93BF00B548F2210000F062
:104C200003F8C0F30E0000BD30B50A4C4FF48055B8
:104C3000A562FEF7B1F8606840F4004060604FF68E
:104C4000FF70FEF7A9F8A561616821F40041616079
:104C500030BD00000004004800B548F23100FFF705
:104C6000E3FFC0F30D0100EE901AC0F38030800323
:104C7000B8EE601A00EE900AF8EE600A71EE600A73
:104C800080EE801A9FED020A21EE000A00BD0000AE
:104C900000008037000000000404040438380000DD
:104CA00008000000080000080100000002000000E9
:104CB0000400000006000000080000000A000000D8
:104CC0000C00000010000000200000004000000068
:104CD0008000000000010000000000000000000053
:104CE0000102030406070809000000000102030492
:104CF00000000000B71DC1046E3B8209D926430D98
:104D0000DC7604136B6BC517B24D861A0550471E2F
:104D1000B8ED08260FF0C922D6D68A2F61CB4B2BCF
:104D2000649B0C35D386CD310AA08E3CBDBD4F3877
:104D300070DB114CC7C6D0481EE09345A9FD524117
:104D4000ACAD155F1BB0D45BC2969756758B5652AF
:104D5000C836196A7F2BD86EA60D9B6311105A674F
:104D600014401D79A35DDC7D7A7B9F70CD665E74F7
:104D7000E0B6239857ABE29C8E8DA1913990609557
:104D80003CC0278B8BDDE68F52FBA582E5E664866F
:104D9000585B2BBEEF46EABA3660A9B7817D68B38F
:104DA000842D2FAD3330EEA9EA16ADA45D0B6CA0B7
:104DB000906D32D42770F3D0FE56B0DD494B71D9D7
:104DC0004C1B36C7FB06F7C32220B4CE953D75CAEF
:104DD00028803AF29F9DFBF646BBB8FBF1A679FF0F
:104DE000F4F63EE143EBFFE59ACDBCE82DD07DEC37
:104DF00077708634C06D4730194B043DAE56C539C7
:104E0000AB0682271C1B4323C53D002E7220C12AFE
:104E1000CF9D8E1278804F16A1A60C1B16BBCD1FFE
:104E200013EB8A01A4F64B057DD00808CACDC90C46
:104E300007AB9778B0B6567C69901571DE8DD47546
:104E4000DBDD936B6CC0526FB5E6116202FBD0667E
:104E5000BF469F5E085B5E5AD17D1D576660DC537E
:104E600063309B4DD42D5A490D0B1944BA16D840C6
:104E700097C6A5AC20DB64A8F9FD27A54EE0E6A106
:104E80004BB0A1BFFCAD60BB258B23B69296E2B2BE
:104E90002F2BAD8A98366C8E41102F83F60DEE873E
:104EA000F35DA9994440689D9D662B902A7BEA9406
:104EB000E71DB4E0500075E4892636E93E3BF7ED86
:104EC0003B6BB0F38C7671F7555032FAE24DF3FE3E
:104ED0005FF0BCC6E8ED7DC231CB3ECF86D6FFCBBE
:104EE0008386B8D5349B79D1EDBD3ADC5AA0FBD886
:104EF000EEE00C6959FDCD6D80DB8E6037C64F64E6
:104F00003296087A858BC97E5CAD8A73EBB04B779D
:104F1000560D044FE110C54B383686468F2B47425D
:104F20008A7B005C3D66C158E4408255535D435125
:104F30009E3B1D252926DC21F0009F2C471D5E2865
:104F4000424D1936F550D8322C769B3F9B6B5A3B1D
:104F500026D6150391CBD40748ED970AFFF0560EDD
:104F6000FAA011104DBDD014949B93192386521DA5
:104F70000E562FF1B94BEEF5606DADF8D7706CFCA5
:104F8000D2202BE2653DEAE6BC1BA9EB0B0668EFDD
:104F9000B6BB27D701A6E6D3D880A5DE6F9D64DA1D
:104FA0006ACD23C4DDD0E2C004F6A1CDB3EB60C965
:104FB0007E8D3EBDC990FFB910B6BCB4A7AB7DB025
:104FC000A2FB3AAE15E6FBAACCC0B8A77BDD79A35D
:104FD000C660369B717DF79FA85BB4921F4675969D
:104FE0001A163288AD0BF38C742DB081C3307185E5
:104FF00099908A5D2E8D4B59F7AB085440B6C95035
:1050000045E68E4EF2FB4F4A2BDD0C479CC0CD434C
:10501000217D827B9660437F4F460072F85BC176AC
:10502000FD0B86684A16476C93300461242DC565D4
:10503000E94B9B115E565A1587701918306DD81CB4
:10504000353D9F0282205E065B061D0BEC1BDC0FCC
:1050500051A69337E6BB52333F9D113E8880D03A2C
:105060008DD097243ACD5620E3EB152D54F6D42954
:105070007926A9C5CE3B68C1171D2BCCA000EAC874
:10508000A550ADD6124D6CD2CB6B2FDF7C76EEDB0C
:10509000C1CBA1E376D660E7AFF023EA18EDE2EEEC
:1050A0001DBDA5F0AAA064F4738627F9C49BE6FD94
:1050B00009FDB889BEE0798D67C63A80D0DBFB84F4
:1050C000D58BBC9A62967D9EBBB03E930CADFF978C
:1050D000B110B0AF060D71ABDF2B32A66836F3A26C
:1050E0006D66B4BCDA7B75B8035D36B5B440F7B114
:1050F00000000000920E493CB10AC93C2BC3163D8A
:105100002EFB483D752B7B3D04A9963D80B6AF3DF7
:1051100036BDC83D2FBCE13D73B2FA3D87CF093E95
:105120008340163EB5AB223EA2102F3ECF6E3B3ED3
:10513000C2C5473E0115543E135C603E7F9A6C3EEB
:10514000CCCF783EC07D823E938E883E229A8E3EA2
:1051500032A0943E86A09A3EE59AA03E128FA63ECB
:10516000D47CAC3EEF63B23E2A44B83E491DBE3EFD
:1051700015EFC33E53B9C93ECA7BCF3E4136D53E3B
:1051800080E8DA3E4F92E03E7533E63EBBCBEB3E25
:10519000EA5AF13ECBE0F63E275DFC3EE4E7003FF5
:1051A0003D9C033F824B063F9BF5083F6B9A0B3FAC
:1051B000DA390E3FCDD3103F2A68133FD9F6153F99
:1051C000C07F183FC6021B3FD17F1D3FCBF61F3F5C
:1051D0009967223F25D2243F5636273F1594293F11
:1051E0004AEB2B3FDE3B2E3FBB85303FC9C8323FE9
:1051F000F304353F233A373F4268393F3B8F3B3F0B
:10520000F9AE3D3F67C73F3F70D8413F01E2433FA2
:1052100003E4453F65DE473F12D1493FF8BB4B3FB2
:10522000029F4D3F207A4F3F3D4D513F4918533F1C
:1052300031DB543FE595563F5348583F6AF2593F9A
:105240001A945B3F532D5D3F05BE5E3F2146603F94
:1052500097C5613F5A3C633F59AA643F880F663F38
:10526000D86B673F3CBF683FA7096A3F0C4B6B3F59
:105270005E836C3F93B26D3F9ED86E3F73F56F3F78
:105280000809713F5213723F4714733FDD0B743F9F
:105290000BFA743FC6DE753F07BA763FC58B773F82
:1052A000F853783F9812793F9DC7793F02737A3F50
:1052B000BE147B3FCDAC7B3F283B7C3FC9BF7C3FCE
:1052C000AC3A7D3FCCAB7D3F23137E3FB0707E3F39
:1052D0006DC47E3F580E7F3F6D4E7F3FAB847F3F56
:1052E0000FB17F3F97D37F3F43EC7F3F11FB7F3F61
:1052F0000000803F11FB7F3F43EC7F3F97D37F3F10
:105300000FB17F3FAB847F3F6D4E7F3F580E7F3F95
:105310006DC47E3FB0707E3F23137E3FCCAB7D3F9C
:10532000AC3A7D3FC9BF7C3F283B7C3FCDAC7B3F47
:10533000BE147B3F02737A3F9DC7793F9812793F35
:10534000F853783FC58B773F07BA763FC6DE753F87
:105350000BFA743FDD0B743F4714733F5213723FD7
:105360000809713F73F56F3F9ED86E3F93B26D3F52
:105370005E836C3F0C4B6B3FA7096A3F3CBF683FA5
:10538000D86B673F880F663F59AA643F5A3C633F1A
:1053900097C5613F2146603F05BE5E3F532D5D3F8F
:1053A0001A945B3F6AF2593F5348583FE595563F80
:1053B00031DB543F4918533F3D4D513F207A4F3F19
:1053C000029F4D3FF8BB4B3F12D1493F65DE473F3F
:1053D00003E4453F01E2433F70D8413F67C73F3F89
:1053E000F9AE3D3F3B8F3B3F4268393F233A373F61
:1053F000F304353FC9C8323FBB85303FDE3B2E3F0B
:105400004AEB2B3F1594293F5636273F25D2243FA0
:105410009967223FCBF61F3FD17F1D3FC6021B3F3E
:10542000C07F183FD9F6153F2A68133FCDD3103FF0
:10543000DA390E3F6B9A0B3F9BF5083F824B063FD4
:105440003D9C033FE4E7003F275DFC3ECBE0F63E9A
:10545000EA5AF13EBBCBEB3E7533E63E4F92E03E5F
:1054600080E8DA3E4136D53ECA7BCF3E53B9C93ECD
:1054700015EFC33E491DBE3E2A44B83EEF63B23E1F
:10548000D47CAC3E128FA63EE59AA03E86A09A3E02
:1054900032A0943E229A8E3E938E883EC07D823EFC
:1054A000CCCF783E7F9A6C3E135C603E0115543E33
:1054B000C2C5473ECF6E3B3EA2102F3EB5AB223E4B
:1054C0008340163E87CF093E73B2FA3D2FBCE13DC3
:1054D00036BDC83D80B6AF3D04A9963D752B7B3DDA
:1054E0002EFB483D2BC3163DB10AC93C920E493CE8
:1054F00000000000920E49BCB10AC9BC2BC316BD06
:105500002EFB48BD752B7BBD04A996BD80B6AFBDF3
:1055100036BDC8BD2FBCE1BD73B2FABD87CF09BE91
:10552000834016BEB5AB22BEA2102FBECF6E3BBECF
:10553000C2C547BE011554BE135C60BE7F9A6CBEE7
:10554000CCCF78BEC07D82BE938E88BE229A8EBE9E
:1055500032A094BE86A09ABEE59AA0BE128FA6BEC7
:10556000D47CACBEEF63B2BE2A44B8BE491DBEBEF9
:1055700015EFC3BE53B9C9BECA7BCFBE4136D5BE37
:1055800080E8DABE4F92E0BE7533E6BEBBCBEBBE21
:10559000EA5AF1BECBE0F6BE275DFCBEE4E700BFF1
:1055A0003D9C03BF824B06BF9BF508BF6B9A0BBFA8
:1055B000DA390EBFCDD310BF2A6813BFD9F615BF95
:1055C000C07F18BFC6021BBFD17F1DBFCBF61FBF58
:1055D000996722BF25D224BF563627BF159429BF0D
:1055E0004AEB2BBFDE3B2EBFBB8530BFC9C832BFE5
:1055F000F30435BF233A37BF426839BF3B8F3BBF07
:10560000F9AE3DBF67C73FBF70D841BF01E243BF9E
:1056100003E445BF65DE47BF12D149BFF8BB4BBFAE
:10562000029F4DBF207A4FBF3D4D51BF491853BF18
:1056300031DB54BFE59556BF534858BF6AF259BF96
:105640001A945BBF532D5DBF05BE5EBF214660BF90
:1056500097C561BF5A3C63BF59AA64BF880F66BF34
:10566000D86B67BF3CBF68BFA7096ABF0C4B6BBF55
:105670005E836CBF93B26DBF9ED86EBF73F56FBF74
:10568000080971BF521372BF471473BFDD0B74BF9B
:105690000BFA74BFC6DE75BF07BA76BFC58B77BF7E
:1056A000F85378BF981279BF9DC779BF02737ABF4C
:1056B000BE147BBFCDAC7BBF283B7CBFC9BF7CBFCA
:1056C000AC3A7DBFCCAB7DBF23137EBFB0707EBF35
:1056D0006DC47EBF580E7FBF6D4E7FBFAB847FBF52
:1056E0000FB17FBF97D37FBF43EC7FBF11FB7FBF5D
:1056F000000080BF11FB7FBF43EC7FBF97D37FBF0C
:105700000FB17FBFAB847FBF6D4E7FBF580E7FBF91
:105710006DC47EBFB0707EBF23137EBFCCAB7DBF98
:10572000AC3A7DBFC9BF7CBF283B7CBFCDAC7BBF43
:10573000BE147BBF02737ABF9DC779BF981279BF31
:10574000F85378BFC58B77BF07BA76BFC6DE75BF83
:105750000BFA74BFDD0B74BF471473BF521372BFD3
:10576000080971BF73F56FBF9ED86EBF93B26DBF4E
:105770005E836CBF0C4B6BBFA7096ABF3CBF68BFA1
:10578000D86B67BF880F66BF59AA64BF5A3C63BF16
:1057900097C561BF214660BF05BE5EBF532D5DBF8B
:1057A0001A945BBF6AF259BF534858BFE59556BF7C
:1057B00031DB54BF491853BF3D4D51BF207A4FBF15
:1057C000029F4DBFF8BB4BBF12D149BF65DE47BF3B
:1057D00003E445BF01E243BF70D841BF67C73FBF85
:1057E000F9AE3DBF3B8F3BBF426839BF233A37BF5D
:1057F000F30435BFC9C832BFBB8530BFDE3B2EBF07
:105800004AEB2BBF159429BF563627BF25D224BF9C
:10581000996722BFCBF61FBFD17F1DBFC6021BBF3A
:10582000C07F18BFD9F615BF2A6813BFCDD310BFEC
:10583000DA390EBF6B9A0BBF9BF508BF824B06BFD0
:105840003D9C03BFE4E700BF275DFCBECBE0F6BE96
:10585000EA5AF1BEBBCBEBBE7533E6BE4F92E0BE5B
:1058600080E8DABE4136D5BECA7BCFBE53B9C9BEC9
:1058700015EFC3BE491DBEBE2A44B8BEEF63B2BE1B
:10588000D47CACBE128FA6BEE59AA0BE86A09ABEFE
:1058900032A094BE229A8EBE938E88BEC07D82BEF8
:1058A000CCCF78BE7F9A6CBE135C60BE011554BE2F
:1058B000C2C547BECF6E3BBEA2102FBEB5AB22BE47
:1058C000834016BE87CF09BE73B2FABD2FBCE1BDBF
:1058D00036BDC8BD80B6AFBD04A996BD752B7BBDD6
:1058E0002EFB48BD2BC316BDB10AC9BC920E49BCE4
:1058F000000000801459000800000020F80000009B
:10590000C03500080C5A0008F8000020C03600001E
:10591000D0350008000000000024F4000000000062
:105920000000000000000000000000000000010076
:105930000000000000000000000000000000000067
:105940000000000000000000000000000000000057
:105950000000000000000000000000000000000047
:105960000000000000000000000000000000000037
:105970000000000000000000000000000000000027
:105980000000000000000000000000000000000017
:105990000000000000000000000000000000000007
:1059A00000000000000000000000000000000000F7
:1059B00000000000000000000000000000000000E7
:1059C00000000000000000000000000000000000D7
:1059D00000000000000000000000000000000000C7
:1059E00000000000000000000000000000000000B7
:1059F00000000000000000000000000000000000A7
:0C5A00000000000000000000000000009A
:04000005080001D915
:00000001FF
