:020000040800F2
:1000000080380020F1010008AF3F0008AD2B000848
:10001000A93F000815170008394C0008000000002F
:10002000000000000000000000000000D9430008AC
:100030002B20000800000000B94200089944000885
:100040000B0200080B0200080B0200080B0200085C
:100050000B0200080B0200080B0200080B0200084C
:100060000B0200080B0200080B0200080B0200083C
:100070000B0200080B0200080B0200080B0200082C
:100080000B020008000000002D1300080B020008FE
:100090000B0200080B0200080B0200080B0200080C
:1000A0000B0200080B0200080B0200080B020008FC
:1000B0000B020008B14500080B0200080B02000803
:1000C0000B0200080B0200080B0200080B020008DC
:1000D0000B0200080B020008E94A00080B020008A6
:1000E0000B0200080B0200080B0200080B020008BC
:1000F0000B0200080B0200080B02000800000000C1
:10010000000000000B020008000000000B020008C5
:100110000B020008000000000B0200080B020008A0
:100120000B0200080B0200080B0200080B0200087B
:100130000B02000800000000000000000B02000895
:100140000B0200080B020008000000000000000085
:10015000000000000000000000000000000000009F
:100160000000000000000000000000000B0200087A
:100170000B0200080000000000000000000000006A
:10018000000000000B02000800000000000000005A
:10019000000000000000000000000000000000005F
:1001A00000000000000000000B0200080B02000825
:1001B0000B0200080B0200080B0200080000000000
:1001C000000000000B02000800000000000000001A
:1001D0000B0200080B020008DFF810D000F0BAFC98
:1001E0000048004799600008AFF300808038002085
:1001F0000648804706480047FEE7FEE7FEE7FEE7C1
:10020000FEE7FEE7FEE7FEE7FEE7FEE7A1450008A2
:10021000D90100082DE9F05F0546002092469B4673
:1002200088460646814640241BE02846414647460C
:10023000224600F01BFB53465A46C01A914110D388
:1002400011461846224600F016F82D1A67EB0108F1
:100250004F4622460120002100F00DF817EB00095F
:100260004E41201EA4F10104DFDC484631462A46F7
:100270004346BDE8F09F202A04DB203A00FA02F151
:10028000002070479140C2F1200320FA03F3194384
:1002900090407047202A06DBCB17203A41FA02F043
:1002A00043EAE07306E041FA02F3D040C2F12002D3
:1002B000914008431946704740EA01039B0703D069
:1002C00009E008C9121F08C0042AFAD203E011F895
:1002D000013B00F8013B521EF9D27047D2B201E057
:1002E00000F8012B491EFBD270470022F6E710B53B
:1002F00013460A4604461946FFF7F0FF204610BD94
:1003000010B5002200E0521C835C8C5CA34201D13A
:10031000002BF8D1D8B2E1B2401A10BD0FB400B52D
:100320008DB010A909900B9000914FF0FF300A900A
:1003300000200C9005480690054807906A4609A8D9
:100340000F9900F0A9FA0DB05DF814FBB50800088C
:10035000D30800082DE9FF5FD2E901A74FF000089C
:10036000916999461446DDF838B0464601988847A9
:10037000054659EA0B0005D009E0A169761C0198F1
:1003800088470546216A284688470028F5D1681C19
:1003900003D05FEACA7005D015E04FF0FF3004B01B
:1003A000BDE8F09F2068011D2160D0F800800AE0C0
:1003B0005FEACA7001D108F8015BA169761C7F1E53
:1003C000019888470546002F1ADD681C18D0B9F13E
:1003D000000F0DD0E81705EBD060421120F01F0090
:1003E00059F822102A1A012090400142E0D107E07A
:1003F000BBF1000FDCD1216A284688470028D7D0FE
:10040000E16901988847BBF1000F07D1002E05DD97
:100410005FEACA7002D1002188F80010A068B842D3
:1004200003DDBBF1000F03D017B16FF00100B6E799
:100430003046B4E72DE9FE4F804681EA0300C00F45
:100440000C46009021F0004123F00045B8EB02007B
:10045000A94105D24046214690461C460B4602461D
:1004600023F00040104347D0270DC7F30A00C3F321
:100470000A510290401A019040286BDAC3F313002E
:1004800040F4801B0098924620B10023D2EB030A6F
:1004900063EB0B0B01985946C0F140025046FFF741
:1004A000EAFE06460D4650465946019AFFF7F2FE0F
:1004B00010EB08006141002487EA115284EAE773D7
:1004C0001A4340D0009A62B3019A012A4FEA0752B8
:1004D00015DC001B61EB02014FF0004202EA0752FB
:1004E000CDE90042001C41F5801132462B4600F058
:1004F00054FA03B0BDE8F08F40462146F9E7001BEF
:1005000061EB0201001C41F5801300185B412018CB
:10051000A2F5001747EB030140EAD570B6196D410B
:1005200011E06D084FEA360645EAC0754FEA0752FA
:10053000001B61EB0201001C41F5801149084FEAE4
:1005400030000019514132462B4603B0BDE8F04F50
:1005500000F014BA0098012240000023D0EB020200
:1005600063EBE073009821464FEAE074B8EB0000BB
:1005700061EB0401E9E783F000435BE781F00041B0
:1005800058E72DE9FE4F81EA030404F0004421F00E
:10059000004100944FF0000B23F0004350EA0104A7
:1005A0005ED052EA03045BD0C3F30A54C1F30A5588
:1005B0002C44A4F2F3340194A0FB0254C1F31301C0
:1005C00041F48011C3F3130343F4801301FB02448D
:1005D00000FB034E840A970A44EA815447EA835792
:1005E000A4FB076802958D0A05FB07854FEA932C4B
:1005F00004FB0C542705029D4FEA065847EA1637BC
:10060000B5EB08056EEB070C870E920E47EA8117D3
:1006100042EA8312A7FB0201B6EB0B0164EB000474
:100620002B0D43EA0C335E1844EB1C50DA4651465E
:10063000E7FB0201C5F313044FEA0B3343EA1453FB
:100640004FEA0432019C43EA0603A4F10C0402942D
:10065000009CCDE900B400F0A0F903B0BDE8F08F34
:1006600000200146F9E72DE9F04D81EA030404F08A
:10067000004B21F0004514464FF0000A23F00041E2
:1006800050EA050220D054EA01021DD0C5F30A57F2
:100690000246C5F31303C1F31300C1F30A5640F435
:1006A000801543F48013A7EB0608101BD64608F20A
:1006B000FD3873EB050002D308F1010801E0921840
:1006C0005B41B8F1000F03DA00200146BDE8F08D70
:1006D00000204FF48011064684460EE0171B73EB92
:1006E000050705D3121B63EB050306434CEA010C17
:1006F00049084FEA300092185B4150EA0107EDD1FA
:1007000052EA030012D082EA040083EA050108439A
:1007100005D0101BAB4106D20122002306E00022C7
:100720004FF0004302E06FF0010253101AEB060095
:100730004CEB085110EB0A0041EB0B01BDE8F04D0A
:1007400000F01CB970B5C1F30A5201F00045002455
:10075000C1F3130140F2FF3341F480119A4201DAF0
:10076000002070BD40F233439A42A2F2334203DCD0
:10077000524200F07BF800E090402C43F1D0404220
:1007800070BD00F0004230F000400AD0C10D01F50C
:100790006071C0F3160042EA0151C20840071143DC
:1007A000704700200146704730B5041E71F1000407
:1007B00004DB4FF00044404264EB0101141E73F16E
:1007C000000405DB1C464FF00043524263EB040378
:1007D0008B4208BF824230BD30B5041E71F1000467
:1007E00004DB4FF00044404264EB0101141E73F13E
:1007F000000405DB1C464FF00043524263EB040348
:10080000994208BF904230BD01F0004330B421F05E
:10081000004150EA010206D00A0DA2F56072C1F350
:100820001301002A02DC30BC00207047440F44EA68
:10083000C104C100E01830BC00EBC25000F067B842
:1008400030B50B46014600202022012409E021FAA0
:1008500002F59D4205D303FA02F5491B04FA02F59D
:100860002844151EA2F10102F1DC30BD202A04DB70
:10087000203A21FA02F00021704721FA02F3D04019
:10088000C2F12002914008431946704702681144A2
:100890001378016018467047D160044951610449DA
:1008A000116200211161114600F06CB98D08000839
:1008B000790B0008426842B1016811F8013B23B18D
:1008C000521EC0E90012184670470121C160881EFF
:1008D000704742685AB1C368016843B983688B4264
:1008E00005D0491E521CC0E90012002070474FF08D
:1008F000FF3070477CB50023CDE9003305466846DC
:1009000000F0F3FA6946284604F020FB7CBD00297C
:10091000A8BF7047401C490008BF20F00100704785
:1009200010B4B0FA80FC00FA0CF050EA010404BFE5
:1009300010BC704749B1CCF1200421FA04F411FA3B
:100940000CF118BF012121430843A3EB0C01CB1D7F
:100950004FEA00614FEA102042BF002010BC7047F0
:1009600000EBC35010440029A4BF10BC7047401CCA
:10097000490008BF20F0010010BC704710B5141EDC
:1009800073F1000408DA401C41F1000192185B4148
:100990001A4301D120F0010010BD2DE9F04D92461F
:1009A0009B4611B1B1FA81F202E0B0FA80F2203236
:1009B0009046FFF760FC04460F4640EA0A0041EA11
:1009C0000B0153465A46084313D0114653EA01001F
:1009D00019D0C8F140025046FFF748FF05460E46C1
:1009E000504659464246FFF746FC084305D00120D1
:1009F00004E020463946BDE8F08D0020054346EA74
:100A0000E0762C4337430A986305E40AA0EB08001C
:100A10000022FD0A44EA47540A3002D5002001466C
:100A2000E9E7010510196941DDE908450019694147
:100A3000BDE8F04DA2E700002DE9F041054621F0A8
:100A400000400C46284309D0C4F30A5040F2334119
:100A5000884205DD28462146BDE8F0812846FBE7AF
:100A600040F2FE31884210DC0CDB4FEA043040EAF1
:100A7000155050EA053105D0104804F000410143FB
:100A80000020E9E700200146E6E7A0F233404642B5
:100A9000C6F1400228462146FFF7EDFB074688468F
:100AA000284621463246FFF7E1FE43463A46FFF725
:100AB00065FF3246BDE8F041FFF7DDBB0000F03FC7
:100AC000C1F30A52C1F3130140F2FF3341F4801124
:100AD0009A4202DA00200146704740F233439A42BC
:100AE000A2F2334202DC5242FFF7C0BEFFF7C3BBA3
:100AF00070B5044601F000450020054304D14FF0D5
:100B00000045644265EB010103F00045284305D12F
:100B100018464FF00043524263EB0003101B73EB87
:100B2000010002D24FF0004009E082EA040283EAA9
:100B300001034FF000501A4301D14FF0C0404FEA7B
:100B40002062EFF3008162F31F6181F3008870BDC2
:100B500000207047064C074D06E0E06840F00103B6
:100B600094E8070098471034AC42F6D3FFF738FBFF
:100B70006874000888740008C0B24FF4F05100F0A7
:100B8000E7B900002DE9F34F8BB04FF0000801F1F9
:100B90000C000C464FF0010B46460DF1080A01907F
:100BA0006269012101989047051E2DD0252D2CD07A
:100BB000216A8847C0B16269012101989047216A82
:100BC00088470028F7D1411E62690198904700E0EC
:100BD000761CA1690B988847216A88470028F7D1BD
:100BE000E1690B988847DBE7A1690B9888470746BE
:100BF000A84201D1761CD3E7E1690B9888477F1C96
:100C000002D1B8F1000F6FD047E1002762693D467D
:100C10003946019890472A2804D162690121019838
:100C200090470125DFF88892626901210198904779
:100C3000A0F130010A290AD24F45E5DC07EB870114
:100C400000EB4107303FDFD445F01005ECE7E90643
:100C500001D46FF000476C280AD04C2814D06828C3
:100C600015D06A280DD074281CD07A281AD01DE01F
:100C700062690121019890476C2802D045F0040573
:100C800014E045F002050DE045F020050AE0626938
:100C9000012101989047682802D045F0080505E039
:100CA00045F400656269012101989047C4E9015744
:100CB00065283DD019DC58287AD00CDC452837D07F
:100CC00004DC252826D0412831D131E046282FD018
:100CD00047282CD12CE05B2877D0612828D06328C6
:100CE0007CD0642823D15AE0D1E06F2848D008DCBA
:100CF00066281DD067281BD0692821D06E2816D100
:100D000027E0702845D0732868D0752847D0782808
:100D10000DD14DE0A1690B988847054625283FF481
:100D200069AFE1690B9888476D1C3FF46AAFB4E086
:100D300023466A466FF001000B9900F0B1F99FE07D
:100D400045F040006060A80723464FF0000236D40B
:100D50003EE0E8077FF447AF2068011D216000688E
:100D6000290501D506701BE7290701D5068017E77D
:100D7000A90703D5F117C0E9006111E706600FE785
:100D800045F040006060A80723464FF0080216D4E3
:100D90001EE040F60E0125EA0100606016E045F015
:100DA00040006060A80723464FF00A0207D40FE016
:100DB00045F040006060A80708D5234610226FF078
:100DC00001000B99AFF300805AE007E023461022A0
:100DD0006FF001000B99AFF3008051E04FF0000974
:100DE0004F464B46632802D05B2807D041E020796C
:100DF000C00601D40120A06001273AE06269012108
:100E0000019890475E2805D14FF001096269494673
:100E100001989047216939B900210A46534643F8A1
:100E20002120491C0829FADBB0B3216969B9C1172F
:100E300000EBD16253110AEB830122F01F02821AE8
:100E400001200B68904003430B6062690121019807
:100E500090475D28E8D1B9F1000F09D00020514634
:100E600051F82020D24341F82020401C0828F7DB0D
:100E700002AB224600976FF001000B99FFF76AFA68
:100E800000280CDA401C08D1BBF1000F05D04FF050
:100E9000FF300DB0BDE8F08FFFE74046F9E7E90706
:100EA00001D108F1010806444FF0000B78E600007C
:100EB000CCCCCC0C0FB4002300B589B00CA90091A8
:100EC0000B996FF00042CB601E4B06931E4B0793AD
:100ED0000423CDE901321D4A089202466B460020E8
:100EE00000F0DEF809B05DF814FB70B586B0064678
:100EF0004FF0FF300091CDE90101002015460C466E
:100F000004903246694604A8FFF7D4FF02460498CD
:100F1000211825B108B1084600E020462860049851
:100F200000280DD0002A02DD0098884208D0081B56
:100F30000094CDE901043246694604A8FFF7BAFFE0
:100F400006B070BDB5080008D3080008790B00088A
:100F50007F2801D9002208E0064A02EB5002C007B0
:100F6000127800D1120902F00F02012090400840CF
:100F700070470000287400082DE9FF4F087883B0FF
:100F80009946FF2805D0491C2D2804D000240020B4
:100F900008E000200BE00124F9E700EB800003EB00
:100FA0004000491C0B78FF2BF7D104B140420023CD
:100FB0000293147819461D462D2C01D02B2C04D1F8
:100FC000521C2D2C13D000240294AA461478FF2C16
:100FD0000FD00A25A3FB057801FB05814FF0000C1B
:100FE00003FB0C11521CE3194AEB0101EEE701244B
:100FF000EAE7814453EA010002D019F5C87F06DA16
:1010000003980021C0E9001107B0BDE8F08F00256A
:10101000AE4E2F46DFF8B882184600F05DF9CDE9F4
:101020000001B9F1000002DAC9F1000400E0044651
:101030000023A74A1AEB030B42EB045A12E0E00725
:1010400007D02A46334638464146FFF79AFA074604
:1010500088462A46334610461946FFF792FA054657
:101060000E466410002CEAD1DDE90001B9F1000F51
:101070005A46534606DAFFF7F6FA3A464346FFF772
:10108000F2FA05E0FFF77DFA3A464346FFF779FAB0
:10109000029A0AB181F00041039AC2E90001B3E764
:1010A0002DE9FF4F1F468DB0D7E901464FF0FF38BD
:1010B0002E2045464FF000090B90B9696D1C0E9823
:1010C0008847396A824688470028F6D1BAF1FF3F3F
:1010D0000AD024F4D064002E11DDBAF12B0F08D011
:1010E000BAF12D0F0BD102E0404611B08DE744F468
:1010F0008064B9696D1C0E9888478246761E6946E1
:10110000600501D52D2000E02B208DF8000001F1B5
:10111000010B0DF1200809E0B9696D1C0E98884794
:1011200082460F9844F40074761E0560002E02DD9E
:10113000BAF1300FF0D00B998A453ED144F08004CB
:1011400006E00F99681CA9F1010944F400740860D5
:10115000B9696D1C761E0E98884782463028F0D0FB
:101160002BE00B998A4505D1200603D444F0800476
:10117000761E18E0504603F0C9FF08B30DF11301C5
:10118000761E44F400748B4508D2AAF130000BF8A7
:10119000010B200607D5A9F1010003E0200602D4C7
:1011A00009F101008146A00502D50F99681C08606D
:1011B000B9696D1C0E9888478246002ED1DC53E039
:1011C000002E51DDBAF1650F02D0BAF1450F4BD1B7
:1011D000A00549D5B9696D1C24F44074761E0E989B
:1011E00088478246002E0CDD2B2804D0BAF12D0F43
:1011F00007D144F48074B9696D1C0E988847824603
:10120000761EE00501D52D2100E02B2108F8011BF9
:10121000CDF82C8021E00DF12901761E44F40074F4
:1012200088450CD2AAF1300010F0FF0088F80000C9
:1012300002D10B99884509D908F1010806E0E005BB
:1012400001D5244801E042F20F708146B9696D1C56
:101250000E98884782460F980560002E04DD5046A0
:1012600003F054FF0028D6D1F9690E988847FF2073
:101270008BF8000088F800000020069007904B468D
:101280006A4608A906A8FFF777FEA00502D46FF00A
:1012900001002AE714F0240F0AD0E00714D1DDE999
:1012A00006123868031D3B600068C0E900120BE0BD
:1012B000DDE90601FFF7A8FA0146E00704D1386826
:1012C000021D3A600068016028460EE700001440E5
:1012D0000000F03FF1D8FFFF0EB540F2334202921A
:1012E0000022CDE900221346FFF757FB03B000BDF3
:1012F00030B58C1810F8012B12F00F0301D110F843
:10130000013B120906D110F8012B03E010F8015B34
:1013100001F8015B5B1EF9D101E001F8013B521EAF
:10132000FBD1A142E6D3002030BD000070B501F032
:1013300041FC314D6868C0F3801000285AD04FF04E
:10134000A046B1682D480140091DB160A96801405F
:10135000091DA9609FED2A0A00F068FE286C294C3F
:101360000921A080304601F0C2FC208009212846D6
:1013700001F0BDFC60802288A16BDFED230A891A91
:1013800000EE101AB8EEC00A20EE200A84ED030A1F
:10139000E16BB1EE400A081A01EE100AB8EEC11A6C
:1013A00061EE200A9FED1A1AC4ED040A30EE600ABD
:1013B000DFED160A84ED050A94ED020AA08820EEFE
:1013C000200A00EE900AF8EE600A60EE810A9FEDB6
:1013D000111A00EE810A84ED020A01F0DDFA4020C4
:1013E00028600D484168FA2902D14FF0FF31416071
:1013F000491C416070BD000000010050C0FFFF7F2C
:10140000ACC5273830020020FFFFA43C6666663F6B
:10141000CDCCCC3DCDCC7A3C0000002010B503F003
:10142000EFFB02490020487010BD000000010020C1
:101430002DE9F0419C4D04462DED028B6878002883
:101440003AD0A86802F0F4FF052835D302F0F6FF81
:10145000A86095F801E0DFED958A0226944A002005
:10146000BEF1010F2CD001219FED928ADFF848C216
:10147000CB02924FBEF1020F5ED0BEF1030F7CD0C3
:10148000BEF1040F18D168603C680246B6EE000A4F
:1014900004EB8206521CD6ED000A9A4260EE800AE6
:1014A000C6ED000AF4DB044685486A6029700460D2
:1014B00084A001F053F86C70BDEC028BBDE8F081A4
:1014C0006E61C5ED038A286192ED000A0746FDEEC4
:1014D000C00AF8EEE00A30EE600A10EE100AFFF7DC
:1014E00050F99FED791B53EC112BFEF7A3FFFFF78B
:1014F0008BF900EE100A764910EE100ADFED750A3E
:10150000884204DD94ED000A30EE600A08E010EE37
:10151000100A7149884206D994ED000A30EE200A7B
:1015200084ED000AC8E7D4ED000A30EEC00A84ED6D
:10153000000A6F606E70BFE794ED000AD2ED000AFA
:101540009CED5E1A70EE600AF0EEE00AF4EEC10A5D
:10155000F1EE10FAB0D2D2ED080A9CED5F1AF0EE6F
:10156000E00AF4EEC10AF1EE10FAA5D26A69022A85
:1015700040D0002AA0D1286100E03DE0B5EEC00ACD
:10158000F1EE10FA1BDB6868984218DA00F09EFB57
:101590003868696800EB810080ED000A00F096FB76
:1015A00010EE100AFFF7EDF841EC100B4BA053ECD6
:1015B000102B696803F044FB6868401C686004F005
:1015C00069FCC5ED038A94ED000A474930EE080A2C
:1015D00084ED000A6E6194ED000A10EE100A884254
:1015E000A0DB686830EE480A401E686084ED000A9F
:1015F000032056E069615FE794ED000AD2ED000A2E
:101600009CED5E1A70EE600AF0EEE00AF4EEC10A9C
:10161000F1EE10FA86D2D2ED080A9CED5F1AF0EED8
:10162000E00AF4EEC10AF1EE10FA84D26A69022AE5
:10163000E0D0002ADFD1286110EE100AB0F17E5F01
:101640001FDC686800281CDB00F040FB3868696814
:1016500000EB8100D0ED000A30EE200A80ED000A98
:1016600000F034FB10EE100AFFF78BF841EC100B82
:101670001EA053EC102B696803F0E2FA6868401E64
:10168000686004F007FCC5ED038A94ED000A1A496E
:1016900030EE480A84ED000A6E6120688842AAD9BB
:1016A0000420687008E7000000010020000000002E
:1016B0005C0100200000003A90020020B0000020F1
:1016C0000C000020310000009A9999999999B93F2E
:1016D0006F12833A6F12833A6F1283BA46202564E1
:1016E0002025660A0D000000CDCC8C3F42202564E9
:1016F0002025660A0D000000CDCCCCBD10B5044CF1
:101700000020207003F07CFA0120607010BD000002
:101710000001002000F038FDFEE7000070B50A4C23
:1017200000252570606801F0DFF9656003F008FAB4
:10173000064C18B103F064FA257070BD01202070CA
:101740000348056070BD0000B400002000010020C7
:101750000C0000202DE9F05F2DED068BFE4CA268F9
:1017600000EE102AB8EE400ADFEDFC0A2146002602
:1017700020EE208A91F800C010274FF0020B4FF0A6
:101780000108DFEDF75A9FEDF74A2C31F6EE004ADB
:101790004FF08049F2EE048A9FEDF35A9FEDF3AAD1
:1017A000DFEDF39AF34B93ED5B2AD3ED043A93ED1F
:1017B0005C0A234622EE233AD3ED061AF1EE402AC4
:1017C0009FEDED1A2433ED4DD3ED000ABCF1110F5E
:1017D00013D2DFE80CF01209133C45557D9CA5BAE5
:1017E000CDFEF1F0EFEEED00DB48A660243080ED99
:1017F000001A00F06FFD84F800B02FE2D0ED051A5A
:10180000D54972EE611A24319FEDDD2A41EE820A3C
:10181000C1ED000AF4EEC00AF1EE10FA04DCF4EEB9
:10182000E20AF1EE10FA04D200F048FE84F80180DA
:10183000BCE090ED020AF0EE651A03F0F3FFD14927
:10184000A0688842D9D300F039FE03203EE080EE44
:10185000820AC84820EE040A80ED040A042035E01C
:10186000BD48A66024302661C0ED002A80ED010A43
:1018700081ED001A81ED011A00F02CFD052025E014
:10188000032ABAD3A660227CD0ED050A02F0010239
:1018900001EB8201F0EE651A91ED000A30EE200AAC
:1018A00081ED000AAC4990ED020A243101EB82017E
:1018B000D1ED000A03F0B6FF206942F21071401C1E
:1018C0002061884299DB00F0F9FD06202070C5E117
:1018D000D1EC020A30EEC11ADFEDAB1AA548C1EE19
:1018E000210A80EE201A21EE040A80ED050A83EE1B
:1018F000801AD0ED620AF8EEE00A60EE800AC0EDD0
:10190000080A21EE200A80ED090A0720DEE7924846
:10191000A660243080ED003A00F0DCFC0820D5E71A
:1019200020EE880AF0EE411A60EE240A90ED020AD9
:1019300003F078FF18EE100A4845C8DB95ED000A61
:10194000092084ED070AA660C0E768EE281A90ED2A
:10195000020A03F067FF18EE100A8C498842B6DBD2
:1019600095ED000A84ED080A00F0A8FD0A20ADE715
:10197000D4ED088A94ED078AB0EE001A38EEC80A52
:10198000F0EEC00A81EE200A10EE100AFEF7F9FE12
:1019900041EC100B03F03CFA51EC100BFEF7D2FEB9
:1019A00074491428C86009DD84F801B0277055E136
:1019B0004DE1F2E07CE02BE019E00AE0F4EEC88AA9
:1019C000F1EE10FA01DD0E6601E0C1F860800B2037
:1019D0007CE72661604884ED051A84ED061A243000
:1019E000A66080ED003A00F075FC0C206EE720EE5A
:1019F000880A60EE240A90ED020A03F013FF18EE45
:101A0000100A4845D3DBA660E868E0600D205DE77A
:101A100071EE851AB0EE419AC4ED061A90ED020AF5
:101A200003F000FFD4ED050AB4EEE08AF1EE10FAFF
:101A300029DD94ED060A4F4920EE0A1A91ED030ABA
:101A4000B8EEC00ADFED521AEA68636820EE210A98
:101A5000C1EE001ABDEEE10A10EE100A30EEA90A3E
:101A6000101AC20FC2EBC2320244206943F8202090
:101A700084ED050AC9684FF0FF3202EBC1118142C3
:101A800001DB401C20613B4890ED030AB8EEC00A20
:101A9000DFED3F0A20EE200AC0EE280AF4EEC80A65
:101AA000F1EE10FA76D884ED059A0E20A6600DE7C7
:101AB00071EEC51AC4ED061A90ED020A03F0B2FEEB
:101AC000D4ED050AB4EEE08AF1EE10FA2ADD2069C1
:101AD000002827DD94ED060A2649DFED2D1A20EEB9
:101AE0000A1A91ED030AEA68B8EEC00A20EE210A4C
:101AF000C1EE001ABDEEE10A10EE101A30EEA90A8E
:101B0000511ACA0FC2EBC2320A44616851F8203040
:101B10001A4402EBD272521041F82020401E20617C
:101B200084ED050A1348DFED1A0A90ED030AB8EEBA
:101B3000C00A20EE200AC0EE280AF4EEC80AF1EE30
:101B400010FA27D8E868E168084400EBD07040102C
:101B5000E06000F0B3FC1EE0B4000020ACC5273804
:101B6000920A8640ABAA2A3F17B7D13900FEFF463A
:101B70007CD9A03B90020020000000005C01002006
:101B800017B75139F8240100CCCC4C3E7CD9A03F8A
:101B9000DB0FC94062E00F2098E63448002211466E
:101BA0006368C56804E000BF53F82160491C3244F3
:101BB000B1EBC51FF8DBE90192FBF1F14166E16889
:101BC00047F6FF72C90191FBF2F1802500228E4693
:101BD000E16069429A4601EBD17905EBD57C00279B
:101BE0004FEA690319E0C66806FB02F1C9014FEA32
:101BF000E17801EB586113EBE11102D501EBC6115D
:101C000007E04FF0FF3808EBC618884501DA764246
:101C1000F4E75AF821105B1C0F44B3EB6C0FE2DBC6
:101C200097FBF5F30EEB02017F2900DD8039B0F858
:101C3000646000EB41019B1B521CA1F86830802AB4
:101C4000CDDBC0F868B10AA000F088FC06E061783E
:101C500008A002F0F5FFFFF761FD2670A068401CA8
:101C6000A060BDEC068BBDE8F09F00009002002054
:101C70003100000043616C6962204572726F72200E
:101C800025640A0D0000000070B50C4D0024286882
:101C900020B10B490C7000F027FF2C60094D6868DB
:101CA00020B94FF4205000F039FF68600648046600
:101CB000C0F868410120287070BD0000B00000200D
:101CC00000010020B400002090020020014890EDA7
:101CD000020A70477000002006484168042908D1B4
:101CE0008068022805D10448044980ED000A0120DB
:101CF00008707047900200208402002070000020CD
:101D000016499FED170A194AD1ED000A1649C0ED90
:101D1000000A80ED010A80ED020A1248C0ED030AB4
:101D200080ED040A80ED050A80ED080A91ED110AA4
:101D300010EE101A914201DB9FED0D0AF0EE000A41
:101D400020EE200AF5EE000A80ED070A20EE000AD8
:101D500020EE200A80ED060A704700005C0100209A
:101D60000000000070000020900200200050C345D9
:101D70000050C3451C214FF4405000F041B910B54C
:101D80004FF48054204600F03CF840F00401204617
:101D9000BDE8104000F034B910B54FF4805420462F
:101DA00000F02FF820F004012046BDE8104000F0BC
:101DB00027B970B500F01EF805460A2002F018FB9E
:101DC00000F01BF804460A2002F012FBC5F30A01DA
:101DD000C4F30A0000EAC12070BD00F029B8000079
:101DE000034910200969884300D001207047000092
:101DF00000080048002000F004B84FF40060AFF382
:101E0000008038B54BF6EF61ADF800104FF090440C
:101E1000102140F40040A1624FF47A72694604F048
:101E20008DFB1020A061BDF80000C0F30A0038BD92
:101E300010B586B0002000F077F8142002F0D8FA30
:101E4000012000F071F8FFF795FF642002F0D0FA4E
:101E500000240120CDE90140CDE90340034622469C
:101E600021462046009400F089F8642002F0C0FA70
:101E70000E220D21032000F09FF8642002F0B8FA32
:101E80000E230C220321012000F09FF8642002F0B1
:101E9000AFFA032001940294CDE9034003460022E7
:101EA00001211046009400F04BF8642002F0A0FAE3
:101EB0000F200122009003231146002000F090F82B
:101EC000642002F095FA4FF48050FFF79AFF641EE9
:101ED00024281FD14FF4C050FFF793FFA0F54071A5
:101EE000DE3917D14FF40050FFF78BFFA0F5E0610A
:101EF000CE390FD14FF44050FFF783FFA0F50071AA
:101F0000C33907D14FF42050FFF77BFFA0F5807154
:101F10007F3902D0204606B010BD024800F0FEFA1C
:101F20000020F8E73002002000284FF090414FF0E9
:101F3000080001D0886100E08862022002F04DBAFA
:101F4000F0B48002DDE9044540EA412040EA022085
:101F5000DDE9066740EA831040EA441040EA0510D4
:101F600040EAC60040EA8700DDF820C0F0BC40EA45
:101F70000C0081B24FF4405000F042B8F0B440027F
:101F8000DDE9044540EA012040EAC210DDE90667C8
:101F900040EA431040EA041040EAC50040EA8600E7
:101FA00040EA4700DDF820C0F0BC40EA0C0081B2F6
:101FB0004FF4805000F024B8000240EA01101043B2
:101FC00081B24FF4C05000F01BB8800240EA0120FB
:101FD00040EA0210184381B24FF4005000F010B8EC
:101FE00030B4800240EA012040EA8210029C40EABC
:101FF0000310204381B230BC4FF42050AFF3008077
:1020000038B50246C1F30A004BF6EF611043ADF854
:1020100000104FF090441021A1624FF47A7269468B
:1020200004F08CFA1020A06138BD704730B504F080
:102030008DFB410000EE901A4B4CF8EEE00A9FED4C
:102040004B1A60EE810ADFED4A1A4A4DE06080EEDD
:10205000A11A84ED061A696E411A00EE901AB8EEC4
:10206000E02AD5ED030AF8EEE00A22EE202AC2EEBD
:10207000210AFDEEE01AF8EEE11A70EEE10ADFED5A
:102080003E1A60EEA10AC4ED070AF5EEC00AF1EEB1
:1020900010FA01D270EEA10AC4ED070A6169401A74
:1020A000B0F5804F02DBA068401E04E010F5804FC1
:1020B00002DCA068401CA06081EE212AD4ED020A57
:1020C0005FF00100F8EEE00A32EE202A84ED002AEB
:1020D000D4ED010A84ED012A72EE600A80EE801AC6
:1020E000F0EE410AC0F1270104EB810191ED0D2AC8
:1020F000C0F1280104EB810172EE200A401C81ED41
:102100000D2A2828EEDB84ED0D1A9FED1C1A80EEB7
:10211000812A84ED082A04F039FB9FED1A2AD4EDB8
:10212000080A9FED171AD4ED0B2A62EE200A22EE60
:10213000000A41EE220AC4ED080A94ED0C2A60EE72
:10214000A11A01EE020A84ED0A0A95ED031AB8EE0F
:10215000C11A21EE811A84ED091AE0686061C4EDAC
:102160000B0A84ED0C0A30BD5C010020DB0F4940F6
:1021700000FEFF4690020020DB0FC9400000204215
:10218000A4707D3F00D7233C72B600F097F9FEE7BC
:102190002DE9F0410F46064603F0DEFE002856D139
:1021A0002C4C2168890521680DD521F4007121602E
:1021B0002168490505D5216821F480612160032546
:1021C0000AE0012508E0490505D5216821F4806170
:1021D0002160022500E00025374416E06069F1B275
:1021E00020F4FC7040EAC1006061606940F00200C8
:1021F0006061606940F48030606103F0ADFE616948
:1022000021F4FD71616110B9761CB742E6D8012D49
:1022100001D0032D0BD1216841F4006121602168B8
:1022200021F400612160216841F400712160022DD8
:1022300001D0032D0BD1216841F480512160216828
:1022400021F480512160216841F480612160BDE862
:10225000F08100000020024005494FF0FF304A693C
:1022600042F000424A614969002900DA00207047C3
:10227000002002402DE9F04116461F46054603F0B6
:102280006BFE00280ED1084C606940F001006061CF
:102290002E60BFF36F8F6F6003F05EFE616921F007
:1022A00001016161BDE8F081002002400649002083
:1022B0004A69002A07DA054A8A60054A8A6049693C
:1022C000002900DA401E70470020024023016745C4
:1022D000AB89EFCD10B5EFF3108472B601F0CEFFED
:1022E000FFF75AFD02490120087084F3108810BDE1
:1022F0001800002030B504462DED068BF0EE61AAE3
:1023000004F10C0289B0F0EE411AF0EE608AB0EEF2
:10231000408A92EC030A01A9684603F06DFB9DEC2C
:10232000020A05A904A8B0EE611A03F089FFD4EDF2
:10233000090A9FED590A9DED041A60EE801ADFED3F
:10234000570A574D78EE419A41EE201AC4ED091A0A
:10235000D4ED0A1A61EE801A9DED050A40EE201AAE
:1023600038EEC0AAC4ED0A1AD5ED080A94ED0C0A9D
:1023700094ED0D9A00EEA90A00EE8A9AD4ED020AB5
:102380009FED481AF7EE001A20EE811AC1EE810A7D
:1023900060EE808A20EE898A28EEA80A08EE080AF4
:1023A00002F0A6FDF0EE400A9FED3F1A81EE200AF2
:1023B00010EE100AB0F17E5F12DA68EE808A28EE25
:1023C000008AD4ED0C0A9FED390A60EE800AC4ED54
:1023D0000C0AD4ED0D0A20EE800A84ED0D0A15E0FA
:1023E00095ED091A9FED320AD4ED0C0A21EE001A80
:1023F00049EE810AC4ED0C0A95ED091AD4ED0D0AD7
:1024000021EE000A4AEE000AC4ED0D0A94ED090A15
:10241000D4ED0A0A03A920EE280A02A8B0EE6A1A2F
:1024200008EE200AF0EE480A84ED0B0AB0EE680AC6
:1024300003F00CFE08AA07A906A8DDED030A9DED2E
:10244000020A04F0ADF8DDED060A9FED1A0A1A49FA
:1024500060EE800AFCEEE00A10EE900A80B208609E
:10246000DDED070A091F60EE800AFCEEE00A10EEBF
:10247000900A80B20860DDED080A091F20EE800A8C
:10248000BCEEC00A10EE100A80B2086009B0B0EECF
:10249000490ABDEC068B30BD3333733FCDCC4C3D88
:1024A00090020020ABAA2A3FAC5C313FA4707D3F74
:1024B000ACC52738008054453C2C014010B5EFF3E3
:1024C000108472B6FFF75BFC01F0C8FE02490020E1
:1024D000087084F3108810BD180000200C4A40F2E8
:1024E000A4611160121F1160121F11600A499FED53
:1024F000090A81ED060A81ED070A81ED080A80EDDF
:10250000090A80ED0A0A80ED0C0A80ED0D0A704779
:102510003C2C014000000000300200202DE9F04179
:10252000002704463E464FF47A783D46642001F089
:102530005FFF20886D1C0744608845450644F5DB35
:1025400097FBF8F0A06396FBF8F0E063BDE8F0813C
:1025500001480078704700002C0000202DE9F14F61
:10256000A4A10098FDF7CCFE0027A34D00287DD044
:10257000A2A10098FDF7C4FEA14C4FF00108A5F1FF
:102580001006002873D09FA10098FDF7B9FE4FF008
:10259000020900286CD09CA10098FDF7B1FE4FF015
:1025A000030B00287DD099A10098FDF7A9FE4FF0FC
:1025B000040A002876D096A10098FDF7A1FE002815
:1025C00071D094A10098FDF79BFE00286CD092A1D9
:1025D0000098FDF795FE002867D090A10098FDF7C0
:1025E0008FFE00287AD08EA10098FDF789FE002882
:1025F00075D08CA10098FDF783FE002870D08AA1C9
:102600000098FDF77DFE00286BD088A10098FDF7AB
:1026100077FE002873D086A10098FDF771FE002890
:102620006ED0844B84A1A3F10A028548FDF776FEA3
:102630000021804802F07AFC7E4886ED030A81A1E1
:102640000A38FDF75DFE804D002873D079487FA1E0
:102650000A38FDF755FE00286DD076487CA10A386F
:10266000FDF74EFE002867D07AA102E03AE03BE099
:1026700047E070480A38FDF743FE00286FD06D48E8
:1026800076A10A38FDF73CFE002869D0694875A19B
:102690000A38FDF735FE002877D0664873A10A385E
:1026A00004E031E040E048E04BE04EE0FDF728FE7A
:1026B00000286BD05F486FA10A38FDF721FE002883
:1026C00071D05C486DA10A38FDF71AFE002803D1CD
:1026D00096ED030A84ED660ABDE8F88F38E03AE02B
:1026E0003FE042E06F7008E030680028F4D1D4F891
:1026F00068010028F0D085F80180AF70ECE738E081
:102700003EE085F80190F8E730680028E4D1D4F87D
:1027100068010028E0D060680028DDD1A0680228A8
:10272000DAD185F801B0E8E730680028D4D185F81F
:1027300001A0E2E732E037E03BE052A0C4F80890A5
:102740001AE058A0C4F8088016E05EA0A76013E065
:1027500064A0676010E06BA0C4F804800CE030E077
:1027600034E070A0C4F8049006E076A0C4F804B089
:1027700002E07CA0C4F804A0BDE8F84F02F060BA03
:10278000D4F87401C0F1010101E024E028E0C4F8AC
:102790007411BDE8F84F7BA002F052BA96ED030A1F
:1027A00085ED020A98E720E096ED030A85ED010A1F
:1027B00092E796ED030A85ED000ABDE8F84FFFF7B2
:1027C0008BBA96ED030A84ED670A85E796ED030A56
:1027D00084ED680A80E796ED030A84ED690A7BE7D9
:1027E00096ED030A84ED640A76E796ED030A84ED1C
:1027F000650A71E7310000002C0000203200000063
:10280000900200203300000034000000350000007A
:1028100070000000760000007400000061000000FD
:102820007300000064000000660000006700000004
:102830007A0000007A020020257320257300000032
:102840004801002074696E008402002076696E00E1
:1028500070696E00706F737000000000706F7369B4
:1028600000000000706F73640000000076656C70FB
:102870000000000076656C690000000076656C64FD
:102880000000000073657420636F6E74726F6C20BB
:102890006D6F646520746F20504F534954494F4EFB
:1028A0000D0A000073657420636F6E74726F6C2084
:1028B0006D6F646520746F2056454C4F43495459E1
:1028C0000D0A000073657420636F6E74726F6C2064
:1028D0006D6F646520746F20544F525155450D0A39
:1028E0000000000073657420696E707574206D6F50
:1028F000646520746F20504153535448524F5547DC
:10290000480D0A0073657420696E707574206D6FD0
:10291000646520746F20544F525155455F52414DAC
:10292000500D0A0073657420696E707574206D6FA8
:10293000646520746F2056454C5F52414D500D0A1E
:102940000000000073657420696E707574206D6FEF
:10295000646520746F20504F535F46494C54455274
:102960000D0A000073657420696E707574206D6FB8
:10297000646520746F20545241505F5452414A0D97
:102980000A000000616E7469636F6767696E672093
:1029900025640D0A000000002DE9F041454D2DEDA4
:1029A000028B68782978884207D003F07DFAA878EE
:1029B00018B16878287003F0F7F93E4C28789FED3D
:1029C0003E8A3E4E3E4FDFF8FC80103C05283CD24C
:1029D000DFE800F06C0329032D003B4803F02EF8DC
:1029E00096ED071AF0EE400A96ED090A9FED372A98
:1029F000F0EE411A324840EE021AB0EE480AFFF7F4
:102A000079FC84ED020A96ED080AD8ED170AB0EEBB
:102A1000C00AB4EEE00AF1EE10FA16DD206840F0CC
:102A20008050206011E02648FEF794FE0DE0284813
:102A300003F078FC2648D6ED071A97ED020A90EDD0
:102A4000031AF0EE480A02F0EDFE97ED020AD8ED07
:102A5000160AB4EEE00AF1EE10FA03DB216841F049
:102A600080412160D8ED150AB4EEE00AF1EE10FACB
:102A700003D8206840F000502060FFF7B1F920B182
:102A8000FFF797F9216808432060206820B1FFF71D
:102A900015FD00206870A87020686168884205D024
:102AA00021680CA002F0CCF820686060BDEC028BBD
:102AB000BDE8F0812C000020000000005C01002037
:102AC00030020020900200208402002082A87B387F
:102AD000603400204572726F7220436F64653A2043
:102AE00025580D0A0000000030B4002811D00A4A11
:102AF00050F8041C0838D36819420AD00468002C26
:102B000007D19943416053681944516030BC03F0C8
:102B1000E3BB30BC70470000E80000202DE9F04125
:102B2000214E05460027306808B903F0AFFBF06876
:102B3000054236D1ADB30835680704D005F007006B
:102B4000C0F10800054465B37068854229D816486D
:102B5000103001460C6801E020460C466168A9422D
:102B600002D221680029F7D131688C4219D0076858
:102B70002168016060680837411B102904D9601979
:102B80004160656003F0A8FB61687068401A70607E
:102B9000B268904200D2B060F06801430020C4E9FE
:102BA00000013846BDE8F081E8000020FFF7ECFAAC
:102BB000FEE7000010B5224C606801F039FC0028E7
:102BC0003CD001F03BFC6060FFF7C2FC40F2DC51FE
:102BD0004FF6FF7240B14FF4967301280FD00228D0
:102BE00017D0042827D10AE0208810B1642802D029
:102BF0001EE0012000E0002000F024F81BE0208807
:102C00000028F6D06428F6D0C828F2D09842F2D036
:102C10000EE020880028ECD06428ECD0C828E8D04A
:102C20009842E8D0B0F5C87FE3D0B0F5FA7FE2D0A3
:102C3000884200D322802088401C208010BD0000E4
:102C4000A8000020044900284FF0400001D088610E
:102C500070478862704700000004004830B54FF0AC
:102C6000A0444B68A46800220E4D04F00104AD6836
:102C700005F001052C4302D00122104630BD0A4D5B
:102C800053B10C681C43D1E902310B4381681C43EA
:102C900029400C438460F0E7836809682B400B43AC
:102CA0008360EAE700010050E030C0FF10B54B68D8
:102CB0008468002214F0010F02D00122104610BDDA
:102CC00033B1D1E902342343C46824F0047403E02F
:102CD000C368CC6823F004732343C360D1E9003197
:102CE0000B43C16C6FF308010B43C364E6E70C228E
:102CF00002EA91110844D0F8800080B2704710B504
:102D0000C36C01F01F011F248C40C2F38462A343F3
:102D10008A401343C36410BD30B58368002213F0AA
:102D2000010F02D00122104630BDD1E90034234307
:102D30008968C4684CF21805AC4321430B43C36057
:102D4000F1E7000070B54C688368002213F0010FB2
:102D500002D00122104670BD002C0E4B0C6807D02B
:102D60008D682C43D1E9035635432C434D6904E06B
:102D7000CD682C43D1E9045635432C43C5681D402A
:102D80002C43C4604968036B23F00F030B430363B8
:102D9000E0E700001CC0F0FF0C2303EA911310B51C
:102DA0001844036B01F01F011F248C40C2F384629E
:102DB000A3438A401343036310BD042303EAD153A2
:102DC00010B518444369C1F3045107248C40A34350
:102DD0008A401343436110BD10B550F8B03FC1F3B2
:102DE0001204A34302F01804024AE2400A401343CB
:102DF000036010BDFFFF0700D0F8C0206FF30D0285
:102E00000A43C0F8C020026922F4803201B10121D6
:102E100042EA0141016170478268044B01F0804140
:102E20001A400A4342F0004181607047C0FFFF3FF3
:102E3000044908B5CA6C0243CA64C96C01400091D8
:102E400008BD000000100240044908B5CA6C0243E6
:102E5000CA64C96C0140009108BD00000010024026
:102E6000044908B5CA6C0243CA64C96C01400091A8
:102E700008BD000000100240F0B50A680F2692FA63
:102E8000A2F2B2FA82F303248AE001259D402A408F
:102E90007ED04D68012D01D0022D20D18D6887682C
:102EA00092FAA2FCBCFA8CFC4FEA4C0E04FA0EFC1F
:102EB00027EA0C0792FAA2FCBCFA8CFC4FEA4C0CF5
:102EC00005FA0CF52F438760CF680D68D0F804C071
:102ED0002CEA050C7D434CEA050CC0F804C00F69D0
:102EE000D0F80CC092FAA2F5B5FA85F54FEA450E76
:102EF00004FA0EF52CEA050C92FAA2F5B5FA85F55E
:102F00006D00AF404CEA070CC0F80CC04D68022DB4
:102F10002FD1FF2A15D8D1F814C0056A92FAA2F76A
:102F2000B7FA87F7BF0006FA07F7BD4392FAA2F790
:102F3000B7FA87F7BF000CFA07FC45EA0C050562F3
:102F400017E0D1F814E0476A150A95FAA5FCBCFA17
:102F50008CFC4FEA8C0C06FA0CFC95FAA5F5B5FA38
:102F600085F5AD0027EA0C070EFA05FE47EA0E07C5
:102F700047624D68076892FAA2FCBCFA8CFC4FEAE3
:102F80004C0C04FA0CFE27EA0E0792FAA2F200E0BB
:102F900005E0B2FA82F2520095402F4307605B1CB5
:102FA0000A6832FA03F57FF470AF0020F0BD4FF4E9
:102FB0007A71B0FBF1F14FF0E020491E4161002130
:102FC000816105210161704710B50024C02823D11B
:102FD0001248D0F8880000F0C00040F440004038AB
:102FE000B0F540000AD040280CD080280FD001F066
:102FF00095F901F063F901F071F901E001F08EF942
:10300000044609E000F068F830B1054C04E000F037
:103010006BF808B14FF40044204610BD0010024088
:103020000024F40070B5002429492A4D4FF40046CD
:10303000032804D00C281AD030282FD040E0D1F833
:1030400088006FF4403100F0030040F44030401835
:103050000AD0012836D002282ED001F05FF901F005
:103060002DF901F04BF917E001F058F914E0D1F80F
:10307000880000F00C0040F44020001FB0F5402014
:10308000F2D004281ED0082816D000BF01F046F95F
:1030900001F014F901F022F9044611E0D1F888009A
:1030A00000F0300040F440101038B0F54010DBD094
:1030B000102807D02028E9D100F016F800B13446D6
:1030C000204670BD00F008F80028F9D02C46F7E73C
:1030D000001002400024F40002480068C0F3802081
:1030E00070470000001002400248D0F89000C0F382
:1030F000400070470010024003498A6822F0F00245
:1031000002438A60704700000010024010B5036857
:103110000122C3F3801373BBD1E900231A43D1E921
:10312000033423431A434B691A438B691A43CB690F
:103130001A430B6A1A4303684FF6BF74A3431A433A
:103140000260426840F604739A434B6942EA1342B4
:103150008B681A4342608A68B2F5006F03D24268F6
:1031600042F4805242600A6AB2F5005F02D1898C53
:1031700089B201610022C16921F40061C161104678
:1031800010BD0000014908607047000010000020D9
:1031900030B50A7B8B681F4C1A434B6822F480625F
:1031A0001A430B6822F400621A43CB8922F480523E
:1031B0001A430B6922F400521A43CB6A22F480426C
:1031C0001A4322F400421A43114B984201D0A04204
:1031D00007D14D6922F470222A438D6922F0805272
:1031E0002A43984201D0A0420FD14B6A22F47002C8
:1031F0001A43CB6922F080721A430B6A22F00072E4
:103200001A43896A22F000520A434264002030BD0A
:10321000002C0140003401402DE9F0430268224BAC
:10322000224D234E234C4FF08049984207D0484509
:1032300005D0A84203D0B04201D0A04203D14F68CC
:1032400022F070023A431C4FDFF870C0DFF8708044
:1032500098420DD048450BD0A84209D0B04207D0C3
:10326000A04205D0B84203D0604501D0404503D10B
:10327000CD6822F440722A4302608A68C2620A88DA
:103280008262984207D0A04205D0B84203D0604580
:1032900001D0404501D109690163416941F0010153
:1032A00041610020BDE8F083002C01400004004093
:1032B000000800400034014000400140004401404B
:1032C00000480140012922D0042922D0102922D00F
:1032D000402922D0B1F5807F21D0B1F5806F20D078
:1032E000B1F5805F1FD0B1F5804F1ED0B1F5803FA2
:1032F0001DD009210F4A1830525C104402680D4B52
:103300000A335B5C042199408A43026070470021C4
:10331000F0E70121EEE70221ECE70321EAE70421CF
:10332000E8E70521E6E70621E4E70721E2E70821CF
:10333000E0E70000C8670008012922D0042922D054
:10334000102922D0402922D0B1F5807F21D0B1F5BB
:10335000806F20D0B1F5805F1FD0B1F5804F1ED0B7
:10336000B1F5803F1DD009210F4A1830525C10443E
:1033700002680D4B0A335B5C082199400A430260E6
:1033800070470021F0E70121EEE70221ECE703217D
:10339000EAE70421E8E70521E6E70621E4E707215B
:1033A000E2E70821E0E70000C86700082DE9F047E0
:1033B0008C460121BCF5805F25D009DCBCF1010FF2
:1033C00014D0BCF1100F15D0BCF5807F16D116E0DB
:1033D000424B434C434D444E444F4FF00009BCF523
:1033E000803F14D0BCF5801F74D141E0114600F03D
:1033F000FBFD02E0114600F043FE01466AE0114683
:1034000000F08EFEF9E7114600F0D8FEF5E7016AFC
:1034100021F480310162D0F820C0016DDFF8D08046
:103420002CF4003C01EA0801D2F80080984241EAFD
:103430000801B2F810804CEA084CB2F804802CF471
:10344000803C4CEA084C07D0A04205D0A84203D0EB
:10345000B04201D0B84206D14368946923F4803366
:1034600043EA042343600165D168826C81642EE0E5
:10347000016A21F480110162D0F820C0016DDFF8EB
:1034800074802CF4001C01EA0801D2F800809842F4
:1034900041EA0821B2F810804CEA085CB2F80480D6
:1034A0002CF4801C4CEA085C07D0A04205D0A8424E
:1034B00003D0B04201D0B84206D14368946923F4E6
:1034C000802343EA842343600165D168C164C0F866
:1034D00020C049460846BDE8F0870000002C0140A6
:1034E00000340140004001400044014000480140D8
:1034F0008FFFFEFFFF8FFFFE2DE9F04104460068BD
:103500000D46012610F0010F4CD12969A868EA691F
:10351000084369691143084321682B4A1140084355
:103520002060E868616821F4405101436160A86946
:10353000A16821F440710143A1602448844201D173
:10354000032008E02248844201D10C2003E02148F6
:10355000844203D13020FFF765FD05E01E48844218
:1035600019D1C020FFF730FDA8B1696899B12A6868
:103570000026EB690B2A0ED8184FD2B2B3F5004FD4
:1035800057F82220B0FBF2F00FD000EB5100B0FB57
:10359000F1F080B2E0602888E16A80B221F00F018A
:1035A0000143E1623046BDE8F081400000EB51008C
:1035B000B0FBF1F081B24FF6F07201EA0200C1F304
:1035C00042010843E6E70000F369FFEF00380140DD
:1035D0000044004000480040004C0040DC67000808
:1035E00070B598B0002414941594182106A8169468
:1035F000FCF77BFE11941294139410940C940D9488
:103600000E94182168460F94FCF76FFE4FF400509B
:10361000FFF71AFC0420FFF717FC0220FFF714FC49
:1036200004200325CDE90005544E69460494304634
:10363000FFF722FC0820CDE90005694604943046D6
:10364000FFF71AFC0220CDE90005694604944C48B6
:10365000FFF712FC4B4800680022C0F30220012152
:1036600000F0A8FC0146122001F007FB122001F037
:10367000F7FA4FF0A0451494159414A9284616940F
:10368000FFF74AFB0120CDE90640089409940A940B
:1036900006A928460B94FFF755FB00212846FFF7A3
:1036A000ABFB286940F20341884328614FF4403066
:1036B000CDE9100410A93448FFF7D0FA8020CDE9F5
:1036C0000C040E940CA928460F94FFF7EFFAE86853
:1036D0002E49084040F00040E860E86C20F4C070DB
:1036E00040F08000E864A86829490840A860A868FC
:1036F0002849084040F08050A860274827490068C2
:10370000B0FBF1F000EB800080000A21B0FBF1F08B
:1037100000E0401E0028FCD1214C0621224628460C
:10372000FFF73AFB012221462846FFF746FB7F229E
:1037300021462846FFF750FB1A4C0C21224628460A
:10374000FFF72AFB012221462846FFF736FB7F229E
:1037500021462846FFF740FB134C09212246284604
:10376000FFF7CDFA042221462846FFF726FB7F22E9
:1037700021462846FFF730FB18B070BD000800480E
:10378000000400480CED00E000030050FFFFDF7F65
:10379000C0FFFF5FC0FFFF7F10000020400D03004F
:1037A000000180210002B0250010603270B594B095
:1037B000002510951195182106A81295FCF795FD86
:1037C0000C950D950E95182168460F95FCF78DFD0B
:1037D0004FF40050FFF738FB0420FFF735FB0220C1
:1037E000FFF732FB20200324CDE90004694604954D
:1037F0005648FFF741FB0420CDE9000469460495D3
:103800005348FFF739FB534800680022C0F30220F9
:10381000012100F0CFFB0146122001F02EFA122008
:1038200001F01EFA4C4C1095119510A920461295E6
:10383000FFF772FA06950795089509950A9506A966
:1038400020460B95FFF77EFA00212046FFF7D4FAB9
:10385000206940F20341884320618020CDE90C05B6
:103860000E950CA920460F95FFF720FAE0683B491A
:10387000084040F00040E060E06C20F4C07040F090
:103880008000E064A06836490840A060A068354E1A
:10389000304040F08050A060334834490068B0FBAD
:1038A000F1F000EB800080000A21B0FBF1F000E0B5
:1038B000401E0028FCD12E4D06212A462046FFF747
:1038C0006BFA012229462046FFF777FA7F22294624
:1038D0002046FFF781FA274D09212A462046FFF7A7
:1038E0000EFA042229462046FFF767FA7F2229466E
:1038F0002046FFF771FA0A2000F06FFD4FF0A04557
:103900007F212846FFF788FAA868C00FFCD17F21E5
:103910002046FFF781FAA068C00FFCD1A8683040AC
:10392000401CA860A0683040401CA060606840F067
:1039300040006060A868304040F00800A860A068BF
:10394000304040F00800A06014B070BD000800488E
:10395000000400480CED00E000010050FFFFDF7F95
:10396000C0FFFF5FC0FFFF7F10000020400D03007D
:103970000008302E001060322DE9F04387B0182186
:103980006846FCF7B2FC2020FFF752FA0420FFF74C
:103990004FFA0120FFF74CFA0220FFF749FA4FF0E7
:1039A00090460220B0620820B062284F4FF4805940
:1039B000C7F828904020B8621020B061002401258B
:1039C000CDE90054694630460494FFF755FA0220C9
:1039D0000090CDE901540394694630460494FFF702
:1039E0004BFA08200090CDE9015403946946304613
:1039F0000494FFF741FA4FF01008CDF80080CDE9AC
:103A000001540394694630460494FFF735FACDE932
:103A1000008469460E480495FFF72EFACDF8009011
:103A2000CDE901540394694638460494FFF724FA1B
:103A300040200090CDE9015403946946384604942F
:103A4000FFF71AFA07B0BDE8F08300000004004851
:103A5000000800482DE9F04192B0282106A8FCF7A3
:103A600044FC18216846FCF740FC2B48016E41F4E9
:103A700080510166006E00F4805010900120FFF725
:103A8000EFF92027022500240097CDE901540526EF
:103A9000CDE904464FF09048694640460394FFF74D
:103AA000EBF940200090CDE90154CDE90446694688
:103AB00040460394FFF7E0F980200090CDE90154DF
:103AC000CDE90446694640460394FFF7D5F94FF423
:103AD0008270CDE906404FF47060CDE90804012002
:103AE0000A9040020B900720CDE90C74CDE90E40FE
:103AF0000A4C06A92046FFF709FB606820F0100079
:103B00006060606820F008006060206840F040005D
:103B1000206012B0BDE8F08100100240003001408A
:103B20002DE9F04192B0282106A8FCF7DEFB182110
:103B30006846FCF7DAFB2C484FF48048816D41F46D
:103B400080418165806D00F4804010900220FFF775
:103B500087F902254FF40050CDE900050024052621
:103B6000CDE90254214FCDE9044669463846FFF7B6
:103B700083F9CDE90085CDE90254CDE904466946D3
:103B80003846FFF779F9A803CDE90005CDE90254DD
:103B9000CDE9044669463846FFF76EF94FF4827066
:103BA000CDE906404FF47060CDE9080401200A9089
:103BB00040020B901820CDE90C040720CDE90E40FF
:103BC0000B4C06A92046FFF7A1FA606820F0100010
:103BD0006060606820F008006060206840F040008D
:103BE000206012B0BDE8F0810010024000040048DF
:103BF000003800402DE9F043A1B014211AA8FCF7C9
:103C000074FB202106A8FCF770FB30210EA8FCF7FE
:103C10006CFB18216846FCF768FB614E4FF40069A5
:103C2000306E40F400603066306E002400F40060B6
:103C30001F9040201B9040F64850CDE91C04012005
:103C4000584D1E90ADF868401AA92846FFF7E4FACF
:103C5000286840F08000286001212846FFF76CFBAF
:103C60006020CDE9060440F2A460CDE908400A9442
:103C70000B940C9406AA012128460D94FFF796FB9D
:103C800001212846FFF71EFB10212846FFF754FBB1
:103C900006AA10212846FFF789FB10212846FFF7C6
:103CA00011FBAF1539462846FFF746FB06AA3946F1
:103CB0002846FFF77BFB39462846FFF703FB4FF406
:103CC000805841462846FFF737FB40F63E500990A2
:103CD00006AA41462846FFF769FB41462846FFF7FA
:103CE000F1FA68683049084040F070006860686820
:103CF00020F470006860A86820F08000A8600E942E
:103D00006814CDE912040F948DF844401094ADF876
:103D1000464000031494CDE91540179418940EA959
:103D200028461994FFF734FAF06C40F00100F06473
:103D3000F06C009700F001001F900225CDE90154BE
:103D40000626CDE904464FF090476946384603946D
:103D5000FFF792F828020090CDE90154CDE904461E
:103D6000694638460394FFF787F868020090CDE96A
:103D70000154CDE90446694638460394FFF77CF8C0
:103D8000CDF80090CDE901540B20CDE904406946FF
:103D900003943846FFF770F821B0BDE8F0830000C7
:103DA00000100240002C01408FFFFFFD10B586B0CF
:103DB00014216846FCF799FA2748816D41F0020109
:103DC0008165806D00F00200059024480068C0F312
:103DD0000220C0F10701042900D90421021D072A8D
:103DE00001D2002000E0C01E01228A40521E02F0D3
:103DF000040181401A4A0020090182F800144FF0A2
:103E0000E0224FF00051C2F80011ADF8000048F276
:103E1000D041CDE90101134C039069462046FFF7DC
:103E2000FBF9206820F080002060A0680E4908405F
:103E3000A06060680D4908406060A06820F08000C4
:103E4000A060E06840F00100E060206840F0010000
:103E5000206006B010BD0000001002400CED00E034
:103E60001DE000E000040040F8BFFEFF8FFFFFFDF3
:103E70002DE9F04190B0202106A8FCF736FA182170
:103E80006846FCF732FA4348816D41F400318165A0
:103E9000816D01F400310E91C16C41F00201C164E9
:103EA000C06C022400F002000E9008200025CDE92D
:103EB000000403270726CDE90275DFF8DC80CDE991
:103EC000045669464046FEF7D7FF10208DE8910062
:103ED00001240596CDE9035469464046FEF7CCFF20
:103EE0002E480068C0F30220C0F10701042900D960
:103EF0000421021D072A01D2002000E0C01E8C40D0
:103F0000641E04F0030181400801254981F8000482
:103F1000234940202239C1F800014FF4E130CDE9B6
:103F200006500C20CDE90A501E4C089509950C95B9
:103F300006A920460D95FFF7DFFAA06865F35F70CC
:103F4000A060A06820F06060A060206820F00050B1
:103F50002060606820F490406060A06820F02A0033
:103F6000A060206840F001002060E069C0F340508C
:103F70000028FAD0E069C0F380500028F5D020680E
:103F800040F020002060206840F01000206010B059
:103F9000BDE8F08100100240000400480CED00E094
:103FA00026E000E000440040FEF7EEF8FEE7FEF7F2
:103FB000EBF8FEE730B500F00703C3F10704042C6B
:103FC00000D90424181D072801D2002300E0DB1EBD
:103FD000012505FA04F0401E084098409D406D1EE2
:103FE0001540284330BD000030B5026A22F00102BE
:103FF0000262036A446882691B4D22F003022A4070
:104000000D6823F002032A430D692B434D6823F00A
:1040100001032B43154DA8420BD0154DA84208D0E3
:10402000144DA84205D0144DA84202D0134DA84209
:1040300012D14D6923F0080343EA85038D6823F00C
:10404000040343EA85038D6924F480742C43CD690D
:1040500024F4007444EA450444608261C968416301
:104060000362002030BD00008FFFFEFF002C0140E6
:10407000003401400040014000440140004801403C
:1040800030B5026A22F010020262056A4268836952
:104090001D4C23F4407323400C6843EA042425F0AC
:1040A00020030D6943EA05134D6823F0100343EA2A
:1040B0000513164DA8420BD0154DA84208D0154D3A
:1040C000A84205D0144DA84202D0144DA84213D1E5
:1040D0004D6923F0800343EA85138D6823F0400384
:1040E00043EA85138D6922F4806242EA8502CD6934
:1040F00022F4006242EAC50242608461C9688163B9
:104100000362002030BD0000FF8FFFFE002C014045
:10411000003401400040014000440140004801409B
:1041200030B5026A22F480720262046A4368C2698E
:104130001C4D22F003022A400D6824F400742A4327
:104140000D6944EA05244D6824F4807444EA05248A
:10415000154DA8420BD0154DA84208D0144DA842C9
:1041600005D0144DA84202D0134DA84213D14D6979
:1041700024F4006444EA85248D6824F4806444EACD
:1041800085248D6923F4805343EA0513CD6923F414
:10419000005343EA45134360C261C968C1630462C6
:1041A000002030BD8FFFFEFF002C01400034014095
:1041B00000400140004401400048014030B5026A1F
:1041C00022F480520262056A4268C3691D4C23F4DE
:1041D000407323400C6843EA042425F400530D691E
:1041E00043EA05334D6823F4805343EA0533164D03
:1041F000A8420BD0154DA84208D0154DA84205D0B5
:10420000144DA84202D0144DA84213D14D6923F495
:10421000004343EA85338D6823F4804343EA8533C2
:104220008D6922F4804242EA8512CD6922F400426F
:1042300042EAC5124260C461C96801640362002099
:1042400030BD0000FF8FFFFE002C01400034014014
:104250000040014000440140004801400648416CD4
:1042600021F4004141646FF001010161026912F023
:10427000010FFBD001617047002C01400D4940F255
:10428000A4600860091F0860091F086009486FF0F2
:1042900001013C380161026912F0010FFBD001619C
:1042A000016A40F2111211430162416C41F4004174
:1042B000416470473C2C0140704700000549896803
:1042C000054A01F0F0010909515C01F01F01C840E5
:1042D00070470000001002400C680008054989681A
:1042E000054A01F4E06102EB1121097801F01F0198
:1042F000C8407047001002401C68000805498968E2
:10430000054A01F4605102EBD121097801F01F0147
:10431000C8407047001002401C68000815498868B2
:1043200000F00C031448042B0DD04210082B09D0C8
:104330000C2B08D1CB6803F00303022B05D0032B11
:1043400003D101E0104670471046CA68C2F3062246
:104350004243C868C96800F0F003012000EB131362
:10436000B2FBF3F201F0C06100EB51604000B2FB20
:10437000F0F07047001002400024F40000221449BD
:1043800003E0521C92B2C82A17D88B68C3F34003CB
:10439000002BF6D0C86000200E4A03E0401C80B21B
:1043A000C8280AD89368C3F3C013002BF6D10020A5
:1043B00005E0401C80B2C82801D9002070478A68F7
:1043C00012F0010FF5D002480C30006880B270473F
:1043D0000038004000300140704730B504464FF4CB
:1043E0007A7502E0284600F003F8641EFAD230BD68
:1043F000F0B54FF0E0240021A3690C4EAA25A26974
:10440000934202D9A3EB020303E003D2A6EB020717
:104410003B4419441346B1FBF5F2824205D2801A9F
:10442000B1FBF5F205FB1211E9E7F0BD10980200AF
:1044300001490968081A7047140000200148006803
:1044400070470000140000204FF0E0210F48486141
:104450000F480068C0F30220C0F10702042A00D907
:104460000422031D072B01D2002000E0C01E0123FF
:1044700093405B1E03F002028240064B00201201B3
:1044800083F8142D88610720086170470F98020097
:104490000CED00E00FE000E002480168491C0160FB
:1044A000704700001400002070B53648016821F004
:1044B0000F0141F004010160016801F00F010429BE
:1044C000FAD1314850F8801F21F4807101602F4CDF
:1044D000206840F4803020602068C0F3404000280D
:1044E000FAD0E16845F21350294A11400843E060D0
:1044F000E06840F08070E060206840F080702060EC
:104500002068C0F340600028FAD0A06840F00300A3
:10451000A0608020FEF7F0FDA06800F00C000C28E1
:10452000FAD11C48016841F0807101601A480168A5
:1045300041F0010101600021416041686429FCD320
:104540000020FEF7D9FDA06820F4E060A060A0681C
:1045500020F46050A060114D2846FEF728FD284643
:10456000FEF710FED4F8880020F00C00C4F8880094
:10457000D4F8880020F0405040F00050C4F8880083
:1045800070BD00000020024000700040001002409A
:104590000C80FFF9FCED00E0001000E080FE210A35
:1045A0000248016841F470010160704788ED00E045
:1045B0002DE9F04F5D488FB0016911F0010F7DD0FA
:1045C0006FF0010101615A4C0025207818B1257067
:1045D0005848FDF7C3FF5648806832284BD15448ED
:1045E000DFF854818560D8F80400FCF7CAF88246E9
:1045F0008B46D8F80800FCF7C4F806460F46D8F8F2
:104600000000FCF7BEF8DFF8348104460D46D8F808
:104610002000FCF7B6F8CDE90401D8F80000FCF75B
:10462000B0F8CDE9020146484069FCF7AAF8CDE9A7
:10463000000143480069FCF7A4F8804640488946D9
:10464000C068FCF79EF841EC100B08A853EC102B47
:1046500080E8F00CDDE90401CDE90601DDE90201A5
:10466000CDE90401DDE90001CDE9020135A0CDE984
:10467000008900F0E5FA2E4F3A4CB868401CB8604B
:10468000D4F86801022835D12069FCF77AF841ECAA
:10469000100B35A053EC102B00F0D2FA6069FCF738
:1046A00070F841EC100B36A053EC102B00F0C8FA58
:1046B000606AFCF766F80E46054600E032E0206AC4
:1046C000FCF75FF841EC100BCDE9005653EC102BD2
:1046D00031A000F0B5FA34A0E16800F0B1FA37A0DB
:1046E000216E00F0ADFA3BA0616E00F0A9FA012046
:1046F000C4F868013D480078002813D0F868B0F588
:10470000006F0FDA3A49096851F82000FCF739F8D0
:1047100041EC100B37A053EC102B00F091FAF86825
:10472000401CF8600FB0BDE8F08F000000040040AE
:104730000000002048010020840200205C010020CD
:10474000300200206D7574652025662025662025C1
:10475000662025662025662025662025662025669C
:104760000D0A00009002002070686173655F726539
:1047700073697374616E6365203D2025660A0D00C0
:1047800070686173655F696E64756374616E63659B
:10479000203D2025660A0D0050493A20256620203C
:1047A00025660A0D00000000506F6C65207061697D
:1047B0007273203D2025640A0D000000456E636F72
:1047C0006465722064697220726576203D202564DC
:1047D0000A0D0000456E636F646572204F66667354
:1047E0006574203D2025640A0D00000000010020B2
:1047F000B000002073616D706C652025660D0A00A5
:104800003349DFED320AB5EEC00AD1ED001A91ED61
:10481000021A3048F1EE10FA02D2C0ED001A16E08A
:1048200091ED062AF6EE002AB4EEC20AF1EE10FA75
:1048300013D2D1ED030A41EE001A20EEA22A60EE57
:10484000002A00EE801A42EE221AC0ED001A80ED16
:10485000011A00BFC0ED020A704791ED071A32EE4F
:10486000011AB4EEC01AF1EE10FA0ADD70EE421A27
:1048700091ED091A91ED040A00EE211A80ED001A5B
:1048800017E0D0ED031A124AF4EEC01A92ED011AA5
:10489000F1EE10FA10DD30EE610AD1ED050A60EE9E
:1048A000A21A20EE002A20EE800A01EE821A80ED84
:1048B000001A80ED010ACDE7F4EEC01AF1EE10FA0D
:1048C000CAD880ED001AC0ED010AC3E7000000005D
:1048D000180100204834002010B52DED0A8BB0EEF1
:1048E00062BAF0EE418AB0EE00CAB0EE609A68EEAD
:1048F000A8BA6BEE0C0AF0EE40AA84B0B0EE42AA61
:104900008BEEA00AF0EE61CA7AEEC99A10EE100A98
:10491000FBF737FFCDE9020118EE900AFBF731FFF4
:10492000CDE900010399019861F31E0003909DED0C
:10493000020B51EC100BFBF767FF00EE100A39EE8B
:10494000C00A10EE100A002802DABFEE008A01E069
:10495000B7EE008A5F4C28EE0A0A28EE281A68EEA5
:104960004B0A84ED030A28EE2C0AC4ED050A84EDF7
:10497000040A68EE001AB4EEE11AF1EE10FA03DD53
:1049800028EE4A1A84ED031A30EE682A94ED031AD1
:10499000F1EE402AB6EE00AAC2EE011A82EEA02A7B
:1049A00070EE282AC4ED061A61EE8A1A61EEA21A88
:1049B00084ED082A22EE0A2A42EE001A28EE292A5D
:1049C00068EE212AB4EEE22AF1EE10FA58D221EE76
:1049D0000C0A6BEEA01A20EE200A70EEC10A40EE1F
:1049E000291A81EEA00A10EE100AFBF7CAFE9FED0D
:1049F0003ABB41EC100BB0EE4B1AF0EE6B1A00F024
:104A0000CBF951EC100BFBF7FFFE00EE100A00F0A3
:104A10006FFA20EE088A84ED048A78EE680A94ED35
:104A2000031A80EE810A10EE100AFBF7AAFE41EC91
:104A3000110BB0EE4B0AF0EE6B0A00F0ADF951EC41
:104A4000100BFBF7E1FEA06194ED051AF1EE480AA8
:104A500080EE810A10EE100AFBF793FE41EC110B79
:104A6000B0EE4B0AF0EE6B0A00F096F951EC100B29
:104A7000FBF7CAFE9FED1A0A206284ED070A05E0E3
:104A800079EEE10A80EE801A84ED071A94ED060AA9
:104A9000D4ED070A94ED081A124870EE200A70EE61
:104AA000810AC0ED030A84ED009AC4ED01AAC4EDA9
:104AB000028AD4ED030A08EE809A20EE000A60EE26
:104AC0008A0A00EE809A84ED099A04B0BDEC0A8B44
:104AD00010BD0000180100200000000000000000D0
:104AE000000000004834002030B5124CE06900227C
:104AF000C0F30011104B1148012529B1102121628A
:104B000041785A5405704270E169C1F3401161B1B6
:104B10004178122903D9DA740570427005E00278F1
:104B20001AB9626A5A54491C417002490820183166
:104B3000086030BD00440040480100200000002013
:104B400070B50F4C002542F20806206818B93046AF
:104B5000FDF7E4FF206032460A49FBF7ADFB002277
:104B600042F20401206800F055FF216801F5005170
:104B70004968814201D04FF0FF35284670BD0000E2
:104B8000B000002000B801082DE9F0471A4D286850
:104B900058B1EFF3108472B6FDF788FB052137207A
:104BA000FDF7F6FA060004D01FE04FF0FF30BDE835
:104BB000F087002242F20401286800F02BFF2F68E2
:104BC00042F20401DFF83480C85100254FF48069B7
:104BD00007EBC500D0E9002308EBC500FDF74AFB51
:104BE000060002D16D1C4D45F2D9FDF735FB84F36B
:104BF00010883046DBE70000B000002000B8010854
:104C000010B50B4C206820B942F20800FDF786FF72
:104C100020609FED080AD4F8001000204FF40062D5
:104C200001EB8003401C83ED000A9042F8DB10BDCD
:104C3000B000002000000000FDF7A6FAFEE700002B
:104C40000FB4054B10B503A9044A029800F066FAA8
:104C500010BC5DF814FB0000A95F000840010020B3
:104C6000002809DB00F01F0201219140400980006B
:104C700000F1E020C0F8001170470907090E002874
:104C800004DB00F1E02080F80014704700F00F0012
:104C900000F1E02080F8141D7047000000000000C3
:104CA00030B52DED048B81B0B0EE408AF0EE608A15
:104CB0006A4651EC180B01F083F900989FED329B86
:104CC0007E300090002821DC53EC192B51EC180B9E
:104CD000FBF76AFD1AD0002140F60800FBF738FF09
:104CE000044651EC180BFBF78FFD08EE100A40F656
:104CF000080004EA0001FBF72BFFB5EEC08AF1EED5
:104D000010FA04BF022000F039F92DE00098FF28C6
:104D100030DB00210846FBF71BFF00F4400553EC95
:104D2000192B51EC180BFBF757FD8CBF0024012405
:104D3000022000F023F99FED168A4DB1002C0CBF24
:104D40004FF400004FF48000A84218BF9FED118A75
:104D500004210846FBF7FCFE002C01BFB1EE480A17
:104D600001B0BDEC048B30BDB0EE480A01B0BDEC23
:104D7000048B30BD51EC180BFBF746FD01B000EE83
:104D8000100ABDEC048B30BD0000000000000000E4
:104D90000000807FFFFF7F7F00B52DED048BB0EE1C
:104DA000418AF0EE618AB0EE409AF0EE609A83B0EC
:104DB00053EC182B51EC190BFBF79AFE00F07040E6
:104DC000B0F1005F1AD018EE101A18EE900A8DEDAF
:104DD000008B002918BF0121084320F00040C0F1DA
:104DE0007F6000F1E040C00F01BFB0EE480AF0EE76
:104DF000680A03B0BDEC048B08BF00BDB0EE490AE1
:104E000003B0F0EE690ABDEC048B00BD00000000A9
:104E100010B52DED020B2DED088B84B09DED0C0B24
:104E200051EC100BFBF708FE41EC180B9DED0C0B41
:104E300053EC182B51EC100BFBF79DFB41EC190BBD
:104E40000D989FED290B10F0004F53EC102B51ECF7
:104E5000190B9FED21AB9FED22BB0ED0FBF7A4FCFD
:104E60000ED953EC1B2B51EC190BFBF7B5FC1CD2E4
:104E700014E000BF41EC180B17E0FBF795FC06D2DD
:104E800053EC1A2B51EC180BFBF775FBF2E753ECC4
:104E90001B2B51EC190BFBF79FFC06D853EC1A2B7C
:104EA00051EC180BFBF7C6FAE4E78DED028B9DED94
:104EB0000C0B18EE901A10EE900A8DED000B61F3BA
:104EC0001E0003909DED020B04B0BDEC088B02B0F8
:104ED00010BD000000000000000000000000F03FD6
:104EE000000000000000E03F000000000000E0BF04
:104EF00010B52DED028BB1EEC08A18EE100A20F02D
:104F00000040C0F1FF40C00F0AD010EE100A20F0A0
:104F10000040C0F1FF40C00F04BF012000F02EF898
:104F2000B0EE480ABDEC028B10BD000008B59FED45
:104F3000060A0A4601468DED000A6846FBF7DAFCD0
:104F40009DED000A08BD00000000000010B50446F9
:104F500091ED000BFFF7A4FE84ED000A10BD02E006
:104F600008C8121F08C1002AFAD1704770470020F4
:104F700001E001C1121F002AFBD1704701490860FE
:104F800070470000440100202DE9FF5F82B000213E
:104F9000DDE90430020DDDF840B0034318D044F6DB
:104FA0001050A2F2FF3242431514119801281FD06D
:104FB000A5EB0B00401C5FEA000A4FF000064E4FC5
:104FC000DFF83891B046504615D5CAF1000413E019
:104FD000119801244AA3012801D16FEA0B0102981C
:104FE000119AC0E90031C0E9024206B0BDE8F09F65
:104FF000CBF10000DFE704460021404A491842EBAC
:105000000450CDE9001012E0E00707D032463B46DD
:1050100040464946FBF7B5FA8046894632463B464C
:1050200010461946FBF7ADFA06460F466410002CF1
:10503000EAD1DDE90401DDE90023BAF1000F06DA67
:10504000FBF79FFA42464B46FBF79BFA05E0FBF75E
:105050000AFB42464B46FBF706FB04460E4600227F
:10506000284BFBF7B9FB03D84FF0FF30014607E0B0
:105070000022254B20463146FBF7DCF9FBF720FDEB
:10508000102409E0002C0ADB0A220023FBF7C2F8F7
:10509000039B30321A55641E50EA0102F2D1641C9F
:1050A000039AC4F111031444119A012A03D0012276
:1050B00008430DD10AE0084304D000204FF0110B43
:1050C000119072E7A3EB0B056D1E0DE05B4504DD4F
:1050D0004FF0000205F1010504E003DA4FF0000291
:1050E000A5F10105002AECD002981199C0E902311E
:1050F000C0E9004579E70000000014400000F03FDF
:10510000300000000000F0430000E03F30380A2883
:1051100001D2012070470020704700002DE9FF4FA9
:1051200095B09A46884606460025EEE1252877D1B7
:1051300000242746F94A0121039400E0044316F8AD
:10514000013F203B01FA03F01042F7D130782A28C2
:1051500011D06FF02F033078A0F13002092A16D851
:10516000039A44F0020402EB820203EB4202104471
:10517000761C0390EFE758F8042B0392002A03DA19
:10518000504244F40054039044F00204761C3078FA
:105190002E2816D116F8010F44F004042A280DD049
:1051A0006FF02F023078A0F13003092B09D807EBFC
:1051B000870302EB4303C718761CF3E758F8047B18
:1051C000761C30786C280FD006DC4C2817D0682865
:1051D0000DD06A2814D104E0742810D07A280FD199
:1051E0000DE044F400140AE044F4801401E044F4B7
:1051F00040147278824202D104F58014761C761C29
:10520000307866280BD013DC582877D009DC0028CA
:1052100075D04528F6D04628F4D047281AD193E116
:1052200018E0632835D0642879D0652812D18BE145
:10523000702873D008DC6728F1D069286FD06E28F9
:105240000DD06F2806D1ACE073282CD0752874D00F
:10525000782853D05246179990476D1C54E1C4F3F7
:105260000250022809D003280DD0D8F800100428D5
:105270000DD00D6008F1040846E1D8F80010EA17D7
:10528000C1E90052F6E7D8F800100D80F2E70D7082
:10529000F0E718F8041B8DF8001000208DF80100CD
:1052A000EB46012003E058F804BB4FF0FF306107E4
:1052B0004FF0000102D40DE009F101018946B94225
:1052C0000FDA8145F8DB1BF809100029F4D108E05A
:1052D00009F1010189468142FADB1BF80910002916
:1052E000F6D103985346A0EB090721463846179A92
:1052F00000F080FA284400EB090507E044E008E1EB
:105300000DE01BF8010B524617999047B9F10109BE
:10531000F7D2534621463846179AF2E039E00A217F
:10532000C4F302524FF0000B0091022A06D058F845
:10533000040BC117032A09D00AE023E008F1070093
:1053400020F00702F2E80201904605E000B2C11722
:10535000042A01D140B2C117002906DA0A46002109
:10536000404261EB02012D2202E0220504D52B22EE
:105370008DF80420012203E0E20701D02022F7E7A4
:10538000914657E00A2100E010214FF0000B0091F8
:105390000BE010214FF0000B44F0040408270091AB
:1053A00003E008204FF0000B0090C4F30252022AE1
:1053B00005D058F8040B0021032A08D008E008F1B2
:1053C000070020F00702F2E80201904603E080B2F5
:1053D000042A00D1C0B24FF0000922072AD5327842
:1053E000702A07D0DDF800C08CF0100C5CEA0B0CC2
:1053F00005D00EE040228DF80420012208E050EA9A
:10540000010306D030238DF804308DF805200222E8
:105410009146009B83F0080353EA0B030AD150EA3C
:10542000010201D1620705D530228DF804204FF02A
:1054300001097F1E3278582A04D039A20C920CAA96
:1054400002920BE03BA2F9E75B46009AFAF7E2FE14
:105450000C9B9B5C029A521E0292137050EA01024E
:10546000F2D1029804A9081A00F1200B600702D5B6
:1054700024F4803400E001275F4502DDA7EB0B0038
:1054800000E0002000EB0B01009003984944401A13
:105490000390E00306D453462146179A039800F080
:1054A000A9F90544002706E001A85246C05D1799F6
:1054B00090476D1C7F1C4F45F6DBE0030CD553462F
:1054C0002146179A039800F095F9054404E030202E
:1054D0005246179990476D1C0099481E009000296C
:1054E000F5DC08E00298029952460078491C0291C6
:1054F000179990476D1CBBF10001ABF1010BF1DC7A
:105500005BE100F065F90544761C307800287FF4F3
:105510000DAE19B02846BDE8F08F00000928010043
:105520003031323334353637383961626364656619
:1055300000000000303132333435363738394142DB
:105540004344454600000000600700D4062708F1E8
:10555000070020F00700F0E80223804603F0004C2B
:105560005FEA0C0001D097A009E0200501D596A0C4
:1055700005E0E00701D095A001E0AFF24C001390E8
:10558000307823F0004365280CD006DC452809D08C
:1055900046281DD047287FD13BE0662818D06728D1
:1055A0007AD136E00021112F01DB112000E0781CB8
:1055B000CDE9000104A90CA8FFF7E6FCDDE90D0127
:1055C0000C9A4FF0000B07F10109109200914EE088
:1055D0004FF000400097CDE9011004A90CA8FFF797
:1055E000D3FCDDE90D020C9B0F994FF0000B9146A7
:1055F0001093009211B9791C00EB0109B7EB090077
:1056000003D4C0F1FF3B07F10109A9EB07000190AA
:1056100042E0012F00DA01270021112F01DD1120C6
:1056200000E03846CDE9000104A90CA8FFF7ACFC66
:10563000DDE90D010C9A00914FF0000BB946109274
:1056400021070FD4009A4A4503DA914601E0A9F1F7
:105650000109B9F1010F05DD109AA9F10101515CB1
:105660003029F4D0B84202DA10F1040F03DA012134
:10567000CDE9011010E0002803DC8344A9EB000110
:1056800002E0411C494500DD8946A0EB0B00401CAF
:1056900001904FF000400290200705D40198484542
:1056A00002DB4FF0FF30019000208DF84B00029894
:1056B0000DF14B07B0F1004F25D002200C902B20AC
:1056C0000D90029800280CDA404202902D200D9097
:1056D00007E00A210298FBF7B3F83031029007F88F
:1056E000011D0C99481E0C900029F2DC029800283C
:1056F000EFD1791E0D980870307800F0200040F04E
:10570000450007F8020D11A8C01BC01D0290139898
:10571000007800B1012000EB0901019801EBE07174
:10572000029801440398401A401E0390E00306D4F7
:1057300053462146179A039800F05CF805441398E5
:10574000007818B15246179990476D1CE00323D595
:1057500053462146179A039800F04CF805441BE085
:10576000BBF1000F07DB0098584504DD109817992E
:1057700010F80B0001E0179930205246904701982D
:105780000BF1010B401E05F10105019004D12E2003
:105790005246179990476D1CB9F10001A9F1010912
:1057A000DEDC05E017F8010B5246179990476D1C97
:1057B0000299481E02900029F4DC53462146179AAC
:1057C00003989EE62D0000002B0000002000000042
:1057D0002DE9F041044600251E461746880404D4EE
:1057E00005E039462020B0476D1C641EF9D52846D7
:1057F000BDE8F0812DE9F041044600251E469046A3
:10580000C80301D5302700E02027880404D505E02F
:1058100041463846B0476D1C641EF9D52846BDE8A0
:10582000F081000000B5B7EE002A2DED048BB0EE3C
:10583000619A85B0DFED2B1A60EE211A82EE210A03
:1058400060EE208A20EE018A28EEA80A08EE080AF7
:10585000FFF74EFB9FED241AF0EE400A81EE200A7E
:1058600010EE100AB0F17E5F03DA68EE808A28EE4F
:10587000008A01A96846B0EE491AF0EE480AB0EE77
:10588000680A00F0E3FB9DEC020A04AA03A902A83F
:1058900000F086FEDDED020A9FED140A144960EE69
:1058A000800AFCEEE00A10EE900A80B20860DDED9E
:1058B000030A091F60EE800AFCEEE00A10EE900A6F
:1058C00080B20860DDED040A091F20EE800ABCEEFC
:1058D000C00A10EE100A80B2086005B0BDEC048B5F
:1058E00000BD0000ABAA2A3FAC5C313F00805445AC
:1058F0003C2C01409FED1D1AF5EE000A40EE010A16
:10590000BDEEE00AF5EEC00A10EE100AF1EE10FA54
:1059100000D2401E00EE100AB8EEC00A30EEC00AF7
:10592000DFED130A20EE200ABCEEC01A11EE100AB9
:1059300080B2B0F5007F02D330EE600A002000EEA6
:10594000900A0C49F7EE001AF8EE600A01EB8000AD
:1059500090ED011A70EE600A90ED000A71EEE01A07
:1059600021EE800A00EE810A7047000083F9223E92
:1059700000000044246C0008DFED1C0A20EE200A21
:10598000FDEEC00AB5EEC00A10EE900AF1EE10FA74
:1059900000D2401E00EE900AF8EEE00A30EE600AF7
:1059A000DFED130A20EE200ABCEEC01A11EE100A39
:1059B00080B2B0F5007F02D330EE600A002000EE26
:1059C000900A0C49F7EE001AF8EE600A01EB80002D
:1059D00090ED011A70EE600A90ED000A71EEE01A87
:1059E00021EE800A00EE810A7047000083F9223E12
:1059F00000000044246C000880ED000A30EEC10A6B
:105A0000DFED030A20EE200A81ED000A7047000056
:105A10003ACD133F034610B51046074A08E000BFD1
:105A200013F8014B84EA106452F8244084EA002001
:105A3000491EF5D210BD0000246800082DE9F04190
:105A4000CF4FD04CCD4D4FF000082DED028B2946A5
:105A5000D7ED012A94ED041A686897ED000A72EEFA
:105A6000C11A97ED023A91ED062A9FEDC78AD4ED4F
:105A7000030A05280AD2DFE800F0030A325E750047
:105A800084ED030AC4ED042A84ED053AAAE095EDFD
:105A90000D0AD4ED051A20EE080A33EE611AF0EE75
:105AA000C00AB1EE600AB4EEC01AF1EE10FA02DDDF
:105AB000B0EE412A01E0B0EE402AB4EEE02AF1EE69
:105AC00010FA02DDB0EE600A06E0B4EEC01AF1EEA4
:105AD00010FA01DDB0EE410A31EE800A28E095EDC2
