:020000040800F2
:1000000098380020F10100087B3F0008512B0008C0
:10001000753F000899170008794C0008000000009F
:10002000000000000000000000000000A5430008E0
:10003000A720000800000000854200086544000871
:100040000B0200080B0200080B0200080B0200085C
:100050000B0200080B0200080B0200080B0200084C
:100060000B0200080B0200080B0200080B0200083C
:100070000B0200080B0200080B0200080B0200082C
:100080000B02000800000000691300080B020008C2
:100090000B0200080B0200080B0200080B0200080C
:1000A0000B0200080B0200080B0200080B020008FC
:1000B0000B0200087D4500080B0200080B02000837
:1000C0000B0200080B0200080B0200080B020008DC
:1000D0000B0200080B020008294B00080B02000865
:1000E0000B0200080B0200080B0200080B020008BC
:1000F0000B0200080B0200080B02000800000000C1
:10010000000000000B020008000000000B020008C5
:100110000B020008000000000B0200080B020008A0
:100120000B0200080B0200080B0200080B0200087B
:100130000B02000800000000000000000B02000895
:100140000B0200080B020008000000000000000085
:10015000000000000000000000000000000000009F
:100160000000000000000000000000000B0200087A
:100170000B0200080000000000000000000000006A
:10018000000000000B02000800000000000000005A
:10019000000000000000000000000000000000005F
:1001A00000000000000000000B0200080B02000825
:1001B0000B0200080B0200080B0200080000000000
:1001C000000000000B02000800000000000000001A
:1001D0000B0200080B020008DFF810D000F0D8FC7A
:1001E0000048004701650008AFF300809838002000
:1001F0000648804706480047FEE7FEE7FEE7FEE7C1
:10020000FEE7FEE7FEE7FEE7FEE7FEE76D450008D6
:10021000D90100082DE9F05F0546002092469B4673
:1002200088460646814640241BE02846414647460C
:10023000224600F039FB53465A46C01A914110D36A
:1002400011461846224600F016F82D1A67EB0108F1
:100250004F4622460120002100F00DF817EB00095F
:100260004E41201EA4F10104DFDC484631462A46F7
:100270004346BDE8F09F202A04DB203A00FA02F151
:10028000002070479140C2F1200320FA03F3194384
:1002900090407047202A06DBCB17203A41FA02F043
:1002A00043EAE07306E041FA02F3D040C2F12002D3
:1002B000914008431946704740EA01039B0703D069
:1002C00009E008C9121F08C0042AFAD203E011F895
:1002D000013B00F8013B521EF9D27047D2B201E057
:1002E00000F8012B491EFBD270470022F6E710B53B
:1002F00013460A4604461946FFF7F0FF204610BD94
:1003000010B5002200E0521C835C8C5CA34201D13A
:10031000002BF8D1D8B2E1B2401A10BD0FB400B52D
:100320008DB010A909900B9000914FF0FF300A900A
:1003300000200C9005480690054807906A4609A8D9
:100340000F9900F0C7FA0DB05DF814FBF108000832
:100350000F0900082DE9FF5FD2E901A74FF000085F
:10036000916999461446DDF838B0464601988847A9
:10037000054659EA0B0005D009E0A169761C0198F1
:1003800088470546216A284688470028F5D1681C19
:1003900003D05FEACA7005D015E04FF0FF3004B01B
:1003A000BDE8F09F2068011D2160D0F800800AE0C0
:1003B0005FEACA7001D108F8015BA169761C7F1E53
:1003C000019888470546002F1ADD681C18D0B9F13E
:1003D000000F0DD0E81705EBD060421120F01F0090
:1003E00059F822102A1A012090400142E0D107E07A
:1003F000BBF1000FDCD1216A284688470028D7D0FE
:10040000E16901988847BBF1000F07D1002E05DD97
:100410005FEACA7002D1002188F80010A068B842D3
:1004200003DDBBF1000F03D017B16FF00100B6E799
:100430003046B4E72DE9FE4F804681EA0300C00F45
:100440000C46009021F0004123F00045B8EB02007B
:10045000A94105D24046214690461C460B4602461D
:1004600023F00040104347D0270DC7F30A00C3F321
:100470000A510290401A019040286BDAC3F313002E
:1004800040F4801B0098924620B10023D2EB030A6F
:1004900063EB0B0B01985946C0F140025046FFF741
:1004A000EAFE06460D4650465946019AFFF7F2FE0F
:1004B00010EB08006141002487EA115284EAE773D7
:1004C0001A4340D0009A62B3019A012A4FEA0752B8
:1004D00015DC001B61EB02014FF0004202EA0752FB
:1004E000CDE90042001C41F5801132462B4600F058
:1004F00072FA03B0BDE8F08F40462146F9E7001BD1
:1005000061EB0201001C41F5801300185B412018CB
:10051000A2F5001747EB030140EAD570B6196D410B
:1005200011E06D084FEA360645EAC0754FEA0752FA
:10053000001B61EB0201001C41F5801149084FEAE4
:1005400030000019514132462B4603B0BDE8F04F50
:1005500000F032BA0098012240000023D0EB0202E2
:1005600063EBE073009821464FEAE074B8EB0000BB
:1005700061EB0401E9E783F000435BE781F00041B0
:1005800058E72DE9FE4F81EA030404F0004421F00E
:10059000004100944FF0000B23F0004350EA0104A7
:1005A0005ED052EA03045BD0C3F30A54C1F30A5588
:1005B0002C44A4F2F3340194A0FB0254C1F31301C0
:1005C00041F48011C3F3130343F4801301FB02448D
:1005D00000FB034E840A970A44EA815447EA835792
:1005E000A4FB076802958D0A05FB07854FEA932C4B
:1005F00004FB0C542705029D4FEA065847EA1637BC
:10060000B5EB08056EEB070C870E920E47EA8117D3
:1006100042EA8312A7FB0201B6EB0B0164EB000474
:100620002B0D43EA0C335E1844EB1C50DA4651465E
:10063000E7FB0201C5F313044FEA0B3343EA1453FB
:100640004FEA0432019C43EA0603A4F10C0402942D
:10065000009CCDE900B400F0BEF903B0BDE8F08F16
:1006600000200146F9E72DE9F04D81EA030404F08A
:10067000004B21F0004514464FF0000A23F00041E2
:1006800050EA050220D054EA01021DD0C5F30A57F2
:100690000246C5F31303C1F31300C1F30A5640F435
:1006A000801543F48013A7EB0608101BD64608F20A
:1006B000FD3873EB050002D308F1010801E0921840
:1006C0005B41B8F1000F03DA00200146BDE8F08D70
:1006D00000204FF48011064684460EE0171B73EB92
:1006E000050705D3121B63EB050306434CEA010C17
:1006F00049084FEA300092185B4150EA0107EDD1FA
:1007000052EA030012D082EA040083EA050108439A
:1007100005D0101BAB4106D20122002306E00022C7
:100720004FF0004302E06FF0010253101AEB060095
:100730004CEB085110EB0A0041EB0B01BDE8F04D0A
:1007400000F03AB90EB5C10F80EAE0700844CA075C
:10075000002140F233438DE80E000A460B4600F0BC
:100760003AF903B000BD0EB540F2334102910021C9
:10077000CDE900110A460B4600F02DF903B000BD8B
:1007800070B5C1F30A5201F000450024C1F3130112
:1007900040F2FF3341F480119A4201DA002070BD2B
:1007A00040F233439A42A2F2334203DC524200F059
:1007B0007BF800E090402C43F1D0404270BD00F047
:1007C000004230F000400AD0C10D01F56071C0F365
:1007D000160042EA0151C208400711437047002049
:1007E0000146704730B5041E71F1000404DB4FF080
:1007F0000044404264EB0101141E73F1000405DB68
:100800001C464FF00043524263EB04038B4208BF87
:10081000824230BD30B5041E71F1000404DB4FF09C
:100820000044404264EB0101141E73F1000405DB37
:100830001C464FF00043524263EB0403994208BF49
:10084000904230BD01F0004330B421F0004150EA45
:10085000010206D00A0DA2F56072C1F31301002A4D
:1008600002DC30BC00207047440F44EAC104C100E0
:10087000E01830BC00EBC25000F067B830B50B4652
:10088000014600202022012409E021FA02F59D42C0
:1008900005D303FA02F5491B04FA02F52844151E94
:1008A000A2F10102F1DC30BD202A04DB203A21FA5A
:1008B00002F00021704721FA02F3D040C2F1200279
:1008C000914008431946704702681144137801604B
:1008D00018467047D16004495161044911620021F2
:1008E0001161114600F06CB9C9080008B50B000889
:1008F000426842B1016811F8013B23B1521EC0E9C0
:100900000012184670470121C160881E7047426876
:100910005AB1C368016843B983688B4205D0491E48
:10092000521CC0E90012002070474FF0FF307047A2
:100930007CB50023CDE900330546684600F0F3FAA4
:100940006946284604F0B8FD7CBD0029A8BF704761
:10095000401C490008BF20F00100704710B4B0FAF5
:1009600080FC00FA0CF050EA010404BF10BC704790
:1009700049B1CCF1200421FA04F411FA0CF118BFAA
:10098000012121430843A3EB0C01CB1D4FEA006179
:100990004FEA102042BF002010BC704700EBC3504C
:1009A00010440029A4BF10BC7047401C490008BF78
:1009B00020F0010010BC704710B5141E73F1000444
:1009C00008DA401C41F1000192185B411A4301D141
:1009D00020F0010010BD2DE9F04D92469B4611B16B
:1009E000B1FA81F202E0B0FA80F220329046FFF7CD
:1009F00042FC04460F4640EA0A0041EA0B01534616
:100A00005A46084313D0114653EA010019D0C8F1E1
:100A100040025046FFF748FF05460E4650465946ED
:100A20004246FFF728FC084305D0012004E0204699
:100A30003946BDE8F08D0020054346EAE0762C43B8
:100A400037430A986305E40AA0EB08000022FD0A78
:100A500044EA47540A3002D500200146E9E701057F
:100A600010196941DDE9084500196941BDE8F04DFB
:100A7000A2E700002DE9F041054621F000400C46B8
:100A8000284309D0C4F30A5040F23341884205DDBF
:100A900028462146BDE8F0812846FBE740F2FE31BA
:100AA000884210DC0CDB4FEA043040EA155050EA73
:100AB000053105D0104804F0004101430020E9E76A
:100AC00000200146E6E7A0F233404642C6F140026C
:100AD00028462146FFF7CFFB074688462846214691
:100AE0003246FFF7E1FE43463A46FFF765FF3246DE
:100AF000BDE8F041FFF7BFBB0000F03FC1F30A5271
:100B0000C1F3130140F2FF3341F480119A4202DA3B
:100B100000200146704740F233439A42A2F233422A
:100B200002DC5242FFF7C0BEFFF7A5BB70B504461A
:100B300001F000450020054304D14FF00045644218
:100B400065EB010103F00045284305D118464FF03D
:100B50000043524263EB0003101B73EB010002D20F
:100B60004FF0004009E082EA040283EA01034FF0FB
:100B700000501A4301D14FF0C0404FEA2062EFF31A
:100B8000008162F31F6181F3008870BD002070470F
:100B9000064C074D06E0E06840F0010394E80700CA
:100BA00098471034AC42F6D3FFF71AFB987A000846
:100BB000B87A0008C0B24FF4F05100F0E7B9000075
:100BC0002DE9F34F8BB04FF0000801F10C000C46FB
:100BD0004FF0010B46460DF1080A019062690121B0
:100BE00001989047051E2DD0252D2CD0216A8847CD
:100BF000C0B16269012101989047216A88470028A5
:100C0000F7D1411E62690198904700E0761CA16906
:100C10000B988847216A88470028F7D1E1690B982B
:100C20008847DBE7A1690B9888470746A84201D1AE
:100C3000761CD3E7E1690B9888477F1C02D1B8F195
:100C4000000F6FD047E1002762693D4639460198A1
:100C500090472A2804D16269012101989047012513
:100C6000DFF888926269012101989047A0F1300174
:100C70000A290AD24F45E5DC07EB870100EB410763
:100C8000303FDFD445F01005ECE7E90601D46FF002
:100C900000476C280AD04C2814D0682815D06A2840
:100CA0000DD074281CD07A281AD01DE06269012169
:100CB000019890476C2802D045F0040514E045F0F7
:100CC00002050DE045F020050AE062690121019866
:100CD0009047682802D045F0080505E045F4006516
:100CE0006269012101989047C4E9015765283DD008
:100CF00019DC58287AD00CDC452837D004DC2528AC
:100D000026D0412831D131E046282FD047282CD198
:100D10002CE05B2877D0612828D063287CD0642819
:100D200023D15AE0D1E06F2848D008DC66281DD0D6
:100D300067281BD0692821D06E2816D127E070289B
:100D400045D0732868D0752847D078280DD14DE05C
:100D5000A1690B988847054625283FF469AFE169EA
:100D60000B9888476D1C3FF46AAFB4E023466A468F
:100D70006FF001000B9900F0B1F99FE045F04000E1
:100D80006060A80723464FF0000236D43EE0E80733
:100D90007FF447AF2068011D21600068290501D557
:100DA00006701BE7290701D5068017E7A90703D5B9
:100DB000F117C0E9006111E706600FE745F0400058
:100DC0006060A80723464FF0080216D41EE040F6E4
:100DD0000E0125EA0100606016E045F04000606009
:100DE000A80723464FF00A0207D40FE045F0400061
:100DF0006060A80708D5234610226FF001000B9908
:100E0000AFF300805AE007E0234610226FF00100A4
:100E10000B99AFF3008051E04FF000094F464B466D
:100E2000632802D05B2807D041E02079C00601D4B6
:100E30000120A06001273AE06269012101989047F2
:100E40005E2805D14FF00109626949460198904733
:100E5000216939B900210A46534643F82120491C2B
:100E60000829FADBB0B3216969B9C11700EBD16277
:100E700053110AEB830122F01F02821A01200B6832
:100E8000904003430B6062690121019890475D28FF
:100E9000E8D1B9F1000F09D00020514651F82020C7
:100EA000D24341F82020401C0828F7DB02AB224641
:100EB00000976FF001000B99FFF74CFA00280CDA4D
:100EC000401C08D1BBF1000F05D04FF0FF300DB032
:100ED000BDE8F08FFFE74046F9E7E90701D108F1E7
:100EE000010806444FF0000B78E60000CCCCCC0C97
:100EF0000FB4002300B589B00CA900910B996FF0D5
:100F00000042CB601E4B06931E4B07930423CDE992
:100F100001321D4A089202466B46002000F0DEF8BE
:100F200009B05DF814FB70B586B006464FF0FF308F
:100F30000091CDE90101002015460C46049032468F
:100F4000694604A8FFF7D4FF02460498211825B18A
:100F500008B1084600E020462860049800280DD01B
:100F6000002A02DD0098884208D0081B0094CDE9D1
:100F700001043246694604A8FFF7BAFF06B070BD07
:100F8000F10800080F090008B50B00087F2801D9F7
:100F9000002208E0064A02EB5002C007127800D196
:100FA000120902F00F020120904008407047000033
:100FB000587A00082DE9FF4F087883B09946FF283A
:100FC00005D0491C2D2804D00024002008E0002072
:100FD0000BE00124F9E700EB800003EB4000491C23
:100FE0000B78FF2BF7D104B1404200230293147811
:100FF00019461D462D2C01D02B2C04D1521C2D2C12
:1010000013D000240294AA461478FF2C0FD00A258E
:10101000A3FB057801FB05814FF0000C03FB0C11CD
:10102000521CE3194AEB0101EEE70124EAE781448F
:1010300053EA010002D019F5C87F06DA03980021AF
:10104000C0E9001107B0BDE8F08F0025AE4E2F4675
:10105000DFF8B882184600F05DF9CDE90001B9F17A
:10106000000002DAC9F1000400E004460023A74AA8
:101070001AEB030B42EB045A12E0E00707D02A46B2
:10108000334638464146FFF77CFA074688462A46EB
:10109000334610461946FFF774FA05460E466410AB
:1010A000002CEAD1DDE90001B9F1000F5A465346A0
:1010B00006DAFFF7D8FA3A464346FFF7D4FA05E0D6
:1010C000FFF75FFA3A464346FFF75BFA029A0AB126
:1010D00081F00041039AC2E90001B3E72DE9FF4F17
:1010E0001F468DB0D7E901464FF0FF382E20454608
:1010F0004FF000090B90B9696D1C0E988847396A4A
:10110000824688470028F6D1BAF1FF3F0AD024F47E
:10111000D064002E11DDBAF12B0F08D0BAF12D0FDB
:101120000BD102E0404611B08DE744F48064B96908
:101130006D1C0E9888478246761E6946600501D56B
:101140002D2000E02B208DF8000001F1010B0DF1A6
:10115000200809E0B9696D1C0E98884782460F98EF
:1011600044F40074761E0560002E02DDBAF1300FE3
:10117000F0D00B998A453ED144F0800406E00F99E7
:10118000681CA9F1010944F400740860B9696D1C78
:10119000761E0E98884782463028F0D02BE00B99B7
:1011A0008A4505D1200603D444F08004761E18E059
:1011B000504604F061FA08B30DF11301761E44F4B1
:1011C00000748B4508D2AAF130000BF8010B200601
:1011D00007D5A9F1010003E0200602D409F10100BE
:1011E0008146A00502D50F99681C0860B9696D1C7D
:1011F0000E9888478246002ED1DC53E0002E51DD48
:10120000BAF1650F02D0BAF1450F4BD1A00549D50F
:10121000B9696D1C24F44074761E0E988847824686
:10122000002E0CDD2B2804D0BAF12D0F07D144F489
:101230008074B9696D1C0E9888478246761EE00559
:1012400001D52D2100E02B2108F8011BCDF82C80C1
:1012500021E00DF12901761E44F4007488450CD27A
:10126000AAF1300010F0FF0088F8000002D10B99BD
:10127000884509D908F1010806E0E00501D52448B0
:1012800001E042F20F708146B9696D1C0E988847E3
:1012900082460F980560002E04DD504604F0ECF9FC
:1012A0000028D6D1F9690E988847FF208BF80000F6
:1012B00088F800000020069007904B466A4608A96F
:1012C00006A8FFF777FEA00502D46FF001002AE719
:1012D00014F0240F0AD0E00714D1DDE906123868B3
:1012E000031D3B600068C0E900120BE0DDE9060168
:1012F000FFF7A8FA0146E00704D13868021D3A60FA
:101300000068016028460EE7000014400000F03F2E
:10131000F1D8FFFF0EB540F2334202920022CDE930
:1013200000221346FFF757FB03B000BD30B58C1801
:1013300010F8012B12F00F0301D110F8013B120934
:1013400006D110F8012B03E010F8015B01F8015BF6
:101350005B1EF9D101E001F8013B521EFBD1A14215
:10136000E6D3002030BD000070B501F0F5FB414D23
:101370006868C0F3801000287AD04FF0A046B168AA
:101380003D480140091DB160A9680140091DA960DF
:101390009FED3A0A00F088FE306C394C6081286C71
:1013A000A0800921304601F074FC208040F20F112A
:1013B000304601F06EFCE08040F21521304601F02D
:1013C00068FC20810921284601F063FC60802288A6
:1013D000216CDFED2C0A891A00EE101AB8EEC00A53
:1013E00020EE200A84ED050A616CB1EE400A081A6D
:1013F00001EE100AB8EEC11A61EE200A9FED231A21
:10140000C4ED060A30EE600ADFED1F0A84ED070A1C
:1014100094ED040AA08820EE200A00EE900AF8EE6F
:10142000600A60EE810A9FED1A1A00EE810A84EDCF
:10143000040A2089FFF797F99FED161B53EC112B37
:10144000FFF79FF89FED151B53EC112BFFF799F851
:10145000FFF7F8F9E06401F071FA402028601148C4
:101460004168FA2902D14FF0FF314160491C4160C7
:1014700070BD000000010050C0FFFF7FACC52738E1
:1014800030020020FFFFA43C6666663FCDCCCC3D19
:10149000CDCC7A3C6666666666660A40000000004F
:1014A0000000303F0000002010B503F0C9FB0249E6
:1014B0000020487010BD0000000100202DE9F0411F
:1014C0009B4D04462DED028B6878002839D0A86822
:1014D00002F094FF052834D302F096FFA86095F837
:1014E00001E09FED948A022693480021BEF1010F8E
:1014F0002BD00123DFED918ADFF844C2DA02914F4D
:10150000BEF1020F5DD0BEF1030F7DD0BEF1040F1E
:1015100017D10C466960D7F800102046B6EE000AD5
:1015200001EB8006401CD6ED000A904260EE800A76
:10153000C6ED000AF4DB68602B7083A001F04AF866
:101540006C70BDEC028BBDE8F0816E6185ED038AA5
:10155000296190ED000A0F46FDEEC00AF8EEE00AA0
:1015600030EE600A10EE100AFFF729F99FED771BA5
:1015700053EC112BFEF75EFFFFF764F900EE100A43
:10158000744910EE100ADFED740A884204DD94ED10
:10159000000A30EE600A08E010EE100A6F49884237
:1015A00006D994ED000A30EE200A84ED000AC8E75F
:1015B000D4ED000A30EEC00A84ED000A6F606E7050
:1015C000BFE794ED000AD0ED000A9CED5E1A70EEC4
:1015D000600AF0EEE00AF4EEC10AF1EE10FAB0D2C1
:1015E000D0ED080A9CED5F1AF0EEE00AF4EEC10AB5
:1015F000F1EE10FAA5D26869022840D00028A0D1E7
:101600002961B5EEC00A00E03BE0F1EE10FA1BDB09
:101610006868904218DA00F097FB3868696800EB58
:10162000810080ED000A00F08FFB10EE100AFFF73A
:10163000C6F841EC100B4AA053EC102B696803F07C
:101640001FFB6868401C686004F092FE85ED038A09
:1016500094ED000A454930EE280A84ED000A6E61D7
:1016600094ED000A10EE100A8842A0DB686830EEA4
:10167000680A401E686084ED000A032056E06B6132
:101680005FE794ED000AD0ED000A9CED5E1A70EE63
:10169000600AF0EEE00AF4EEC10AF1EE10FA86D22A
:1016A000D0ED080A9CED5F1AF0EEE00AF4EEC10AF4
:1016B000F1EE10FA84D268690228E0D00028DFD168
:1016C00010EE100A2961B0F17E5F1FDC6868002807
:1016D0001CDB00F039FB3868696800EB8100D0ED55
:1016E000000A30EE200A80ED000A00F02DFB10EE1B
:1016F000100AFFF764F841EC100B1DA053EC102BFF
:10170000696803F0BDFA6868401E686004F030FE46
:1017100085ED038A94ED000A184930EE680A84EDDD
:10172000000A6E6120688842AAD90420687008E720
:1017300000010020000000005C0100200000003AD1
:10174000A4020020B0000020310000009A9999996D
:101750009999B93F6F12833A6F12833A6F1283BA25
:10176000462025642025660A0D000000CDCC8C3F64
:10177000422025642025660A0D000000CDCCCCBD9A
:1017800010B5044C0020207003F05AFA012060705C
:1017900010BD00000001002000F032FDFEE7000057
:1017A00070B5094C00252570606801F06FF965601F
:1017B00003F0E6F9054C18B103F042FA257070BD4C
:1017C0000120207070BD0000B40000200001002046
:1017D0002DE9F05F2DED068BFE4CA26800EE102A7D
:1017E000B8EE400ADFEDFC0A2146002620EE208AF2
:1017F00091F800C010274FF0020B4FF00108DFED09
:10180000F75A9FEDF74A2C31F6EE004A4FF0804927
:10181000F2EE048A9FEDF35A9FEDF3AADFEDF39AFF
:10182000F34B93ED5B2AD3ED043A93ED5C0A234628
:1018300022EE233AD3ED061AF1EE402A9FEDED1A7F
:101840002433ED4DD3ED000ABCF1110F13D2DFE8C4
:101850000CF01209133C45557D9CA5BACDFEF1F064
:10186000EFEEED00DB48A660243080ED001A00F0BA
:101870006DFD84F800B02FE2D0ED071AD54972EE65
:10188000611A24319FEDDD2A41EE820AC1ED000A82
:10189000F4EEC00AF1EE10FA04DCF4EEE20AF1EE26
:1018A00010FA04D200F046FE84F80180BCE090ED0E
:1018B000040AF0EE651A04F06BFAD149A068884278
:1018C000D9D300F037FE03203EE080EE820AC848FC
:1018D00020EE040A80ED040A042035E0BD48A6602D
:1018E00024302661C0ED002A80ED010A81ED001A46
:1018F00081ED011A00F02AFD052025E0032ABAD364
:10190000A660227CD0ED070A02F0010201EB820101
:10191000F0EE651A91ED000A30EE200A81ED000A22
:10192000AC4990ED040A243101EB8201D1ED000AAB
:1019300004F02EFA206942F21071401C20618842A6
:1019400099DB00F0F7FD06202070C5E1D1EC020A1A
:1019500030EEC11ADFEDAB1AA548C1EE210A80EEC8
:10196000201A21EE040A80ED050A83EE801AD0EDDC
:10197000620AF8EEE00A60EE800AC0ED080A21EE85
:10198000200A80ED090A0720DEE79248A66024308D
:1019900080ED003A00F0DAFC0820D5E720EE880A56
:1019A000F0EE411A60EE240A90ED040A04F0F0F91A
:1019B00018EE100A4845C8DB95ED000A092084EDB1
:1019C000070AA660C0E768EE281A90ED040A04F042
:1019D000DFF918EE100A8C498842B6DB95ED000A53
:1019E00084ED080A00F0A6FD0A20ADE7D4ED088AD0
:1019F00094ED078AB0EE001A38EEC80AF0EEC00A7D
:101A000081EE200A10EE100AFEF7D9FE41EC100B11
:101A100003F002FC51EC100BFEF7B2FE74491428DF
:101A2000C86009DD84F801B0277055E14DE1F2E0AE
:101A30007CE02BE019E00AE0F4EEC88AF1EE10FA3F
:101A400001DD0E6601E0C1F860800B207CE72661B5
:101A5000604884ED051A84ED061A2430A66080EDF6
:101A6000003A00F073FC0C206EE720EE880A60EE6E
:101A7000240A90ED040A04F08BF918EE100A484588
:101A8000D3DBA660E868E0600D205DE771EE851AA3
:101A9000B0EE419AC4ED061A90ED040A04F078F90C
:101AA000D4ED050AB4EEE08AF1EE10FA29DD94EDEA
:101AB000060A4F4920EE0A1A91ED030AB8EEC00A51
:101AC000DFED521AEA68636820EE210AC1EE001ABF
:101AD000BDEEE10A10EE100A30EEA90A101AC20F8C
:101AE000C2EBC2320244206943F8202084ED050A8B
:101AF000C9684FF0FF3202EBC111814201DB401C8B
:101B000020613B4890ED030AB8EEC00ADFED3F0AC2
:101B100020EE200AC0EE280AF4EEC80AF1EE10FA10
:101B200076D884ED059A0E20A6600DE771EEC51AF1
:101B3000C4ED061A90ED040A04F02AF9D4ED050A62
:101B4000B4EEE08AF1EE10FA2ADD2069002827DDE4
:101B500094ED060A2649DFED2D1A20EE0A1A91EDC2
:101B6000030AEA68B8EEC00A20EE210AC1EE001AA4
:101B7000BDEEE10A10EE101A30EEA90A511ACA0F92
:101B8000C2EBC2320A44616851F820301A4402EBB9
:101B9000D272521041F82020401E206184ED050AC7
:101BA0001348DFED1A0A90ED030AB8EEC00A20EEE2
:101BB000200AC0EE280AF4EEC80AF1EE10FA27D87F
:101BC000E868E168084400EBD0704010E06000F085
:101BD000B1FC1EE0B4000020ACC52738920A864054
:101BE000ABAA2A3F17B7D13900FEFF467CD9A03BEC
:101BF000A4020020000000005C01002017B751394A
:101C0000F8240100CCCC4C3E7CD9A03FDB0FC9406E
:101C100062E00F2098E63448002211466368C568E8
:101C200004E000BF53F82160491C3244B1EBC51FEA
:101C3000F8DBE90192FBF1F14166E16847F6FF72DA
:101C4000C90191FBF2F1802500228E46E1606942D4
:101C50009A4601EBD17905EBD57C00274FEA690361
:101C600019E0C66806FB02F1C9014FEAE17801EB11
:101C7000586113EBE11102D501EBC61107E04FF0FB
:101C8000FF3808EBC618884501DA7642F4E75AF8BF
:101C900021105B1C0F44B3EB6C0FE2DB97FBF5F3F9
:101CA0000EEB02017F2900DD8039B0F8646000EBA3
:101CB00041019B1B521CA1F86830802ACDDBC0F883
:101CC00068B10AA000F086FC06E0617808A002F086
:101CD000D7FFFFF765FD2670A068401CA060BDEC33
:101CE000068BBDE8F09F0000A40200203100000038
:101CF00043616C6962204572726F722025640A0D1F
:101D00000000000070B50C4D0024286820B10B497C
:101D10000C7000F0BBFE2C60094D686820B94FF4D0
:101D2000205000F0CDFE686006480466C0F86841A7
:101D30000120287070BD0000B000002000010020CC
:101D4000B4000020A4020020014890ED020A704770
:101D50007000002006484168042908D180680228E4
:101D600005D10448044980ED000A0120087070473D
:101D7000A4020020980200207000002016499FED68
:101D8000170A194AD1ED000A1649C0ED000A80ED84
:101D9000010A80ED020A1248C0ED030A80ED040A30
:101DA00080ED050A80ED080A91ED110A10EE101A77
:101DB000914201DB9FED0D0AF0EE000A20EE200AB1
:101DC000F5EE000A80ED070A20EE000A20EE200A58
:101DD00080ED060A704700005C0100200000000052
:101DE00070000020A40200200050C3450050C345ED
:101DF0001C214FF4405000F041B910B54FF480540D
:101E0000204600F03CF840F004012046BDE81040B8
:101E100000F034B910B54FF48054204600F02FF88C
:101E200020F004012046BDE8104000F027B970B54D
:101E300000F01EF805460A2002F0C0FA00F01BF878
:101E400004460A2002F0BAFAC5F30A01C4F30A00F4
:101E500000EAC12070BD00F029B80000034910203D
:101E60000969884300D0012070470000000800483D
:101E7000002000F004B84FF40060AFF3008038B5E4
:101E80004BF6EF61ADF800104FF09044102140F494
:101E90000040A1624FF47A72694604F045FE1020BA
:101EA000A061BDF80000C0F30A0038BD10B586B0CF
:101EB000002000F077F8142002F080FA012000F0F2
:101EC00071F8FFF795FF642002F078FA00240120F2
:101ED000CDE90140CDE90340034622462146204694
:101EE000009400F089F8642002F068FA0E220D21B7
:101EF000032000F09FF8642002F060FA0E230C2209
:101F00000321012000F09FF8642002F057FA03201B
:101F100001940294CDE903400346002201211046BA
:101F2000009400F04BF8642002F048FA0F200122E0
:101F3000009003231146002000F090F8642002F086
:101F40003DFA4FF48050FFF79AFF641E24281FD1FA
:101F50004FF4C050FFF793FFA0F54071DE3917D161
:101F60004FF40050FFF78BFFA0F5E061CE390FD1A1
:101F70004FF44050FFF783FFA0F50071C33907D13C
:101F80004FF42050FFF77BFFA0F580717F3902D01E
:101F9000204606B010BD024800F0FCFA0020F8E729
:101FA0003002002000284FF090414FF0080001D08F
:101FB000886100E08862022002F0F5B9F0B4800286
:101FC000DDE9044540EA412040EA0220DDE90667F8
:101FD00040EA831040EA441040EA051040EAC60097
:101FE00040EA8700DDF820C0F0BC40EA0C0081B276
:101FF0004FF4405000F042B8F0B44002DDE904452F
:1020000040EA012040EAC210DDE9066740EA4310D9
:1020100040EA041040EAC50040EA860040EA470072
:10202000DDF820C0F0BC40EA0C0081B24FF48050D3
:1020300000F024B8000240EA0110104381B24FF4CE
:10204000C05000F01BB8800240EA012040EA0210B4
:10205000184381B24FF4005000F010B830B4800241
:1020600040EA012040EA8210029C40EA031020432B
:1020700081B230BC4FF42050AFF3008038B5024637
:10208000C1F30A004BF6EF611043ADF800104FF0BA
:1020900090441021A1624FF47A72694604F044FD25
:1020A0001020A06138BD704730B504F045FE4100F6
:1020B00000EE901A4B4CF8EEE00A9FED4B1A60EEE2
:1020C000810ADFED4A1A4A4DE06080EEA11A84EDE4
:1020D000061A696E411A00EE901AB8EEE02AD5EDA4
:1020E000030AF8EEE00A22EE202AC2EE210AFDEEF3
:1020F000E01AF8EEE11A70EEE10ADFED3E1A60EE4A
:10210000A10AC4ED070AF5EEC00AF1EE10FA01D2F9
:1021100070EEA10AC4ED070A6169401AB0F5804F5C
:1021200002DBA068401E04E010F5804F02DCA068CE
:10213000401CA06081EE212AD4ED020A5FF001006C
:10214000F8EEE00A32EE202A84ED002AD4ED010AEE
:1021500084ED012A72EE600A80EE801AF0EE410AE8
:10216000C0F1270104EB810191ED0D2AC0F1280196
:1021700004EB810172EE200A401C81ED0D2A282813
:10218000EEDB84ED0D1A9FED1C1A80EE812A84EDA2
:10219000082A04F0F1FD94ED081AB7EE002ADFEDED
:1021A000170A22EE011AD4ED0B2A22EE000A00EEE5
:1021B000A21A84ED081A94ED0C2A61EE211A00EEA1
:1021C000820A84ED0A0AD5ED030AF8EEE00A61EE10
:1021D000A00AC4ED090AE068606184ED0B1A84ED81
:1021E0000C0A30BD5C010020DB0F494000FEFF46B9
:1021F000A4020020DB0FC9400000204200000000C4
:1022000072B600F097F9FEE72DE9F0410F46064659
:1022100004F0D6F8002856D12C4C21688905216895
:102220000DD521F4007121602168490505D521688B
:1022300021F48061216003250AE0012508E04905B9
:1022400005D5216821F480612160022500E0002588
:10225000374416E06069F1B220F4FC7040EAC10036
:102260006061606940F002006061606940F4803044
:10227000606104F0A5F8616921F4FD71616110B934
:10228000761CB742E6D8012D01D0032D0BD1216871
:1022900041F400612160216821F40061216021681E
:1022A00041F400712160022D01D0032D0BD1216872
:1022B00041F480512160216821F48051216021681E
:1022C00041F480612160BDE8F081000000200240FF
:1022D00005494FF0FF304A6942F000424A614969BE
:1022E000002900DA00207047002002402DE9F0416B
:1022F00016461F46054604F063F800280ED1084C28
:10230000606940F0010060612E60BFF36F8F6F6005
:1023100004F056F8616921F001016161BDE8F081C6
:1023200000200240064900204A69002A07DA054ACF
:102330008A60054A8A604969002900DA401E7047B0
:102340000020024023016745AB89EFCD10B5EFF3C4
:10235000108472B601F078FFFFF75CFD024901209E
:10236000087084F3108810BD1800002030B50446B2
:102370002DED068BF0EE61AA04F1140289B0F0EEA7
:10238000411AF0EE608AB0EE408A92EC030A01A98D
:10239000684603F0E7FD9DEC020A05A904A8B0EE2B
:1023A000611A04F043FAD4ED0B0A9FED590A9DED32
:1023B000041A60EE801ADFED570A574D78EE419A05
:1023C00041EE201AC4ED0B1AD4ED0C1A61EE801AFE
:1023D0009DED050A40EE201A38EEC0AAC4ED0C1A95
:1023E000D5ED080A94ED0E0A94ED0F9A00EEA90AB5
:1023F00000EE8A9AD4ED040A9FED481AF7EE001A0F
:1024000020EE811AC1EE810A60EE808A20EE898A70
:1024100028EEA80A08EE080A02F06EFFF0EE400A65
:102420009FED3F1A81EE200A10EE100AB0F17E5F98
:1024300012DA68EE808A28EE008AD4ED0E0A9FED4B
:10244000390A60EE800AC4ED0E0AD4ED0F0A20EEC0
:10245000800A84ED0F0A15E095ED091A9FED320A06
:10246000D4ED0E0A21EE001A49EE810AC4ED0E0ADF
:1024700095ED091AD4ED0F0A21EE000A4AEE000A82
:10248000C4ED0F0A94ED0B0AD4ED0C0A03A920EE5B
:10249000280A02A8B0EE6A1A08EE200AF0EE480AEE
:1024A00084ED0D0AB0EE680A04F004F808AA07A942
:1024B00006A8DDED030A9DED020A04F067FBDDEDE1
:1024C000060A9FED1A0A1A4960EE800AFCEEE00A3D
:1024D00010EE900A80B20860DDED070A091F60EE79
:1024E000800AFCEEE00A10EE900A80B20860DDED92
:1024F000080A091F20EE800ABCEEC00A10EE100A7E
:1025000080B2086009B0B0EE490ABDEC068B30BD60
:102510003333733FCDCC4C3DA4020020ABAA2A3FFD
:10252000AC5C313FA4707D3FACC52738008054457A
:102530003C2C014010B5EFF3108472B6FFF75DFC40
:1025400001F072FE02490020087084F3108810BD6B
:10255000180000200C4A40F2A4611160121F1160A3
:10256000121F11600A499FED090A81ED080A81EDE9
:10257000090A81ED0A0A80ED0B0A80ED0C0A80ED54
:102580000E0A80ED0F0A70473C2C0140000000004D
:10259000300200202DE9F041002704463E464FF46A
:1025A0007A783D46642001F009FF20886D1C0744BD
:1025B000608845450644F5DB97FBF8F0206496FB00
:1025C000F8F06064BDE8F0810148007870470000D1
:1025D0002C0000202DE9F14FAAA10098FDF790FEF4
:1025E0000027A94D00287DD0A8A10098FDF788FEFE
:1025F000A74C4FF00108A5F11006002873D0A5A143
:102600000098FDF77DFE4FF0020900286CD0A2A1D2
:102610000098FDF775FE4FF0030B00287ED09FA1B8
:102620000098FDF76DFE4FF0040A002877D09CA1BA
:102630000098FDF765FE002872D09AA10098FDF77A
:102640005FFE00286DD098A10098FDF759FE002884
:1026500068D096A10098FDF753FE00287ED094A183
:102660000098FDF74DFE002879D092A10098FDF763
:1026700047FE002874D090A10098FDF741FE002885
:102680006FD08EA10098FDF73BFE00286AD08CA188
:102690000098FDF735FE002874D08AA10098FDF758
:1026A0002FFE00286FD0884B88A1A3F10A02894829
:1026B000FDF734FE0021844802F03CFE824886ED9E
:1026C000030A85A10A38FDF71BFE844D00286FD050
:1026D0007D4883A10A38FDF713FE002869D081A147
:1026E000794802E041E042E04EE00A38FDF708FE9A
:1026F00000286FD074487CA10A38FDF701FE00283D
:1027000069D071487AA10A38FDF7FAFD00286FD028
:102710006D4879A10A38FDF7F3FD04E037E049E0A0
:102720004EE050E052E000287ED0674874A10A389D
:10273000FDF7E6FD002878D0634873A10A38FDF75D
:10274000DFFDA0B3604872A10A38FDF7D9FD00286B
:1027500003D196ED030A84ED660A04E038E03BE01D
:102760003DE03FE041E0BDE8F88F6F7008E0306881
:102770000028F2D1D4F868010028EED085F8018055
:10278000AF70EAE735E03FE085F80190F8E73068A0
:102790000028E2D1D4F868010028DED06068002863
:1027A000DBD1A0680228D8D185F801B0E8E763E062
:1027B00039E040E030680028CFD185F801A0DFE79C
:1027C000C4F80890C9E7C4F80880C6E7A760C4E762
:1027D0006760C2E734E03BE0C4F80480BDE7C4F8BA
:1027E0000490BAE7C4F804B0B7E7C4F804A0B4E7AB
:1027F00033E0D4F87401C0F10101C4F87411BDE8EC
:10280000F84F45A002F03CBA4FF0904202215069C7
:10281000814300F0020041EA00409061BDE8F84FBA
:1028200042A002F02DBA01E01CE020E096ED030A80
:1028300085ED020A91E796ED030A85ED010A8CE722
:1028400096ED030A85ED000ABDE8F84FFFF782BA5E
:1028500096ED030A84ED670A7FE796ED030A84ED9F
:10286000680A7AE796ED030A84ED690A75E796ED42
:10287000030A84ED640A70E796ED030A84ED650AA5
:102880006BE70000310000002C0000203200000047
:10289000A4020020330000003400000035000000D6
:1028A000700000007600000074000000610000006D
:1028B0007300000064000000660000006700000074
:1028C0007A0000006E0000008E0200202573202593
:1028D000730000004801002074696E009802002017
:1028E00076696E0070696E00706F73700000000092
:1028F000706F736900000000706F73640000000067
:1029000076656C700000000076656C690000000060
:1029100076656C6400000000616E7469636F6767C0
:10292000696E672025640D0A0000000064697373F6
:10293000706174696F6E0D0A000000002DE9F041AE
:10294000454D2DED028B68782978884207D003F039
:1029500019FDA87818B16878287003F0DBFC3E4CAC
:1029600028789FED3E8A3E4E3E4FDFF8FC80103CBB
:1029700005283CD2DFE800F06C0329032D003B481A
:1029800003F012FB96ED071AF0EE400A96ED090AE5
:102990009FED372AF0EE411A324840EE021AB0EEAF
:1029A000480AFFF7E3FC84ED020A96ED080AD8ED29
:1029B000170AB0EEC00AB4EEE00AF1EE10FA16DD26
:1029C000206840F08050206011E02648FEF700FFAC
:1029D0000DE0284803F09CFF2648D6ED071A97ED36
:1029E000040A90ED031AF0EE480A03F0D1F997EDCE
:1029F000040AD8ED160AB4EEE00AF1EE10FA03DB91
:102A0000216841F080412160D8ED150AB4EEE00A5A
:102A1000F1EE10FA03D8206840F000502060FFF774
:102A20001DFA20B1FFF703FA2168084320602068EF
:102A300020B1FFF77FFD00206870A87020686168F2
:102A4000884205D021680CA002F01AF92068606065
:102A5000BDEC028BBDE8F0812C00002000000000DE
:102A60005C01002030020020A40200209802002017
:102A700082A87B38743400204572726F7220436FD5
:102A800064653A2025580D0A0000000030B4002883
:102A900011D00A4A50F8041C0838D36819420AD0E9
:102AA0000468002C07D19943416053681944516070
:102AB00030BC03F007BF30BC70470000E8000020C6
:102AC0002DE9F041214E05460027306808B903F092
:102AD000D3FEF068054236D1ADB30835680704D09F
:102AE00005F00700C0F10800054465B37068854231
:102AF00029D81648103001460C6801E020460C46E3
:102B00006168A94202D221680029F7D131688C425C
:102B100019D007682168016060680837411B1029D7
:102B200004D960194160656003F0CCFE616870688B
:102B3000401A7060B268904200D2B060F068014301
:102B40000020C4E900013846BDE8F081E80000201B
:102B5000FFF756FBFEE7000010B5224C606801F05D
:102B60004DFC00283CD001F04FFC6060FFF72CFDCD
:102B700040F2DC514FF6FF7240B14FF496730128DA
:102B80000FD0022817D0042827D10AE0208810B1DE
:102B9000642802D01EE0012000E0002000F024F8AC
:102BA0001BE020880028F6D06428F6D0C828F2D090
:102BB0009842F2D00EE020880028ECD06428ECD0B7
:102BC000C828E8D09842E8D0B0F5C87FE3D0B0F587
:102BD000FA7FE2D0884200D322802088401C2080E7
:102BE00010BD0000A8000020044900284FF040005C
:102BF00001D0886170478862704700000004004877
:102C000030B54FF0A0444B68A46800220E4D04F08C
:102C10000104AD6805F001052C4302D001221046E5
:102C200030BD0A4D53B10C681C43D1E902310B434E
:102C300081681C4329400C438460F0E7836809687D
:102C40002B400B438360EAE700010050E030C0FFF7
:102C500010B54B688468002214F0010F02D00122E5
:102C6000104610BD33B1D1E902342343C46824F0C7
:102C7000047403E0C368CC6823F004732343C36087
:102C8000D1E900310B43C16C6FF308010B43C364FE
:102C9000E6E70C2202EA91110844D0F8800080B2E5
:102CA000704710B5C36C01F01F011F248C40C2F3A4
:102CB0008462A3438A401343C36410BD30B5836864
:102CC000002213F0010F02D00122104630BDD1E9DD
:102CD000003423438968C4684CF21805AC4321438F
:102CE0000B43C360F1E7000070B54C6883680022B5
:102CF00013F0010F02D00122104670BD002C0E4BC4
:102D00000C6807D08D682C43D1E9035635432C431A
:102D10004D6904E0CD682C43D1E9045635432C437A
:102D2000C5681D402C43C4604968036B23F00F0342
:102D30000B430363E0E700001CC0F0FF0C2303EA31
:102D4000911310B51844036B01F01F011F248C4030
:102D5000C2F38462A3438A401343036310BD042378
:102D600003EAD15310B518444369C1F30451072451
:102D70008C40A3438A401343436110BD10B550F803
:102D8000B03FC1F31204A34302F01804024AE24028
:102D90000A401343036010BDFFFF0700D0F8C020B6
:102DA0006FF30D020A43C0F8C020026922F480329A
:102DB00001B1012142EA0141016170478268044B7F
:102DC00001F080411A400A4342F00041816070479F
:102DD000C0FFFF3F044908B5CA6C0243CA64C96C0E
:102DE0000140009108BD000000100240044908B5F0
:102DF000CA6C0243CA64C96C0140009108BD00005E
:102E000000100240044908B5CA6C0243CA64C96C88
:102E10000140009108BD000000100240F0B50A68B2
:102E20000F2692FAA2F2B2FA82F303248AE0012575
:102E30009D402A407ED04D68012D01D0022D20D129
:102E40008D68876892FAA2FCBCFA8CFC4FEA4C0EA3
:102E500004FA0EFC27EA0C0792FAA2FCBCFA8CFCDE
:102E60004FEA4C0C05FA0CF52F438760CF680D68CC
:102E7000D0F804C02CEA050C7D434CEA050CC0F8E0
:102E800004C00F69D0F80CC092FAA2F5B5FA85F526
:102E90004FEA450E04FA0EF52CEA050C92FAA2F55B
:102EA000B5FA85F56D00AF404CEA070CC0F80CC0D0
:102EB0004D68022D2FD1FF2A15D8D1F814C0056A0C
:102EC00092FAA2F7B7FA87F7BF0006FA07F7BD43F1
:102ED00092FAA2F7B7FA87F7BF000CFA07FC45EAA7
:102EE0000C05056217E0D1F814E0476A150A95FA57
:102EF000A5FCBCFA8CFC4FEA8C0C06FA0CFC95FA8B
:102F0000A5F5B5FA85F5AD0027EA0C070EFA05FE22
:102F100047EA0E0747624D68076892FAA2FCBCFABE
:102F20008CFC4FEA4C0C04FA0CFE27EA0E0792FACE
:102F3000A2F200E005E0B2FA82F2520095402F437F
:102F400007605B1C0A6832FA03F57FF470AF00205B
:102F5000F0BD4FF47A71B0FBF1F14FF0E020491E63
:102F600041610021816105210161704710B5002494
:102F7000C02823D11248D0F8880000F0C00040F4E7
:102F800040004038B0F540000AD040280CD08028DE
:102F90000FD001F0A9F901F077F901F085F901E00E
:102FA00001F0A2F9044609E000F068F830B1054CE0
:102FB00004E000F06BF808B14FF40044204610BD67
:102FC000001002400024F40070B5002429492A4D65
:102FD0004FF40046032804D00C281AD030282FD0F4
:102FE00040E0D1F888006FF4403100F0030040F475
:102FF000403040180AD0012836D002282ED001F0E7
:1030000073F901F041F901F05FF917E001F06CF993
:1030100014E0D1F8880000F00C0040F44020001FBC
:10302000B0F54020F2D004281ED0082816D000BFEA
:1030300001F05AF901F028F901F036F9044611E0DF
:10304000D1F8880000F0300040F440101038B0F59E
:103050004010DBD0102807D02028E9D100F016F866
:1030600000B13446204670BD00F008F80028F9D0C1
:103070002C46F7E7001002400024F40002480068E4
:10308000C0F3802070470000001002400248D0F8D2
:103090009000C0F3400070470010024003498A6866
:1030A00022F0F00202438A607047000000100240E4
:1030B00010B503680122C3F3801373BBD1E9002369
:1030C0001A43D1E9033423431A434B691A438B69EA
:1030D0001A43CB691A430B6A1A4303684FF6BF744D
:1030E000A3431A430260426840F604739A434B6953
:1030F00042EA13428B681A4342608A68B2F5006F55
:1031000003D2426842F4805242600A6AB2F5005F1C
:1031100002D1898C89B201610022C16921F4006168
:10312000C161104610BD00000149086070470000F1
:103130001000002030B50A7B8B681F4C1A434B6887
:1031400022F480621A430B6822F400621A43CB898E
:1031500022F480521A430B6922F400521A43CB6ABC
:1031600022F480421A4322F400421A43114B98423F
:1031700001D0A04207D14D6922F470222A438D6903
:1031800022F080522A43984201D0A0420FD14B6ACC
:1031900022F470021A43CB6922F080721A430B6A40
:1031A00022F000721A43896A22F000520A434264F4
:1031B000002030BD002C0140003401402DE9F043D7
:1031C0000268224B224D234E234C4FF080499842F7
:1031D00007D0484505D0A84203D0B04201D0A04254
:1031E00003D14F6822F070023A431C4FDFF870C0E1
:1031F000DFF8708098420DD048450BD0A84209D026
:10320000B04207D0A04205D0B84203D0604501D0FB
:10321000404503D1CD6822F440722A4302608A6897
:10322000C2620A888262984207D0A04205D0B842A2
:1032300003D0604501D0404501D10969016341696E
:1032400041F0010141610020BDE8F083002C014004
:1032500000040040000800400034014000400140EC
:103260000044014000480140012922D0042922D015
:10327000102922D0402922D0B1F5807F21D0B1F58C
:10328000806F20D0B1F5805F1FD0B1F5804F1ED088
:10329000B1F5803F1DD009210F4A1830525C10440F
:1032A00002680D4B0A335B5C042199408A4302603B
:1032B00070470021F0E70121EEE70221ECE703214E
:1032C000EAE70421E8E70521E6E70621E4E707212C
:1032D000E2E70821E0E70000B46D0008012922D0F0
:1032E000042922D0102922D0402922D0B1F5807F94
:1032F00021D0B1F5806F20D0B1F5805F1FD0B1F53E
:10330000804F1ED0B1F5803F1DD009210F4A1830E3
:10331000525C104402680D4B0A335B5C08219940F3
:103320000A43026070470021F0E70121EEE7022125
:10333000ECE70321EAE70421E8E70521E6E70621B7
:10334000E4E70721E2E70821E0E70000B46D0008A8
:103350002DE9F0478C460121BCF5805F25D009DCC2
:10336000BCF1010F14D0BCF1100F15D0BCF5807F5B
:1033700016D116E0424B434C434D444E444F4FF060
:103380000009BCF5803F14D0BCF5801F74D141E02A
:10339000114600F00FFE02E0114600F057FE014614
:1033A0006AE0114600F0A2FEF9E7114600F0ECFEDB
:1033B000F5E7016A21F480310162D0F820C0016D87
:1033C000DFF8D0802CF4003C01EA0801D2F800803C
:1033D000984241EA0801B2F810804CEA084CB2F871
:1033E00004802CF4803C4CEA084C07D0A04205D065
:1033F000A84203D0B04201D0B84206D143689469D4
:1034000023F4803343EA042343600165D168826C6E
:1034100081642EE0016A21F480110162D0F820C09D
:10342000016DDFF874802CF4001C01EA0801D2F869
:103430000080984241EA0821B2F810804CEA085C0A
:10344000B2F804802CF4801C4CEA085C07D0A0423F
:1034500005D0A84203D0B04201D0B84206D143689B
:10346000946923F4802343EA842343600165D1688F
:10347000C164C0F820C049460846BDE8F087000096
:10348000002C014000340140004001400044014054
:10349000004801408FFFFEFFFF8FFFFE2DE9F04146
:1034A000044600680D46012610F0010F4CD1296931
:1034B000A868EA69084369691143084321682B4AEF
:1034C000114008432060E868616821F440510143DD
:1034D0006160A869A16821F440710143A16024489A
:1034E000844201D1032008E02248844201D10C200B
:1034F00003E02148844203D13020FFF765FD05E059
:103500001E48844219D1C020FFF730FDA8B1696878
:1035100099B12A680026EB690B2A0ED8184FD2B24F
:10352000B3F5004F57F82220B0FBF2F00FD000EBBC
:103530005100B0FBF1F080B2E0602888E16A80B20F
:1035400021F00F010143E1623046BDE8F081400007
:1035500000EB5100B0FBF1F081B24FF6F07201EADE
:103560000200C1F342010843E6E70000F369FFEF00
:10357000003801400044004000480040004C00403A
:10358000C86D000870B598B00024149415941821E3
:1035900006A81694FCF7A9FE1194129413941094A3
:1035A0000C940D940E94182168460F94FCF79DFE20
:1035B0004FF40050FFF71AFC0420FFF717FC02201D
:1035C000FFF714FC04200325CDE900055D4E694694
:1035D00004943046FFF722FC0820CDE90005694637
:1035E00004943046FFF71AFC0226CDE900656946CF
:1035F00055480494FFF712FC544800680022C0F3B9
:103600000220012100F0BCFC0146122001F055FB14
:10361000122001F045FB4FF0A0451494159414A915
:1036200028461694FFF74AFB0694079408940994D9
:103630000A9406A928460B94FFF756FB002128465A
:10364000FFF7ACFB286940F20341884328614FF43F
:103650004030CDE9100410A93D48FFF7D1FA802091
:103660000C90CDE90D640CA928460F94FFF7F0FAF1
:10367000E8683849084040F00040E860E86C20F411
:10368000C07040F08000E864A86833490840A86032
:10369000A8683249084040F08050A860304831495D
:1036A0000068B0FBF1F000EB800080000A21B0FB65
:1036B000F1F000E0401E0028FCD12B4C06212246F0
:1036C0002846FFF73BFB012221462846FFF747FB30
:1036D0007F2221462846FFF751FB244C0921224630
:1036E0002846FFF7DEFA042221462846FFF737FB7B
:1036F0007F2221462846FFF741FB1D4C40F20F1167
:1037000022462846FFF7CDFA012221462846FFF738
:1037100026FB7F2221462846FFF730FB154C40F25E
:10372000152122462846FFF7BCFA012221462846E9
:10373000FFF715FB7F2221462846FFF71FFB18B035
:1037400070BD000000080048000400480CED00E0D7
:1037500000030050FFFFDF7FC0FFFF5FC0FFFF7F60
:1037600010000020400D0300000021C30010603253
:10377000000180210002B02570B594B0002510959D
:103780001195182106A81295FCF7AFFD0C950D9523
:103790000E95182168460F95FCF7A7FD4FF40050D1
:1037A000FFF724FB0420FFF721FB0220FFF71EFB9D
:1037B00020200324CDE90004694604955648FFF70C
:1037C0002DFB0420CDE90004694604955348FFF71A
:1037D00025FB534800680022C0F30220012100F0BD
:1037E000CFFB0146122001F068FA122001F058FACE
:1037F0004C4C1095119510A920461295FFF75EFAD2
:1038000006950795089509950A9506A920460B95F2
:10381000FFF76AFA00212046FFF7C0FA206940F25C
:103820000341884320618020CDE90C050E950CA949
:1038300020460F95FFF70CFAE0683B49084040F03E
:103840000040E060E06C20F4C07040F08000E06474
:10385000A06836490840A060A068354E304040F06E
:103860008050A060334834490068B0FBF1F000EBB1
:10387000800080000A21B0FBF1F000E0401E00282B
:10388000FCD12E4D06212A462046FFF757FA012289
:1038900029462046FFF763FA7F2229462046FFF794
:1038A0006DFA274D09212A462046FFF7FAF904222E
:1038B00029462046FFF753FA7F2229462046FFF784
:1038C0005DFA0A2000F06FFD4FF0A0457F212846E9
:1038D000FFF774FAA868C00FFCD17F212046FFF7DC
:1038E0006DFAA068C00FFCD1A8683040401CA860E9
:1038F000A0683040401CA060606840F040006060FC
:10390000A868304040F00800A860A068304040F04F
:103910000800A06014B070BD000800480004004812
:103920000CED00E000010050FFFFDF7FC0FFFF5FF4
:10393000C0FFFF7F10000020400D03000008302E64
:10394000001060322DE9F04387B018216846FCF77B
:10395000CCFC2020FFF73EFA0420FFF73BFA0120C1
:10396000FFF738FA0220FFF735FA4FF090460220B1
:10397000B0620820B062284F4FF48059C7F82890F1
:103980004020B8621020B06100240125CDE9005428
:10399000694630460494FFF741FA02200090CDE9D1
:1039A00001540394694630460494FFF737FA08201F
:1039B0000090CDE901540394694630460494FFF722
:1039C0002DFA4FF01008CDF80080CDE90154039492
:1039D000694630460494FFF721FACDE90084694630
:1039E0000E480495FFF71AFACDF80090CDE901547E
:1039F0000394694638460494FFF710FA402000907B
:103A0000CDE901540394694638460494FFF706FA59
:103A100007B0BDE8F083000000040048000800483B
:103A20002DE9F04192B0282106A8FCF75EFC182190
:103A30006846FCF75AFC2B48016E41F48051016640
:103A4000006E00F4805010900120FFF7DBF9202772
:103A5000022500240097CDE901540526CDE904464E
:103A60004FF09048694640460394FFF7D7F940204D
:103A70000090CDE90154CDE90446694640460394DF
:103A8000FFF7CCF980200090CDE90154CDE9044640
:103A9000694640460394FFF7C1F94FF48270CDE9BF
:103AA00006404FF47060CDE9080401200A904002FE
:103AB0000B900720CDE90C74CDE90E400A4C06A905
:103AC0002046FFF7F5FA606820F01000606060683B
:103AD00020F008006060206840F04000206012B0D4
:103AE000BDE8F08100100240003001402DE9F041B6
:103AF00092B0282106A8FCF7F8FB18216846FCF7CD
:103B0000F4FB2C484FF48048816D41F4804181657D
:103B1000806D00F4804010900220FFF773F90225B9
:103B20004FF40050CDE9000500240526CDE90254EC
:103B3000214FCDE9044669463846FFF76FF9CDE9D4
:103B40000085CDE90254CDE9044669463846FFF7C1
:103B500065F9A803CDE90005CDE90254CDE9044695
:103B600069463846FFF75AF94FF48270CDE90640AE
:103B70004FF47060CDE9080401200A9040020B90D8
:103B80001820CDE90C040720CDE90E400B4C06A906
:103B90002046FFF78DFA606820F0100060606068D2
:103BA00020F008006060206840F04000206012B003
:103BB000BDE8F081001002400004004800380040D9
:103BC0002DE9F043A1B014211AA8FCF78EFB2021A7
:103BD00006A8FCF78AFB30210EA8FCF786FB18210B
:103BE0006846FCF782FB614E4FF40069306E40F48A
:103BF00000603066306E002400F400601F904020AA
:103C00001B9040F64850CDE91C040120584D1E90F1
:103C1000ADF868401AA92846FFF7D0FA286840F0A6
:103C20008000286001212846FFF758FB6020CDE97D
:103C3000060440F2A460CDE908400A940B940C9469
:103C400006AA012128460D94FFF782FB0121284690
:103C5000FFF70AFB10212846FFF740FB06AA1021B8
:103C60002846FFF775FB10212846FFF7FDFAAF1530
:103C700039462846FFF732FB06AA39462846FFF7A1
:103C800067FB39462846FFF7EFFA4FF48058414664
:103C90002846FFF723FB40F63E50099006AA41460E
:103CA0002846FFF755FB41462846FFF7DDFA6868CE
:103CB0003049084040F070006860686820F4700087
:103CC0006860A86820F08000A8600E946814CDE9B0
:103CD00012040F948DF844401094ADF84640000350
:103CE0001494CDE91540179418940EA928461994F8
:103CF000FFF720FAF06C40F00100F064F06C0097E0
:103D000000F001001F900225CDE901540626CDE9FF
:103D100004464FF09047694638460394FFF77EF813
:103D200028020090CDE90154CDE9044669463846A1
:103D30000394FFF773F868020090CDE90154CDE9D0
:103D40000446694638460394FFF768F8CDF80090BA
:103D5000CDE901540B20CDE904406946039438466F
:103D6000FFF75CF821B0BDE8F083000000100240CE
:103D7000002C01408FFFFFFD10B586B0142168466E
:103D8000FCF7B3FA2748816D41F002018165806D2F
:103D900000F00200059024480068C0F30220C0F142
:103DA0000701042900D90421021D072A01D200209D
:103DB00000E0C01E01228A40521E02F00401814030
:103DC0001A4A0020090182F800144FF0E0224FF057
:103DD0000051C2F80011ADF8000048F2D041CDE921
:103DE0000101134C039069462046FFF7E7F920686C
:103DF00020F080002060A0680E490840A060606844
:103E00000D4908406060A06820F08000A060E06874
:103E100040F00100E060206840F00100206006B042
:103E200010BD0000001002400CED00E01DE000E0BD
:103E300000040040F8BFFEFF8FFFFFFD2DE9F041B9
:103E400090B0202106A8FCF750FA18216846FCF72C
:103E50004CFA4348816D41F400318165816D01F474
:103E600000310E91C16C41F00201C164C06C0224AA
:103E700000F002000E9008200025CDE90004032781
:103E80000726CDE90275DFF8DC80CDE904566946E6
:103E90004046FEF7C3FF10208DE8910001240596EF
:103EA000CDE9035469464046FEF7B8FF2E48006846
:103EB000C0F30220C0F10701042900D90421021D2A
:103EC000072A01D2002000E0C01E8C40641E04F0CE
:103ED000030181400801254981F80004234940205D
:103EE0002239C1F800014FF4E130CDE906500C2031
:103EF000CDE90A501E4C089509950C9506A9204657
:103F00000D95FFF7CBFAA06865F35F70A060A0681D
:103F100020F06060A060206820F0005020606068A1
:103F200020F490406060A06820F02A00A060206823
:103F300040F001002060E069C0F340500028FAD052
:103F4000E069C0F380500028F5D0206840F02000E0
:103F50002060206840F01000206010B0BDE8F081C3
:103F600000100240000400480CED00E026E000E0F4
:103F700000440040FEF744F9FEE7FEF741F9FEE792
:103F800030B500F00703C3F10704042C00D9042462
:103F9000181D072801D2002300E0DB1E012505FAC9
:103FA00004F0401E084098409D406D1E1540284377
:103FB00030BD000030B5026A22F001020262036ADD
:103FC000446882691B4D22F003022A400D6823F0E9
:103FD00002032A430D692B434D6823F001032B4351
:103FE000154DA8420BD0154DA84208D0144DA8423B
:103FF00005D0144DA84202D0134DA84212D14D69EC
:1040000023F0080343EA85038D6823F0040343EAA1
:1040100085038D6924F480742C43CD6924F40074E5
:1040200044EA450444608261C96841630362002038
:1040300030BD00008FFFFEFF002C01400034014026
:1040400000400140004401400048014030B5026A90
:1040500022F010020262056A426883691D4C23F453
:10406000407323400C6843EA042425F020030D69C3
:1040700043EA05134D6823F0100343EA0513164D78
:10408000A8420BD0154DA84208D0154DA84205D026
:10409000144DA84202D0144DA84213D14D6923F00B
:1040A000800343EA85138D6823F0400343EA8513B8
:1040B0008D6922F4806242EA8502CD6922F40062B1
:1040C00042EAC50242608461C968816303620020DC
:1040D00030BD0000FF8FFFFE002C01400034014086
:1040E00000400140004401400048014030B5026AF0
:1040F00022F480720262046A4368C2691C4D22F095
:1041000003022A400D6824F400742A430D6944EA2E
:1041100005244D6824F4807444EA0524154DA84212
:104120000BD0154DA84208D0144DA84205D0144D0F
:10413000A84202D0134DA84213D14D6924F4006463
:1041400044EA85248D6824F4806444EA85248D69DA
:1041500023F4805343EA0513CD6923F4005343EA63
:1041600045134360C261C968C1630462002030BD69
:104170008FFFFEFF002C0140003401400040014051
:10418000004401400048014030B5026A22F48052E8
:104190000262056A4268C3691D4C23F440732340E0
:1041A0000C6843EA042425F400530D6943EA0533FF
:1041B0004D6823F4805343EA0533164DA8420BD0D3
:1041C000154DA84208D0154DA84205D0144DA8425F
:1041D00002D0144DA84213D14D6923F4004343EAA1
:1041E00085338D6823F4804343EA85338D6922F457
:1041F000804242EA8512CD6922F4004242EAC512A9
:104200004260C461C96801640362002030BD0000DF
:10421000FF8FFFFE002C01400034014000400140B0
:1042200000440140004801400648416C21F400412F
:1042300041646FF001010161026912F0010FFBD0CE
:1042400001617047002C01400D4940F2A4600860F4
:10425000091F0860091F086009486FF001013C3818
:104260000161026912F0010FFBD00161016A40F2A5
:10427000111211430162416C41F4004141647047E5
:104280003C2C01407047000005498968054A01F04F
:10429000F0010909515C01F01F01C840704700009E
:1042A00000100240F86D000805498968054A01F4CC
:1042B000E06102EB1121097801F01F01C84070474D
:1042C00000100240086E000805498968054A01F49B
:1042D000605102EBD121097801F01F01C8407047FD
:1042E00000100240086E00081549886800F00C03B1
:1042F0001448042B0DD04210082B09D00C2B08D1E8
:10430000CB6803F00303022B05D0032B03D101E09C
:10431000104670471046CA68C2F306224243C86876
:10432000C96800F0F003012000EB1313B2FBF3F2B5
:1043300001F0C06100EB51604000B2FBF0F070474B
:10434000001002400024F4000022144903E0521C33
:1043500092B2C82A17D88B68C3F34003002BF6D05B
:10436000C86000200E4A03E0401C80B2C8280AD86A
:104370009368C3F3C013002BF6D1002005E0401C66
:1043800080B2C82801D9002070478A6812F0010F56
:10439000F5D002480C30006880B270470038004009
:1043A00000300140704730B504464FF47A7502E0A2
:1043B000284600F003F8641EFAD230BDF0B54FF085
:1043C000E0240021A3690C4EAA25A269934202D9D8
:1043D000A3EB020303E003D2A6EB02073B4419441C
:1043E0001346B1FBF5F2824205D2801AB1FBF5F219
:1043F00005FB1211E9E7F0BD1098020001490968B8
:10440000081A704714000020014800687047000037
:10441000140000204FF0E0210F4848610F48006869
:10442000C0F30220C0F10702042A00D90422031DB0
:10443000072B01D2002000E0C01E012393405B1E29
:1044400003F002028240064B0020120183F8142D73
:1044500088610720086170470F9802000CED00E0AA
:104460000FE000E002480168491C0160704700004D
:104470001400002070B53648016821F00F0141F0AA
:1044800004010160016801F00F010429FAD13148EB
:1044900050F8801F21F4807101602F4C206840F497
:1044A000803020602068C0F340400028FAD0E168E6
:1044B00045F21350294A11400843E060E06840F09B
:1044C0008070E060206840F0807020602068C0F359
:1044D00040600028FAD0A06840F00300A06080206F
:1044E000FEF7DCFDA06800F00C000C28FAD11C4897
:1044F000016841F0807101601A48016841F00101D2
:1045000001600021416041686429FCD30020FEF76E
:10451000C5FDA06820F4E060A060A06820F46050B1
:10452000A060114D2846FEF714FD2846FEF7FCFD5D
:10453000D4F8880020F00C00C4F88800D4F8880073
:1045400020F0405040F00050C4F8880070BD0000DA
:104550000020024000700040001002400C80FFF973
:10456000FCED00E0001000E080FE210A0248016836
:1045700041F470010160704788ED00E02DE9F04FD3
:1045800076488FB0016911F0010F7DD06FF0010105
:104590000161734D0024287818B12C707148FEF722
:1045A00019F86F488068642873D16D48DFF8B8A1A6
:1045B0008460DAF86801022872D06948807814288B
:1045C0007ED06A48C06CFCF7FAF8064667480F468A
:1045D000806CFCF7F4F8044664480D46006DFCF767
:1045E000EEF8DFF88C81CDE90401D8F82000FCF763
:1045F000E6F8CDE90201D8F80000FCF7E0F8CDE9D3
:1046000000015A48C069FCF7DAF8824657488B46E1
:104610008069FCF7D4F88046544889464069FCF725
:10462000CEF841EC100B0AA853EC102B80E8F000F8
:10463000DDE90401CDE90801DDE90201CDE906016A
:10464000DDE90001CDE904018DE8000F49A000F08B
:1046500017FB43488178491C81704D480078A0B110
:104660003F4CE068B0F5006F13DA4A49096851F829
:104670002000FCF7A4F841EC100B47A053EC102BE2
:1046800000F0FEFAE06802E007E002E008E0401C0B
:10469000E06033488168491C81600FB0BDE8F08F4D
:1046A0005446DAF81000FCF78AF841EC100B3CA0F5
:1046B00053EC102B00F0E4FA6069FCF780F800E09E
:1046C00027E041EC100B3CA053EC102B00F0D8FA83
:1046D000606AFCF774F805460E46206AFCF76FF82E
:1046E00041EC100BCDE9005653EC102B38A000F034
:1046F000C7FA3BA0E16800F0C3FA3EA0216E00F0CB
:10470000BFFA42A0616E00F0BBFA0120C4F8680154
:10471000A3E71348DFF80C818470D8F80800FCF791
:104720004EF806460F46D8F80400FCF748F8044651
:104730000D46D8F80000FCF742F889468046FDF7A0
:1047400043FF02AA014682E8F000CDE90089DAE9D8
:10475000012335A000F094FA7BE70000000400403C
:104760000000002048010020A402002030020020A8
:104770005C0100206D202566202566202566202509
:10478000662025662025662025662025660D0A0000
:1047900000010020B0000020732025660D0A0000F3
:1047A00070686173655F726573697374616E636568
:1047B000203D2025660A0D0070686173655F696E93
:1047C00064756374616E6365203D2025660A0D0083
:1047D00050493A202566202025660A0D0000000079
:1047E000506F6C65207061697273203D2025640AEA
:1047F0000D000000456E636F64657220646972206D
:10480000726576203D2025640A0D0000456E636FB9
:10481000646572204F6666736574203D2025640AC6
:104820000D000000980200207120256420256420DE
:1048300025642025662025662025660D0A000000D7
:104840003349DFED320AB5EEC00AD1ED001A91ED21
:10485000021A3048F1EE10FA02D2C0ED001A16E04A
:1048600091ED062AF6EE002AB4EEC20AF1EE10FA35
:1048700013D2D1ED030A41EE001A20EEA22A60EE17
:10488000002A00EE801A42EE221AC0ED001A80EDD6
:10489000011A00BFC0ED020A704791ED071A32EE0F
:1048A000011AB4EEC01AF1EE10FA0ADD70EE421AE7
:1048B00091ED091A91ED040A00EE211A80ED001A1B
:1048C00017E0D0ED031A124AF4EEC01A92ED011A65
:1048D000F1EE10FA10DD30EE610AD1ED050A60EE5E
:1048E000A21A20EE002A20EE800A01EE821A80ED44
:1048F000001A80ED010ACDE7F4EEC01AF1EE10FACD
:10490000CAD880ED001AC0ED010AC3E7000000001C
:10491000180100205C34002010B52DED0A8BB0EE9C
:1049200062BAF0EE418AB0EE00CAB0EE609A68EE6C
:10493000A8BA6BEE0C0AF0EE40AA84B0B0EE42AA20
:104940008BEEA00AF0EE61CA7AEEC99A10EE100A58
:10495000FBF735FFCDE9020118EE900AFBF72FFFB8
:10496000CDE900010399019861F31E0003909DEDCC
:10497000020B51EC100BFBF765FF00EE100A39EE4D
:10498000C00A10EE100A002802DABFEE008A01E029
:10499000B7EE008A5F4C28EE0A0A28EE281A68EE65
:1049A0004B0A84ED030A28EE2C0AC4ED050A84EDB7
:1049B000040A68EE001AB4EEE11AF1EE10FA03DD13
:1049C00028EE4A1A84ED031A30EE682A94ED031A91
:1049D000F1EE402AB6EE00AAC2EE011A82EEA02A3B
:1049E00070EE282AC4ED061A61EE8A1A61EEA21A48
:1049F00084ED082A22EE0A2A42EE001A28EE292A1D
:104A000068EE212AB4EEE22AF1EE10FA58D221EE35
:104A10000C0A6BEEA01A20EE200A70EEC10A40EEDE
:104A2000291A81EEA00A10EE100AFBF7C8FE9FEDCE
:104A30003ABB41EC100BB0EE4B1AF0EE6B1A00F0E3
:104A4000CBF951EC100BFBF7FDFE00EE100A00F065
:104A500053FC20EE088A84ED048A78EE680A94ED0F
:104A6000031A80EE810A10EE100AFBF7A8FE41EC53
:104A7000110BB0EE4B0AF0EE6B0A00F0ADF951EC01
:104A8000100BFBF7DFFEA06194ED051AF1EE480A6A
:104A900080EE810A10EE100AFBF791FE41EC110B3B
:104AA000B0EE4B0AF0EE6B0A00F096F951EC100BE9
:104AB000FBF7C8FE9FED1A0A206284ED070A05E0A5
:104AC00079EEE10A80EE801A84ED071A94ED060A69
:104AD000D4ED070A94ED081A124870EE200A70EE21
:104AE000810AC0ED030A84ED009AC4ED01AAC4ED69
:104AF000028AD4ED030A08EE809A20EE000A60EEE6
:104B00008A0A00EE809A84ED099A04B0BDEC0A8B03
:104B100010BD00001801002000000000000000008F
:104B2000000000005C34002030B5124CE069002227
:104B3000C0F30011104B1148012529B11021216249
:104B400041785A5405704270E169C1F3401161B176
:104B50004178122903D9DA740570427005E00278B1
:104B60001AB9626A5A54491C417002490820183126
:104B7000086030BD004400404801002000000020D3
:104B800070B50F4C002542F20806206818B930466F
:104B9000FDF796FF206032460A49FBF78DFB0022A5
:104BA00042F20401206801F0EBF9216801F500519F
:104BB0004968814201D04FF0FF35284670BD0000A2
:104BC000B000002000B801082DE9F0471A4D286810
:104BD00058B1EFF3108472B6FDF7A4FB052137201E
:104BE000FDF712FB060004D01FE04FF0FF30BDE8D8
:104BF000F087002242F20401286801F0C1F92F6811
:104C000042F20401DFF83480C85100254FF4806976
:104C100007EBC500D0E9002308EBC500FDF766FBF4
:104C2000060002D16D1C4D45F2D9FDF751FB84F30E
:104C300010883046DBE70000B000002000B8010813
:104C400010B50B4C206820B942F20800FDF738FF80
:104C500020609FED080AD4F8001000204FF4006295
:104C600001EB8003401C83ED000A9042F8DB10BD8D
:104C7000B000002000000000FDF7C2FAFEE70000CF
:104C80000FB4054B10B503A9044A029800F0FCFCD0
:104C900010BC5DF814FB0000116400084001002006
:104CA000002809DB00F01F0201219140400980002B
:104CB00000F1E020C0F8001170470907090E002834
:104CC00004DB00F1E02080F80014704700F00F00D2
:104CD00000F1E02080F8141D704700000000000083
:104CE00030B52DED048B81B0B0EE408AF0EE608AD5
:104CF0006A4651EC180B01F097FB00989FED329B30
:104D00007E300090002821DC53EC192B51EC180B5D
:104D1000FBF768FD1AD0002140F60800FBF736FFCC
:104D2000044651EC180BFBF78DFD08EE100A40F617
:104D3000080004EA0001FBF729FFB5EEC08AF1EE96
:104D400010FA04BF022000F0CFFB2DE00098FF28EE
:104D500030DB00210846FBF719FF00F4400553EC57
:104D6000192B51EC180BFBF755FD8CBF00240124C7
:104D7000022000F0B9FB9FED168A4DB1002C0CBF4C
:104D80004FF400004FF48000A84218BF9FED118A35
:104D900004210846FBF7FAFE002C01BFB1EE480AD9
:104DA00001B0BDEC048B30BDB0EE480A01B0BDECE3
:104DB000048B30BD51EC180BFBF744FD01B000EE45
:104DC000100ABDEC048B30BD0000000000000000A4
:104DD0000000807FFFFF7F7F00B52DED048BB0EEDC
:104DE000418AF0EE618AB0EE409AF0EE609A83B0AC
:104DF00053EC182B51EC190BFBF798FE00F07040A8
:104E0000B0F1005F1AD018EE101A18EE900A8DED6E
:104E1000008B002918BF0121084320F00040C0F199
:104E20007F6000F1E040C00F01BFB0EE480AF0EE35
:104E3000680A03B0BDEC048B08BF00BDB0EE490AA0
:104E400003B0F0EE690ABDEC048B00BD0000000069
:104E500070B5D94B00242DED020B2DED108BDDE943
:104E60001010984205DA20F000429A4201D809D188
:104E700041B19DED100BBDEC108B02B0BDE8704050
:104E800000F0FEBAB0F5801F26DA11430BD00028DF
:104E900013DA012000F028FBBDEC108B02B0BDE856
:104EA000704000F0F9BA022000F01EFB00F0D0FACA
:104EB00051EC100B81F000419EE06FF035049FED46
:104EC000C00B53EC102B9DED100B51EC100BFBF7AE
:104ED00058FBCDE91001084604EB2051C0F3130440
:104EE000B948A1F2FF31204400F4801080F07F62C5
:104EF00082F04052224301EB20559FEDB50B1192F9
:104F000053EC102B9DED100B51EC100BFBF733FB0A
:104F100041EC180BA01CC0F313009FEDAFDB9FED1D
:104F2000B0EBB14E7E4403286CD296ED000B51ECF1
:104F3000180B53EC102BFBF755FC1DD1002D01BFB6
:104F400096ED000BBDEC108B02B070BD2846FBF750
:104F5000F9FB41EC180B53EC1D2BFBF712FB41EC5A
:104F6000190B53EC1E2B51EC180BFBF70AFB53ECFF
:104F7000192BFBF75FFA3FE09FED9D0B51EC180BEF
:104F800053EC102BFBF7FDFA9FED9B1B53EC112B01
:104F9000FBF7F4FA41EC190B53EC182B51EC180BFE
:104FA000FBF7EFFA53EC192BFBF7EBFA41EC190B7B
:104FB000002D04BF53EC192B51EC180B1AD02846C6
:104FC000FBF7C0FB41EC1A0B53EC1D2BFBF7D9FA96
:104FD00053EC192BFBF7D2FA53EC182BFBF7CBFA57
:104FE00041EC180B53EC1E2B51EC1A0BFBF7C9FAD2
:104FF00053EC182BFBF7BFFABDEC108B02B041EC61
:10500000100B70BD9FED7E0B51EC180B53EC102B69
:10501000FBF710FA41EC100B51EC180B53EC102B72
:10502000FBF721FB41EC190B2846FBF78BFB41EC0E
:105030001B0B53EC192B51EC190BFBF7A2FA41ECAB
:105040001A0B714853EC1A2B261851EC1A0BFBF76C
:1050500098FA41EC1F0B6D48C4F1510404F5D724B4
:10506000B0EE4F0AF0EE6F0A0321784400F072F9B7
:1050700053EC1F2B51EC100BFBF783FA41EC1C0B8C
:105080006348B0EE4F0AF0EE6F0A0421784400F056
:1050900061F953EC1A2B51EC100BFBF772FA344305
:1050A00053EC1C2BFBF7C6F941EC1C0B002C4CDD20
:1050B0009FED510B51EC180B53EC102BFBF761FAE1
:1050C00053EC182BFBF75DFA41EC1A0B55B353EC7C
:1050D0001D2B51EC1B0BFBF754FA41EC1D0B53EC51
:1050E0001C2B51EC1A0BFBF7A5F953EC192BFBF712
:1050F00048FA53EC1D2BFBF79DF953EC1A2BFBF7E9
:105100003DFA53EC182BFBF736FA41EC180B53EC35
:105110001E2B51EC1B0BFBF734FA53EC182BFBF74F
:105120002AFA69E753EC1C2B51EC1A0BFBF782F9B6
:1051300053EC192BFBF725FA53EC1A2BFBF71EFA4D
:1051400053EC182BFBF71AFA56E735B353EC1D2B2B
:1051500051EC1B0BFBF715FA41EC1A0B53EC1C2B13
:1051600051EC180BFBF707FA53EC192BFBF709FA74
:1051700053EC1A2BFBF7FFF953EC182BFBF7FBF959
:1051800041EC180B53EC1E2B51EC1B0BFBF7F9F900
:1051900053EC182BFBF7EFF92EE753EC1C2B51ECDB
:1051A000180BFBF7E8F953EC192BFBF7EAF953EC72
:1051B000182BFBF7E3F91FE70000F07F0000000069
:1051C0000000000000005043645F09000000000080
:1051D000000000000000F03F763C7935EF39EA3DF1
:1051E0000000E0FE422EE63F282B000000000000F9
:1051F000555555555555D53F000000000000E03F7E
:10520000000000000000004086EBF9FFAA29000022
:10521000A02900000000000010B52DED020B2DEDBF
:10522000088B84B09DED0C0B51EC100BFBF722FCAE
:1052300041EC180B9DED0C0B53EC182B51EC100BA3
:10524000FBF799F941EC190B0D989FED290B10F024
:10525000004F53EC102B51EC190B9FED21AB9FED40
:1052600022BB0ED0FBF7BEFA0ED953EC1B2B51EC30
:10527000190BFBF7CFFA1CD214E000BF41EC180B5E
:1052800017E0FBF7AFFA06D253EC1A2B51EC180BD0
:10529000FBF771F9F2E753EC1B2B51EC190BFBF701
:1052A000B9FA06D853EC1A2B51EC180BFBF7C2F8DD
:1052B000E4E78DED028B9DED0C0B18EE901A10EECD
:1052C000900A8DED000B61F31E0003909DED020B23
:1052D00004B0BDEC088B02B010BD0000000000005F
:1052E000000000000000F03F000000000000E03F70
:1052F000000000000000E0BF10B52DED028BB1EE04
:10530000C08A18EE100A20F00040C0F1FF40C00F24
:105310000AD010EE100A20F00040C0F1FF40C00F8C
:1053200004BF012000F0E0F8B0EE480ABDEC028BAB
:1053300010BD000008B59FED060A0A4601468DED36
:10534000000A6846FBF7F4FA9DED000A08BD00006C
:105350000000000070B504462DED028B4D1E00EBE1
:10536000C500B0EE408AF0EE608A90ED000B35F09B
:10537000060017D053EC182B51EC100BFBF701F97A
:1053800041EC100B6D1E04EBC50090ED001B51ECC1
:10539000100B53EC112BFBF74DF841EC100B35F0D3
:1053A0000600E7D1022D36D0042D1CD0062D1CBFDF
:1053B000BDEC028B70BD53EC182B51EC100BFBF7BE
:1053C000E0F894ED0A1B53EC112BFBF733F853EC88
:1053D000182BFBF7D6F894ED081B53EC112BFBF7B9
:1053E00029F841EC100B53EC182B51EC100BFBF788
:1053F000C8F894ED061B53EC112BFBF71BF853EC8C
:10540000182BFBF7BEF894ED040B53EC102BFBF7B5
:1054100011F841EC100B53EC182B51EC100BFBF76F
:10542000B0F894ED021B53EC112BFBF703F853EC8F
:10543000182BFBF7A6F894ED001B53EC112BFAF791
:10544000F9FFBDEC028B41EC100B70BD00000000B9
:105450009FED070B10B553EC102B9FED070B51EC94
:10546000100BFBF700F941EC100B10BD0000000021
:105470000000000000000000000000000000F03FFD
:1054800010B553EC102B51EC100BFAF7D3FF41EC95
:10549000100B10BD000000009FED050B10B553EC84
:1054A000102B51EC100BFBF7DEF841EC100B10BD8C
:1054B000000000000000000010B5044691ED000B54
:1054C000FFF70EFC84ED000A10BD02E008C8121FB1
:1054D00008C1002AFAD170477047002001E001C1DD
:1054E000121F002AFBD17047014908607047000075
:1054F000440100202DE9FF5F82B00021DDE9043086
:10550000020DDDF840B0034318D044F61050A2F26B
:10551000FF3242431514119801281FD0A5EB0B0050
:10552000401C5FEA000A4FF000064E4FDFF838914A
:10553000B046504615D5CAF1000413E01198012475
:105540004AA3012801D16FEA0B010298119AC0E920
:105550000031C0E9024206B0BDE8F09FCBF1000087
:10556000DFE704460021404A491842EB0450CDE9E8
:10557000001012E0E00707D032463B46404649465D
:10558000FAF7FFFF8046894632463B4610461946E9
:10559000FAF7F7FF06460F466410002CEAD1DDE962
:1055A0000401DDE90023BAF1000F06DAFAF7E9FF9A
:1055B00042464B46FAF7E5FF05E0FBF754F8424652
:1055C0004B46FBF750F804460E460022284BFBF7EB
:1055D00021F903D84FF0FF30014607E00022254BA8
:1055E00020463146FAF726FFFBF788FA102409E037
:1055F000002C0ADB0A220023FAF70CFE039B303250
:105600001A55641E50EA0102F2D1641C039AC4F1D7
:1056100011031444119A012A03D0012208430DD129
:105620000AE0084304D000204FF0110B119072E7FC
:10563000A3EB0B056D1E0DE05B4504DD4FF0000292
:1056400005F1010504E003DA4FF00002A5F10105C0
:10565000002AECD002981199C0E90231C0E9004556
:1056600079E70000000014400000F03F3000000027
:105670000000F0430000E03F30380A2801D201204A
:1056800070470020704700002DE9FF4F95B09A4603
:10569000884606460025EEE1252877D100242746D6
:1056A000F94A0121039400E0044316F8013F203B2E
:1056B00001FA03F01042F7D130782A2811D06FF0A8
:1056C0002F033078A0F13002092A16D8039A44F04B
:1056D000020402EB820203EB42021044761C0390A8
:1056E000EFE758F8042B0392002A03DA504244F4FF
:1056F0000054039044F00204761C30782E2816D112
:1057000016F8010F44F004042A280DD06FF02F0280
:105710003078A0F13003092B09D807EB870302EB9F
:105720004303C718761CF3E758F8047B761C3078DF
:105730006C280FD006DC4C2817D068280DD06A28BA
:1057400014D104E0742810D07A280FD10DE044F46D
:1057500000140AE044F4801401E044F44014727828
:10576000824202D104F58014761C761C30786628BB
:105770000BD013DC582877D009DC002875D04528D9
:10578000F6D04628F4D047281AD193E118E06328D0
:1057900035D0642879D0652812D18BE1702873D078
:1057A00008DC6728F1D069286FD06E280DD06F28EB
:1057B00006D1ACE073282CD0752874D0782853D04B
:1057C0005246179990476D1C54E1C4F302500228C9
:1057D00009D003280DD0D8F8001004280DD00D6092
:1057E00008F1040846E1D8F80010EA17C1E90052B0
:1057F000F6E7D8F800100D80F2E70D70F0E718F822
:10580000041B8DF8001000208DF80100EB460120EC
:1058100003E058F804BB4FF0FF3061074FF0000180
:1058200002D40DE009F101018946B9420FDA814540
:10583000F8DB1BF809100029F4D108E009F1010197
:1058400089468142FADB1BF809100029F6D103983A
:105850005346A0EB090721463846179A00F080FA14
:10586000284400EB090507E044E008E10DE01BF8DF
:10587000010B524617999047B9F10109F7D25346E7
:1058800021463846179AF2E039E00A21C4F3025261
:105890004FF0000B0091022A06D058F8040BC117F4
:1058A000032A09D00AE023E008F1070020F00702EC
:1058B000F2E80201904605E000B2C117042A01D1C6
:1058C00040B2C117002906DA0A460021404261EBC6
:1058D00002012D2202E0220504D52B228DF804209E
:1058E000012203E0E20701D02022F7E7914657E0CA
:1058F0000A2100E010214FF0000B00910BE0102175
:105900004FF0000B44F004040827009103E0082046
:105910004FF0000B0090C4F30252022A05D058F851
:10592000040B0021032A08D008E008F1070020F04A
:105930000702F2E80201904603E080B2042A00D197
:10594000C0B24FF0000922072AD53278702A07D05A
:10595000DDF800C08CF0100C5CEA0B0C05D00EE0FA
:1059600040228DF80420012208E050EA010306D00D
:1059700030238DF804308DF8052002229146009BDB
:1059800083F0080353EA0B030AD150EA010201D164
:10599000620705D530228DF804204FF001097F1EE3
:1059A0003278582A04D039A20C920CAA02920BE049
:1059B0003BA2F9E75B46009AFAF72CFC0C9B9B5C38
:1059C000029A521E0292137050EA0102F2D102981A
:1059D00004A9081A00F1200B600702D524F48034D2
:1059E00000E001275F4502DDA7EB0B0000E000208F
:1059F00000EB0B01009003984944401A0390E00328
:105A000006D453462146179A039800F0A9F9054495
:105A1000002706E001A85246C05D179990476D1C0B
:105A20007F1C4F45F6DBE0030CD553462146179A01
:105A3000039800F095F9054404E030205246179988
:105A400090476D1C0099481E00900029F5DC08E085
:105A50000298029952460078491C02911799904782
:105A60006D1CBBF10001ABF1010BF1DC5BE100F05F
:105A700065F90544761C307800287FF40DAE19B026
:105A80002846BDE8F08F000009280100303132338C
:105A9000343536373839616263646566000000006A
:105AA0003031323334353637383941424344454654
:105AB00000000000600700D4062708F1070020F06E
:105AC0000700F0E80223804603F0004C5FEA0C0078
:105AD00001D097A009E0200501D596A005E0E007D8
