:020000040800F2
:1000000098380020F10100089B400008712C00087E
:1000100095400008A1170008014D000800000000ED
:10002000000000000000000000000000C5440008BF
:10003000B720000800000000A5430008854500081F
:100040000B0200080B0200080B0200080B0200085C
:100050000B0200080B0200080B0200080B0200084C
:100060000B0200080B0200080B0200080B0200083C
:100070000B0200080B0200080B0200080B0200082C
:100080000B02000800000000691300080B020008C2
:100090000B0200080B0200080B0200080B0200080C
:1000A0000B0200080B0200080B0200080B020008FC
:1000B0000B0200089D4600080B0200080B02000816
:1000C0000B0200080B0200080B0200080B020008DC
:1000D0000B0200080B020008B14B00080B020008DD
:1000E0000B0200080B0200080B0200080B020008BC
:1000F0000B0200080B0200080B02000800000000C1
:10010000000000000B020008000000000B020008C5
:100110000B020008000000000B0200080B020008A0
:100120000B0200080B0200080B0200080B0200087B
:100130000B02000800000000000000000B02000895
:100140000B0200080B020008000000000000000085
:10015000000000000000000000000000000000009F
:100160000000000000000000000000000B0200087A
:100170000B0200080000000000000000000000006A
:10018000000000000B02000800000000000000005A
:10019000000000000000000000000000000000005F
:1001A00000000000000000000B0200080B02000825
:1001B0000B0200080B0200080B0200080000000000
:1001C000000000000B02000800000000000000001A
:1001D0000B0200080B020008DFF810D000F0D8FC7A
:1001E0000048004791660008AFF30080983800206F
:1001F0000648804706480047FEE7FEE7FEE7FEE7C1
:10020000FEE7FEE7FEE7FEE7FEE7FEE78D460008B5
:10021000D90100082DE9F05F0546002092469B4673
:1002200088460646814640241BE02846414647460C
:10023000224600F039FB53465A46C01A914110D36A
:1002400011461846224600F016F82D1A67EB0108F1
:100250004F4622460120002100F00DF817EB00095F
:100260004E41201EA4F10104DFDC484631462A46F7
:100270004346BDE8F09F202A04DB203A00FA02F151
:10028000002070479140C2F1200320FA03F3194384
:1002900090407047202A06DBCB17203A41FA02F043
:1002A00043EAE07306E041FA02F3D040C2F12002D3
:1002B000914008431946704740EA01039B0703D069
:1002C00009E008C9121F08C0042AFAD203E011F895
:1002D000013B00F8013B521EF9D27047D2B201E057
:1002E00000F8012B491EFBD270470022F6E710B53B
:1002F00013460A4604461946FFF7F0FF204610BD94
:1003000010B5002200E0521C835C8C5CA34201D13A
:10031000002BF8D1D8B2E1B2401A10BD0FB400B52D
:100320008DB010A909900B9000914FF0FF300A900A
:1003300000200C9005480690054807906A4609A8D9
:100340000F9900F0C7FA0DB05DF814FBF108000832
:100350000F0900082DE9FF5FD2E901A74FF000085F
:10036000916999461446DDF838B0464601988847A9
:10037000054659EA0B0005D009E0A169761C0198F1
:1003800088470546216A284688470028F5D1681C19
:1003900003D05FEACA7005D015E04FF0FF3004B01B
:1003A000BDE8F09F2068011D2160D0F800800AE0C0
:1003B0005FEACA7001D108F8015BA169761C7F1E53
:1003C000019888470546002F1ADD681C18D0B9F13E
:1003D000000F0DD0E81705EBD060421120F01F0090
:1003E00059F822102A1A012090400142E0D107E07A
:1003F000BBF1000FDCD1216A284688470028D7D0FE
:10040000E16901988847BBF1000F07D1002E05DD97
:100410005FEACA7002D1002188F80010A068B842D3
:1004200003DDBBF1000F03D017B16FF00100B6E799
:100430003046B4E72DE9FE4F804681EA0300C00F45
:100440000C46009021F0004123F00045B8EB02007B
:10045000A94105D24046214690461C460B4602461D
:1004600023F00040104347D0270DC7F30A00C3F321
:100470000A510290401A019040286BDAC3F313002E
:1004800040F4801B0098924620B10023D2EB030A6F
:1004900063EB0B0B01985946C0F140025046FFF741
:1004A000EAFE06460D4650465946019AFFF7F2FE0F
:1004B00010EB08006141002487EA115284EAE773D7
:1004C0001A4340D0009A62B3019A012A4FEA0752B8
:1004D00015DC001B61EB02014FF0004202EA0752FB
:1004E000CDE90042001C41F5801132462B4600F058
:1004F00072FA03B0BDE8F08F40462146F9E7001BD1
:1005000061EB0201001C41F5801300185B412018CB
:10051000A2F5001747EB030140EAD570B6196D410B
:1005200011E06D084FEA360645EAC0754FEA0752FA
:10053000001B61EB0201001C41F5801149084FEAE4
:1005400030000019514132462B4603B0BDE8F04F50
:1005500000F032BA0098012240000023D0EB0202E2
:1005600063EBE073009821464FEAE074B8EB0000BB
:1005700061EB0401E9E783F000435BE781F00041B0
:1005800058E72DE9FE4F81EA030404F0004421F00E
:10059000004100944FF0000B23F0004350EA0104A7
:1005A0005ED052EA03045BD0C3F30A54C1F30A5588
:1005B0002C44A4F2F3340194A0FB0254C1F31301C0
:1005C00041F48011C3F3130343F4801301FB02448D
:1005D00000FB034E840A970A44EA815447EA835792
:1005E000A4FB076802958D0A05FB07854FEA932C4B
:1005F00004FB0C542705029D4FEA065847EA1637BC
:10060000B5EB08056EEB070C870E920E47EA8117D3
:1006100042EA8312A7FB0201B6EB0B0164EB000474
:100620002B0D43EA0C335E1844EB1C50DA4651465E
:10063000E7FB0201C5F313044FEA0B3343EA1453FB
:100640004FEA0432019C43EA0603A4F10C0402942D
:10065000009CCDE900B400F0BEF903B0BDE8F08F16
:1006600000200146F9E72DE9F04D81EA030404F08A
:10067000004B21F0004514464FF0000A23F00041E2
:1006800050EA050220D054EA01021DD0C5F30A57F2
:100690000246C5F31303C1F31300C1F30A5640F435
:1006A000801543F48013A7EB0608101BD64608F20A
:1006B000FD3873EB050002D308F1010801E0921840
:1006C0005B41B8F1000F03DA00200146BDE8F08D70
:1006D00000204FF48011064684460EE0171B73EB92
:1006E000050705D3121B63EB050306434CEA010C17
:1006F00049084FEA300092185B4150EA0107EDD1FA
:1007000052EA030012D082EA040083EA050108439A
:1007100005D0101BAB4106D20122002306E00022C7
:100720004FF0004302E06FF0010253101AEB060095
:100730004CEB085110EB0A0041EB0B01BDE8F04D0A
:1007400000F03AB90EB5C10F80EAE0700844CA075C
:10075000002140F233438DE80E000A460B4600F0BC
:100760003AF903B000BD0EB540F2334102910021C9
:10077000CDE900110A460B4600F02DF903B000BD8B
:1007800070B5C1F30A5201F000450024C1F3130112
:1007900040F2FF3341F480119A4201DA002070BD2B
:1007A00040F233439A42A2F2334203DC524200F059
:1007B0007BF800E090402C43F1D0404270BD00F047
:1007C000004230F000400AD0C10D01F56071C0F365
:1007D000160042EA0151C208400711437047002049
:1007E0000146704730B5041E71F1000404DB4FF080
:1007F0000044404264EB0101141E73F1000405DB68
:100800001C464FF00043524263EB04038B4208BF87
:10081000824230BD30B5041E71F1000404DB4FF09C
:100820000044404264EB0101141E73F1000405DB37
:100830001C464FF00043524263EB0403994208BF49
:10084000904230BD01F0004330B421F0004150EA45
:10085000010206D00A0DA2F56072C1F31301002A4D
:1008600002DC30BC00207047440F44EAC104C100E0
:10087000E01830BC00EBC25000F067B830B50B4652
:10088000014600202022012409E021FA02F59D42C0
:1008900005D303FA02F5491B04FA02F52844151E94
:1008A000A2F10102F1DC30BD202A04DB203A21FA5A
:1008B00002F00021704721FA02F3D040C2F1200279
:1008C000914008431946704702681144137801604B
:1008D00018467047D16004495161044911620021F2
:1008E0001161114600F06CB9C9080008B50B000889
:1008F000426842B1016811F8013B23B1521EC0E9C0
:100900000012184670470121C160881E7047426876
:100910005AB1C368016843B983688B4205D0491E48
:10092000521CC0E90012002070474FF0FF307047A2
:100930007CB50023CDE900330546684600F0F3FAA4
:100940006946284604F0FCFD7CBD0029A8BF70471D
:10095000401C490008BF20F00100704710B4B0FAF5
:1009600080FC00FA0CF050EA010404BF10BC704790
:1009700049B1CCF1200421FA04F411FA0CF118BFAA
:10098000012121430843A3EB0C01CB1D4FEA006179
:100990004FEA102042BF002010BC704700EBC3504C
:1009A00010440029A4BF10BC7047401C490008BF78
:1009B00020F0010010BC704710B5141E73F1000444
:1009C00008DA401C41F1000192185B411A4301D141
:1009D00020F0010010BD2DE9F04D92469B4611B16B
:1009E000B1FA81F202E0B0FA80F220329046FFF7CD
:1009F00042FC04460F4640EA0A0041EA0B01534616
:100A00005A46084313D0114653EA010019D0C8F1E1
:100A100040025046FFF748FF05460E4650465946ED
:100A20004246FFF728FC084305D0012004E0204699
:100A30003946BDE8F08D0020054346EAE0762C43B8
:100A400037430A986305E40AA0EB08000022FD0A78
:100A500044EA47540A3002D500200146E9E701057F
:100A600010196941DDE9084500196941BDE8F04DFB
:100A7000A2E700002DE9F041054621F000400C46B8
:100A8000284309D0C4F30A5040F23341884205DDBF
:100A900028462146BDE8F0812846FBE740F2FE31BA
:100AA000884210DC0CDB4FEA043040EA155050EA73
:100AB000053105D0104804F0004101430020E9E76A
:100AC00000200146E6E7A0F233404642C6F140026C
:100AD00028462146FFF7CFFB074688462846214691
:100AE0003246FFF7E1FE43463A46FFF765FF3246DE
:100AF000BDE8F041FFF7BFBB0000F03FC1F30A5271
:100B0000C1F3130140F2FF3341F480119A4202DA3B
:100B100000200146704740F233439A42A2F233422A
:100B200002DC5242FFF7C0BEFFF7A5BB70B504461A
:100B300001F000450020054304D14FF00045644218
:100B400065EB010103F00045284305D118464FF03D
:100B50000043524263EB0003101B73EB010002D20F
:100B60004FF0004009E082EA040283EA01034FF0FB
:100B700000501A4301D14FF0C0404FEA2062EFF31A
:100B8000008162F31F6181F3008870BD002070470F
:100B9000064C074D06E0E06840F0010394E80700CA
:100BA00098471034AC42F6D3FFF71AFB387C0008A4
:100BB000587C0008C0B24FF4F05100F0E7B90000D3
:100BC0002DE9F34F8BB04FF0000801F10C000C46FB
:100BD0004FF0010B46460DF1080A019062690121B0
:100BE00001989047051E2DD0252D2CD0216A8847CD
:100BF000C0B16269012101989047216A88470028A5
:100C0000F7D1411E62690198904700E0761CA16906
:100C10000B988847216A88470028F7D1E1690B982B
:100C20008847DBE7A1690B9888470746A84201D1AE
:100C3000761CD3E7E1690B9888477F1C02D1B8F195
:100C4000000F6FD047E1002762693D4639460198A1
:100C500090472A2804D16269012101989047012513
:100C6000DFF888926269012101989047A0F1300174
:100C70000A290AD24F45E5DC07EB870100EB410763
:100C8000303FDFD445F01005ECE7E90601D46FF002
:100C900000476C280AD04C2814D0682815D06A2840
:100CA0000DD074281CD07A281AD01DE06269012169
:100CB000019890476C2802D045F0040514E045F0F7
:100CC00002050DE045F020050AE062690121019866
:100CD0009047682802D045F0080505E045F4006516
:100CE0006269012101989047C4E9015765283DD008
:100CF00019DC58287AD00CDC452837D004DC2528AC
:100D000026D0412831D131E046282FD047282CD198
:100D10002CE05B2877D0612828D063287CD0642819
:100D200023D15AE0D1E06F2848D008DC66281DD0D6
:100D300067281BD0692821D06E2816D127E070289B
:100D400045D0732868D0752847D078280DD14DE05C
:100D5000A1690B988847054625283FF469AFE169EA
:100D60000B9888476D1C3FF46AAFB4E023466A468F
:100D70006FF001000B9900F0B1F99FE045F04000E1
:100D80006060A80723464FF0000236D43EE0E80733
:100D90007FF447AF2068011D21600068290501D557
:100DA00006701BE7290701D5068017E7A90703D5B9
:100DB000F117C0E9006111E706600FE745F0400058
:100DC0006060A80723464FF0080216D41EE040F6E4
:100DD0000E0125EA0100606016E045F04000606009
:100DE000A80723464FF00A0207D40FE045F0400061
:100DF0006060A80708D5234610226FF001000B9908
:100E0000AFF300805AE007E0234610226FF00100A4
:100E10000B99AFF3008051E04FF000094F464B466D
:100E2000632802D05B2807D041E02079C00601D4B6
:100E30000120A06001273AE06269012101989047F2
:100E40005E2805D14FF00109626949460198904733
:100E5000216939B900210A46534643F82120491C2B
:100E60000829FADBB0B3216969B9C11700EBD16277
:100E700053110AEB830122F01F02821A01200B6832
:100E8000904003430B6062690121019890475D28FF
:100E9000E8D1B9F1000F09D00020514651F82020C7
:100EA000D24341F82020401C0828F7DB02AB224641
:100EB00000976FF001000B99FFF74CFA00280CDA4D
:100EC000401C08D1BBF1000F05D04FF0FF300DB032
:100ED000BDE8F08FFFE74046F9E7E90701D108F1E7
:100EE000010806444FF0000B78E60000CCCCCC0C97
:100EF0000FB4002300B589B00CA900910B996FF0D5
:100F00000042CB601E4B06931E4B07930423CDE992
:100F100001321D4A089202466B46002000F0DEF8BE
:100F200009B05DF814FB70B586B006464FF0FF308F
:100F30000091CDE90101002015460C46049032468F
:100F4000694604A8FFF7D4FF02460498211825B18A
:100F500008B1084600E020462860049800280DD01B
:100F6000002A02DD0098884208D0081B0094CDE9D1
:100F700001043246694604A8FFF7BAFF06B070BD07
:100F8000F10800080F090008B50B00087F2801D9F7
:100F9000002208E0064A02EB5002C007127800D196
:100FA000120902F00F020120904008407047000033
:100FB000F87B00082DE9FF4F087883B09946FF2899
:100FC00005D0491C2D2804D00024002008E0002072
:100FD0000BE00124F9E700EB800003EB4000491C23
:100FE0000B78FF2BF7D104B1404200230293147811
:100FF00019461D462D2C01D02B2C04D1521C2D2C12
:1010000013D000240294AA461478FF2C0FD00A258E
:10101000A3FB057801FB05814FF0000C03FB0C11CD
:10102000521CE3194AEB0101EEE70124EAE781448F
:1010300053EA010002D019F5C87F06DA03980021AF
:10104000C0E9001107B0BDE8F08F0025AE4E2F4675
:10105000DFF8B882184600F05DF9CDE90001B9F17A
:10106000000002DAC9F1000400E004460023A74AA8
:101070001AEB030B42EB045A12E0E00707D02A46B2
:10108000334638464146FFF77CFA074688462A46EB
:10109000334610461946FFF774FA05460E466410AB
:1010A000002CEAD1DDE90001B9F1000F5A465346A0
:1010B00006DAFFF7D8FA3A464346FFF7D4FA05E0D6
:1010C000FFF75FFA3A464346FFF75BFA029A0AB126
:1010D00081F00041039AC2E90001B3E72DE9FF4F17
:1010E0001F468DB0D7E901464FF0FF382E20454608
:1010F0004FF000090B90B9696D1C0E988847396A4A
:10110000824688470028F6D1BAF1FF3F0AD024F47E
:10111000D064002E11DDBAF12B0F08D0BAF12D0FDB
:101120000BD102E0404611B08DE744F48064B96908
:101130006D1C0E9888478246761E6946600501D56B
:101140002D2000E02B208DF8000001F1010B0DF1A6
:10115000200809E0B9696D1C0E98884782460F98EF
:1011600044F40074761E0560002E02DDBAF1300FE3
:10117000F0D00B998A453ED144F0800406E00F99E7
:10118000681CA9F1010944F400740860B9696D1C78
:10119000761E0E98884782463028F0D02BE00B99B7
:1011A0008A4505D1200603D444F08004761E18E059
:1011B000504604F0A5FA08B30DF11301761E44F46D
:1011C00000748B4508D2AAF130000BF8010B200601
:1011D00007D5A9F1010003E0200602D409F10100BE
:1011E0008146A00502D50F99681C0860B9696D1C7D
:1011F0000E9888478246002ED1DC53E0002E51DD48
:10120000BAF1650F02D0BAF1450F4BD1A00549D50F
:10121000B9696D1C24F44074761E0E988847824686
:10122000002E0CDD2B2804D0BAF12D0F07D144F489
:101230008074B9696D1C0E9888478246761EE00559
:1012400001D52D2100E02B2108F8011BCDF82C80C1
:1012500021E00DF12901761E44F4007488450CD27A
:10126000AAF1300010F0FF0088F8000002D10B99BD
:10127000884509D908F1010806E0E00501D52448B0
:1012800001E042F20F708146B9696D1C0E988847E3
:1012900082460F980560002E04DD504604F030FAB7
:1012A0000028D6D1F9690E988847FF208BF80000F6
:1012B00088F800000020069007904B466A4608A96F
:1012C00006A8FFF777FEA00502D46FF001002AE719
:1012D00014F0240F0AD0E00714D1DDE906123868B3
:1012E000031D3B600068C0E900120BE0DDE9060168
:1012F000FFF7A8FA0146E00704D13868021D3A60FA
:101300000068016028460EE7000014400000F03F2E
:10131000F1D8FFFF0EB540F2334202920022CDE930
:1013200000221346FFF757FB03B000BD30B58C1801
:1013300010F8012B12F00F0301D110F8013B120934
:1013400006D110F8012B03E010F8015B01F8015BF6
:101350005B1EF9D101E001F8013B521EFBD1A14215
:10136000E6D3002030BD000070B501F085FC414D92
:101370006868C0F3801000287AD04FF0A046B168AA
:101380003D480140091DB160A9680140091DA960DF
:101390009FED3A0A00F090FE306C394C6081286C69
:1013A000A0800921304601F004FD208040F20F1199
:1013B000304601F0FEFCE08040F21521304601F09D
:1013C000F8FC20810921284601F0F3FC6080228886
:1013D000216CDFED2C0A891A00EE101AB8EEC00A53
:1013E00020EE200A84ED050A616CB1EE400A081A6D
:1013F00001EE100AB8EEC11A61EE200A9FED231A21
:10140000C4ED060A30EE600ADFED1F0A84ED070A1C
:1014100094ED040AA08820EE200A00EE900AF8EE6F
:10142000600A60EE810A9FED1A1A00EE810A84EDCF
:10143000040A2089FFF797F99FED161B53EC112B37
:10144000FFF79FF89FED151B53EC112BFFF799F851
:10145000FFF7F8F9E06401F001FB40202860114833
:101460004168FA2902D14FF0FF314160491C4160C7
:1014700070BD000000010050C0FFFF7FACC52738E1
:1014800030020020FFFFA43C6666663FCDCCCC3D19
:10149000CDCC7A3C6666666666660A40000000004F
:1014A0000000303F0000002010B503F00DFC0249A1
:1014B0000020487010BD0000000100202DE9F0411F
:1014C0009C4D04462DED028B687800283AD0A86820
:1014D00003F024F8052835D303F026F8A86095F822
:1014E00001E0DFED958A0226944A0020BEF1010F4B
:1014F0002CD001219FED928ADFF848C2CB02924F97
:10150000BEF1020F5ED0BEF1030F7CD0BEF1040F1E
:1015100018D168603C680246B6EE000A04EB820609
:10152000521CD6ED000A9A4260EE800AC6ED000A0F
:10153000F4DB044685486A602970046084A001F0E9
:1015400051F86C70BDEC028BBDE8F0816E61C5EDA9
:10155000038A286192ED000A0746FDEEC00AF8EE04
:10156000E00A30EE600A10EE100AFFF728F99FED4E
:10157000791B53EC112BFEF75DFFFFF763F900EECB
:10158000100A764910EE100ADFED750A884204DD74
:1015900094ED000A30EE600A08E010EE100A71497E
:1015A000884206D994ED000A30EE200A84ED000A44
:1015B000C8E7D4ED000A30EEC00A84ED000A6F607F
:1015C0006E70BFE794ED000AD2ED000A9CED5E1A42
:1015D00070EE600AF0EEE00AF4EEC10AF1EE10FAE5
:1015E000B0D2D2ED080A9CED5F1AF0EEE00AF4EEFC
:1015F000C10AF1EE10FAA5D26A69022A40D0002A87
:10160000A0D1286100E03DE0B5EEC00AF1EE10FA8D
:101610001BDB6868984218DA00F09EFB386869683E
:1016200000EB810080ED000A00F096FB10EE100A3E
:10163000FFF7C5F841EC100B4BA053EC102B696879
:1016400003F062FB6868401C686004F01DFFC5ED94
:10165000038A94ED000A474930EE080A84ED000A37
:101660006E6194ED000A10EE100A8842A0DB6868F3
:1016700030EE480A401E686084ED000A032056E000
:1016800069615FE794ED000AD2ED000A9CED5E1AF5
:1016900070EE600AF0EEE00AF4EEC10AF1EE10FA24
:1016A00086D2D2ED080A9CED5F1AF0EEE00AF4EE65
:1016B000C10AF1EE10FA84D26A69022AE0D0002A47
:1016C000DFD1286110EE100AB0F17E5F1FDC686880
:1016D00000281CDB00F040FB3868696800EB8100E3
:1016E000D0ED000A30EE200A80ED000A00F034FB55
:1016F00010EE100AFFF763F841EC100B1EA053EC3C
:10170000102B696803F000FB6868401E686004F0F5
:10171000BBFEC5ED038A94ED000A1A4930EE480A73
:1017200084ED000A6E6120688842AAD9042068709E
:1017300008E7000000010020000000005C0100201C
:101740000000003AA4020020B00000200C0000209D
:10175000310000009A9999999999B93F6F12833A8B
:101760006F12833A6F1283BA462025642025660AD9
:101770000D000000CDCC8C3F422025642025660A58
:101780000D000000CDCCCCBD10B5044C0020207065
:1017900003F09AFA0120607010BD000000010020E3
:1017A00000F036FDFEE7000070B50A4C00252570FC
:1017B000606801F0FBF9656003F026FA064C18B189
:1017C00003F082FA257070BD012020700348056087
:1017D00070BD0000B4000020000100200C000020BB
:1017E0002DE9F05F2DED068BFE4CA26800EE102A6D
:1017F000B8EE400ADFEDFC0A2146002620EE208AE2
:1018000091F800C010274FF0020B4FF00108DFEDF8
:10181000F75A9FEDF74A2C31F6EE004A4FF0804917
:10182000F2EE048A9FEDF35A9FEDF3AADFEDF39AEF
:10183000F34B93ED5B2AD3ED043A93ED5C0A234618
:1018400022EE233AD3ED061AF1EE402A9FEDED1A6F
:101850002433ED4DD3ED000ABCF1110F13D2DFE8B4
:101860000CF01209133C45557D9CA5BACDFEF1F054
:10187000EFEEED00DB48A660243080ED001A00F0AA
:101880006DFD84F800B02FE2D0ED071AD54972EE55
:10189000611A24319FEDDD2A41EE820AC1ED000A72
:1018A000F4EEC00AF1EE10FA04DCF4EEE20AF1EE16
:1018B00010FA04D200F046FE84F80180BCE090EDFE
:1018C000040AF0EE651A04F0A7FAD149A06888422C
:1018D000D9D300F037FE03203EE080EE820AC848EC
:1018E00020EE040A80ED040A042035E0BD48A6601D
:1018F00024302661C0ED002A80ED010A81ED001A36
:1019000081ED011A00F02AFD052025E0032ABAD353
:10191000A660227CD0ED070A02F0010201EB8201F1
:10192000F0EE651A91ED000A30EE200A81ED000A12
:10193000AC4990ED040A243101EB8201D1ED000A9B
:1019400004F06AFA206942F21071401C206188425A
:1019500099DB00F0F7FD06202070C5E1D1EC020A0A
:1019600030EEC11ADFEDAB1AA548C1EE210A80EEB8
:10197000201A21EE040A80ED050A83EE801AD0EDCC
:10198000620AF8EEE00A60EE800AC0ED080A21EE75
:10199000200A80ED090A0720DEE79248A66024307D
:1019A00080ED003A00F0DAFC0820D5E720EE880A46
:1019B000F0EE411A60EE240A90ED040A04F02CFACD
:1019C00018EE100A4845C8DB95ED000A092084EDA1
:1019D000070AA660C0E768EE281A90ED040A04F032
:1019E0001BFA18EE100A8C498842B6DB95ED000A06
:1019F00084ED080A00F0A6FD0A20ADE7D4ED088AC0
:101A000094ED078AB0EE001A38EEC80AF0EEC00A6C
:101A100081EE200A10EE100AFEF7D1FE41EC100B09
:101A200003F03EFC51EC100BFEF7AAFE744914289B
:101A3000C86009DD84F801B0277055E14DE1F2E09E
:101A40007CE02BE019E00AE0F4EEC88AF1EE10FA2F
:101A500001DD0E6601E0C1F860800B207CE72661A5
:101A6000604884ED051A84ED061A2430A66080EDE6
:101A7000003A00F073FC0C206EE720EE880A60EE5E
:101A8000240A90ED040A04F0C7F918EE100A48453C
:101A9000D3DBA660E868E0600D205DE771EE851A93
:101AA000B0EE419AC4ED061A90ED040A04F0B4F9C0
:101AB000D4ED050AB4EEE08AF1EE10FA29DD94EDDA
:101AC000060A4F4920EE0A1A91ED030AB8EEC00A41
:101AD000DFED521AEA68636820EE210AC1EE001AAF
:101AE000BDEEE10A10EE100A30EEA90A101AC20F7C
:101AF000C2EBC2320244206943F8202084ED050A7B
:101B0000C9684FF0FF3202EBC111814201DB401C7A
:101B100020613B4890ED030AB8EEC00ADFED3F0AB2
:101B200020EE200AC0EE280AF4EEC80AF1EE10FA00
:101B300076D884ED059A0E20A6600DE771EEC51AE1
:101B4000C4ED061A90ED040A04F066F9D4ED050A16
:101B5000B4EEE08AF1EE10FA2ADD2069002827DDD4
:101B600094ED060A2649DFED2D1A20EE0A1A91EDB2
:101B7000030AEA68B8EEC00A20EE210AC1EE001A94
:101B8000BDEEE10A10EE101A30EEA90A511ACA0F82
:101B9000C2EBC2320A44616851F820301A4402EBA9
:101BA000D272521041F82020401E206184ED050AB7
:101BB0001348DFED1A0A90ED030AB8EEC00A20EED2
:101BC000200AC0EE280AF4EEC80AF1EE10FA27D86F
:101BD000E868E168084400EBD0704010E06000F075
:101BE000B1FC1EE0B4000020ACC52738920A864044
:101BF000ABAA2A3F17B7D13900FEFF467CD9A03BDC
:101C0000A4020020000000005C01002017B7513939
:101C1000F8240100CCCC4C3E7CD9A03FDB0FC9405E
:101C200062E00F2098E63448002211466368C568D8
:101C300004E000BF53F82160491C3244B1EBC51FDA
:101C4000F8DBE90192FBF1F14166E16847F6FF72CA
:101C5000C90191FBF2F1802500228E46E1606942C4
:101C60009A4601EBD17905EBD57C00274FEA690351
:101C700019E0C66806FB02F1C9014FEAE17801EB01
:101C8000586113EBE11102D501EBC61107E04FF0EB
:101C9000FF3808EBC618884501DA7642F4E75AF8AF
:101CA00021105B1C0F44B3EB6C0FE2DB97FBF5F3E9
:101CB0000EEB02017F2900DD8039B0F8646000EB93
:101CC00041019B1B521CA1F86830802ACDDBC0F873
:101CD00068B10AA000F086FC06E0617808A003F075
:101CE00013F8FFF761FD2670A068401CA060BDECF2
:101CF000068BBDE8F09F0000A40200203100000028
:101D000043616C6962204572726F722025640A0D0E
:101D10000000000070B50C4D0024286820B10B496C
:101D20000C7000F043FF2C60094D686820B94FF437
:101D3000205000F055FF686006480466C0F868410E
:101D40000120287070BD0000B000002000010020BC
:101D5000B4000020A4020020014890ED020A704760
:101D60007000002006484168042908D180680228D4
:101D700005D10448044980ED000A0120087070472D
:101D8000A4020020980200207000002016499FED58
:101D9000170A194AD1ED000A1649C0ED000A80ED74
:101DA000010A80ED020A1248C0ED030A80ED040A20
:101DB00080ED050A80ED080A91ED110A10EE101A67
:101DC000914201DB9FED0D0AF0EE000A20EE200AA1
:101DD000F5EE000A80ED070A20EE000A20EE200A48
:101DE00080ED060A704700005C0100200000000042
:101DF00070000020A40200200050C3450050C345DD
:101E00001C214FF4405000F041B910B54FF48054FC
:101E1000204600F03CF840F004012046BDE81040A8
:101E200000F034B910B54FF48054204600F02FF87C
:101E300020F004012046BDE8104000F027B970B53D
:101E400000F01EF805460A2002F048FB00F01BF8DF
:101E500004460A2002F042FBC5F30A01C4F30A005B
:101E600000EAC12070BD00F029B80000034910202D
:101E70000969884300D0012070470000000800482D
:101E8000002000F004B84FF40060AFF3008038B5D4
:101E90004BF6EF61ADF800104FF09044102140F484
:101EA0000040A1624FF47A72694604F00FFF1020DF
:101EB000A061BDF80000C0F30A0038BD10B586B0BF
:101EC000002000F077F8142002F008FB012000F059
:101ED00071F8FFF795FF642002F000FB0024012059
:101EE000CDE90140CDE90340034622462146204684
:101EF000009400F089F8642002F0F0FA0E220D211F
:101F0000032000F09FF8642002F0E8FA0E230C2270
:101F10000321012000F09FF8642002F0DFFA032083
:101F200001940294CDE903400346002201211046AA
:101F3000009400F04BF8642002F0D0FA0F20012248
:101F4000009003231146002000F090F8642002F076
:101F5000C5FA4FF48050FFF79AFF641E24281FD162
:101F60004FF4C050FFF793FFA0F54071DE3917D151
:101F70004FF40050FFF78BFFA0F5E061CE390FD191
:101F80004FF44050FFF783FFA0F50071C33907D12C
:101F90004FF42050FFF77BFFA0F580717F3902D00E
:101FA000204606B010BD024800F0FCFA0020F8E719
:101FB0003002002000284FF090414FF0080001D07F
:101FC000886100E08862022002F07DBAF0B48002ED
:101FD000DDE9044540EA412040EA0220DDE90667E8
:101FE00040EA831040EA441040EA051040EAC60087
:101FF00040EA8700DDF820C0F0BC40EA0C0081B266
:102000004FF4405000F042B8F0B44002DDE904451E
:1020100040EA012040EAC210DDE9066740EA4310C9
:1020200040EA041040EAC50040EA860040EA470062
:10203000DDF820C0F0BC40EA0C0081B24FF48050C3
:1020400000F024B8000240EA0110104381B24FF4BE
:10205000C05000F01BB8800240EA012040EA0210A4
:10206000184381B24FF4005000F010B830B4800231
:1020700040EA012040EA8210029C40EA031020431B
:1020800081B230BC4FF42050AFF3008038B5024627
:10209000C1F30A004BF6EF611043ADF800104FF0AA
:1020A00090441021A1624FF47A72694604F00EFE4A
:1020B0001020A06138BD704730B504F00FFF41001B
:1020C00000EE901A4B4CF8EEE00A9FED4B1A60EED2
:1020D000810ADFED4A1A4A4DE06080EEA11A84EDD4
:1020E000061A696E411A00EE901AB8EEE02AD5ED94
:1020F000030AF8EEE00A22EE202AC2EE210AFDEEE3
:10210000E01AF8EEE11A70EEE10ADFED3E1A60EE39
:10211000A10AC4ED070AF5EEC00AF1EE10FA01D2E9
:1021200070EEA10AC4ED070A6169401AB0F5804F4C
:1021300002DBA068401E04E010F5804F02DCA068BE
:10214000401CA06081EE212AD4ED020A5FF001005C
:10215000F8EEE00A32EE202A84ED002AD4ED010ADE
:1021600084ED012A72EE600A80EE801AF0EE410AD8
:10217000C0F1270104EB810191ED0D2AC0F1280186
:1021800004EB810172EE200A401C81ED0D2A282803
:10219000EEDB84ED0D1A9FED1C1A80EE812A84ED92
:1021A000082A04F0BBFE94ED081AB7EE002ADFED12
:1021B000170A22EE011AD4ED0B2A22EE000A00EED5
:1021C000A21A84ED081A94ED0C2A61EE211A00EE91
:1021D000820A84ED0A0AD5ED030AF8EEE00A61EE00
:1021E000A00AC4ED090AE068606184ED0B1A84ED71
:1021F0000C0A30BD5C010020DB0F494000FEFF46A9
:10220000A4020020DB0FC9400000204200000000B3
:1022100072B600F097F9FEE72DE9F0410F46064649
:1022200004F094F9002856D12C4C216889052168C6
:102230000DD521F4007121602168490505D521687B
:1022400021F48061216003250AE0012508E04905A9
:1022500005D5216821F480612160022500E0002578
:10226000374416E06069F1B220F4FC7040EAC10026
:102270006061606940F002006061606940F4803034
:10228000606104F063F9616921F4FD71616110B965
:10229000761CB742E6D8012D01D0032D0BD1216861
:1022A00041F400612160216821F40061216021680E
:1022B00041F400712160022D01D0032D0BD1216862
:1022C00041F480512160216821F48051216021680E
:1022D00041F480612160BDE8F081000000200240EF
:1022E00005494FF0FF304A6942F000424A614969AE
:1022F000002900DA00207047002002402DE9F0415B
:1023000016461F46054604F021F900280ED1084C58
:10231000606940F0010060612E60BFF36F8F6F60F5
:1023200004F014F9616921F001016161BDE8F081F7
:1023300000200240064900204A69002A07DA054ABF
:102340008A60054A8A604969002900DA401E7047A0
:102350000020024023016745AB89EFCD10B5EFF3B4
:10236000108472B602F000F8FFF75CFD024901200C
:10237000087084F3108810BD1800002030B50446A2
:102380002DED068BF0EE61AA04F1140289B0F0EE97
:10239000411AF0EE608AB0EE408A92EC030A01A97D
:1023A000684603F023FE9DEC020A05A904A8B0EEDE
:1023B000611A04F00DFBD4ED0B0A9FED590A9DED57
:1023C000041A60EE801ADFED570A574D78EE419AF5
:1023D00041EE201AC4ED0B1AD4ED0C1A61EE801AEE
:1023E0009DED050A40EE201A38EEC0AAC4ED0C1A85
:1023F000D5ED080A94ED0E0A94ED0F9A00EEA90AA5
:1024000000EE8A9AD4ED040A9FED481AF7EE001AFE
:1024100020EE811AC1EE810A60EE808A20EE898A60
:1024200028EEA80A08EE080A02F0AAFFF0EE400A19
:102430009FED3F1A81EE200A10EE100AB0F17E5F88
:1024400012DA68EE808A28EE008AD4ED0E0A9FED3B
:10245000390A60EE800AC4ED0E0AD4ED0F0A20EEB0
:10246000800A84ED0F0A15E095ED091A9FED320AF6
:10247000D4ED0E0A21EE001A49EE810AC4ED0E0ACF
:1024800095ED091AD4ED0F0A21EE000A4AEE000A72
:10249000C4ED0F0A94ED0B0AD4ED0C0A03A920EE4B
:1024A000280A02A8B0EE6A1A08EE200AF0EE480ADE
:1024B00084ED0D0AB0EE680A04F0C4F808AA07A972
:1024C00006A8DDED030A9DED020A04F031FCDDED06
:1024D000060A9FED1A0A1A4960EE800AFCEEE00A2D
:1024E00010EE900A80B20860DDED070A091F60EE69
:1024F000800AFCEEE00A10EE900A80B20860DDED82
:10250000080A091F20EE800ABCEEC00A10EE100A6D
:1025100080B2086009B0B0EE490ABDEC068B30BD50
:102520003333733FCDCC4C3DA4020020ABAA2A3FED
:10253000AC5C313FA4707D3FACC52738008054456A
:102540003C2C014010B5EFF3108472B6FFF75DFC30
:1025500001F0FAFE02490020087084F3108810BDD3
:10256000180000200C4A40F2A4611160121F116093
:10257000121F11600A499FED090A81ED080A81EDD9
:10258000090A81ED0A0A80ED0B0A80ED0C0A80ED44
:102590000E0A80ED0F0A70473C2C0140000000003D
:1025A000300200202DE9F041002704463E464FF45A
:1025B0007A783D46642001F091FF20886D1C074425
:1025C000608845450644F5DB97FBF8F0206496FBF0
:1025D000F8F06064BDE8F0810148007870470000C1
:1025E0002C0000202DE9F14FAEA10098FDF788FEE8
:1025F0000027AD4D00287DD0ACA10098FDF780FEEE
:10260000AB4C4FF00108A5F11006002873D0A9A12A
:102610000098FDF775FE4FF0020900286CD0A6A1C6
:102620000098FDF76DFE4FF0030B00287ED0A3A1AC
:102630000098FDF765FE4FF0040A002877D0A0A1AE
:102640000098FDF75DFE002872D09EA10098FDF76E
:1026500057FE00286DD09CA10098FDF751FE002880
:1026600068D09AA10098FDF74BFE00287DD098A174
:102670000098FDF745FE002878D096A10098FDF758
:102680003FFE002873D094A10098FDF739FE002882
:102690006ED092A10098FDF733FE002869D090A17A
:1026A0000098FDF72DFE002875D08EA10098FDF74B
:1026B00027FE002870D08C4B8CA1A3F10A028D4814
:1026C000FDF72CFE0021884802F078FE864886ED52
:1026D000030A89A10A38FDF713FE884D00286FD040
:1026E000814887A10A38FDF70BFE002869D085A133
:1026F0007D4802E042E043E04FE00A38FDF700FE8B
:10270000002870D0784880A10A38FDF7F9FD00282C
:102710006AD075487EA10A38FDF7F2FD00286FD017
:1027200071487DA10A38FDF7EBFD04E038E049E08F
:102730004EE051E054E000287ED06B4878A10A3882
:10274000FDF7DEFD002878D0674877A10A38FDF74D
:10275000D7FD002872D0644875A10A38FDF7D0FD76
:10276000002809D196ED030A04E03EE040E043E092
:1027700047E04AE084ED660ABDE8F88F6F7008E034
:1027800030680028F8D1D4F868010028F4D085F822
:102790000180AF70F0E73CE046E085F80190F8E793
:1027A00030680028E8D1D4F868010028E4D06068D7
:1027B0000028E1D1A0680228DED185F801B0E8E761
:1027C00045E049E030680028D6D185F801A0E0E76F
:1027D00059A0C4F8089036E05FA0C4F8088032E041
:1027E00065A0A7602FE03CE043E06BA067602AE0B3
:1027F00071A0C4F8048026E077A0C4F8049022E019
:102800003CE07DA0C4F804B01DE083A0C4F804A09F
:1028100019E0D4F87401C0F10101C4F87411BDE8E5
:10282000F84F85A002F070BA4FF090420221506933
:10283000814300F0020002E025E029E02DE041EABA
:102840000040906181A0BDE8F84F02F05DBA96EDBE
:10285000030A85ED020A8FE796ED030A85ED010A6A
:102860008AE796ED030A85ED000ABDE8F84FFFF709
:1028700079BA96ED030A84ED670A7DE796ED030ABF
:1028800084ED680A78E796ED030A84ED690A73E738
:1028900096ED030A84ED640A6EE796ED030A84ED73
:1028A000650A69E7310000002C00002032000000BA
:1028B000A4020020330000003400000035000000B6
:1028C000700000007600000074000000610000004D
:1028D0007300000064000000660000006700000054
:1028E0007A0000006E0000008E0200202573202573
:1028F000730000004801002074696E0098020020F7
:1029000076696E0070696E00706F73700000000071
:10291000706F736900000000706F73640000000046
:1029200076656C700000000076656C690000000040
:1029300076656C640000000073657420636F6E74CC
:10294000726F6C206D6F646520746F20504F534917
:1029500054494F4E0D0A000073657420636F6E7406
:10296000726F6C206D6F646520746F2056454C4FFC
:10297000434954590D0A000073657420636F6E74E7
:10298000726F6C206D6F646520746F20544F5251CC
:1029900055450D0A0000000073657420696E70755E
:1029A00074206D6F646520746F20504153535448F8
:1029B000524F5547480D0A0073657420696E707553
:1029C00074206D6F646520746F20544F52515545CB
:1029D0005F52414D500D0A0073657420696E707529
:1029E00074206D6F646520746F2056454C5F5241B2
:1029F0004D500D0A0000000073657420696E7075FB
:102A000074206D6F646520746F20504F535F46498A
:102A10004C5445520D0A000073657420696E707540
:102A200074206D6F646520746F20545241505F5460
:102A300052414A0D0A000000616E7469636F676756
:102A4000696E672025640D0A0000000064697373D5
:102A5000706174696F6E0D0A000000002DE9F0418D
:102A6000454D2DED028B68782978884207D003F018
:102A700015FDA87818B16878287003F08FFC3E4CDB
:102A800028789FED3E8A3E4E3E4FDFF8FC80103C9A
:102A900005283CD2DFE800F06C0329032D003B48F9
:102AA00003F0C6FA96ED071AF0EE400A96ED090A11
:102AB0009FED372AF0EE411A324840EE021AB0EE8E
:102AC000480AFFF75BFC84ED020A96ED080AD8ED90
:102AD000170AB0EEC00AB4EEE00AF1EE10FA16DD05
:102AE000206840F08050206011E02648FEF778FE14
:102AF0000DE0284803F0DEFF2648D6ED071A97EDD3
:102B0000040A90ED031AF0EE480A03F085F997EDF8
:102B1000040AD8ED160AB4EEE00AF1EE10FA03DB6F
:102B2000216841F080412160D8ED150AB4EEE00A39
:102B3000F1EE10FA03D8206840F000502060FFF753
:102B400095F920B1FFF77BF92168084320602068E0
:102B500020B1FFF7F7FC00206870A870206861685A
:102B6000884205D021680CA002F0CEF82068606091
:102B7000BDEC028BBDE8F0812C00002000000000BD
:102B80005C01002030020020A402002098020020F6
:102B900082A87B38743400204572726F7220436FB4
:102BA00064653A2025580D0A0000000030B4002862
:102BB00011D00A4A50F8041C0838D36819420AD0C8
:102BC0000468002C07D1994341605368194451604F
:102BD00030BC03F049BF30BC70470000E800002063
:102BE0002DE9F041214E05460027306808B903F071
:102BF00015FFF068054236D1ADB30835680704D03B
:102C000005F00700C0F10800054465B3706885420F
:102C100029D81648103001460C6801E020460C46C1
:102C20006168A94202D221680029F7D131688C423B
:102C300019D007682168016060680837411B1029B6
:102C400004D960194160656003F00EFF6168706827
:102C5000401A7060B268904200D2B060F0680143E0
:102C60000020C4E900013846BDE8F081E8000020FA
:102C7000FFF7CEFAFEE7000010B5224C606801F0C5
:102C80004DFC00283CD001F04FFC6060FFF7A4FC35
:102C900040F2DC514FF6FF7240B14FF496730128B9
:102CA0000FD0022817D0042827D10AE0208810B1BD
:102CB000642802D01EE0012000E0002000F024F88B
:102CC0001BE020880028F6D06428F6D0C828F2D06F
:102CD0009842F2D00EE020880028ECD06428ECD096
:102CE000C828E8D09842E8D0B0F5C87FE3D0B0F566
:102CF000FA7FE2D0884200D322802088401C2080C6
:102D000010BD0000A8000020044900284FF040003A
:102D100001D0886170478862704700000004004855
:102D200030B54FF0A0444B68A46800220E4D04F06B
:102D30000104AD6805F001052C4302D001221046C4
:102D400030BD0A4D53B10C681C43D1E902310B432D
:102D500081681C4329400C438460F0E7836809685C
:102D60002B400B438360EAE700010050E030C0FFD6
:102D700010B54B688468002214F0010F02D00122C4
:102D8000104610BD33B1D1E902342343C46824F0A6
:102D9000047403E0C368CC6823F004732343C36066
:102DA000D1E900310B43C16C6FF308010B43C364DD
:102DB000E6E70C2202EA91110844D0F8800080B2C4
:102DC000704710B5C36C01F01F011F248C40C2F383
:102DD0008462A3438A401343C36410BD30B5836843
:102DE000002213F0010F02D00122104630BDD1E9BC
:102DF000003423438968C4684CF21805AC4321436E
:102E00000B43C360F1E7000070B54C688368002293
:102E100013F0010F02D00122104670BD002C0E4BA2
:102E20000C6807D08D682C43D1E9035635432C43F9
:102E30004D6904E0CD682C43D1E9045635432C4359
:102E4000C5681D402C43C4604968036B23F00F0321
:102E50000B430363E0E700001CC0F0FF0C2303EA10
:102E6000911310B51844036B01F01F011F248C400F
:102E7000C2F38462A3438A401343036310BD042357
:102E800003EAD15310B518444369C1F30451072430
:102E90008C40A3438A401343436110BD10B550F8E2
:102EA000B03FC1F31204A34302F01804024AE24007
:102EB0000A401343036010BDFFFF0700D0F8C02095
:102EC0006FF30D020A43C0F8C020026922F4803279
:102ED00001B1012142EA0141016170478268044B5E
:102EE00001F080411A400A4342F00041816070477E
:102EF000C0FFFF3F044908B5CA6C0243CA64C96CED
:102F00000140009108BD000000100240044908B5CE
:102F1000CA6C0243CA64C96C0140009108BD00003C
:102F200000100240044908B5CA6C0243CA64C96C67
:102F30000140009108BD000000100240F0B50A6891
:102F40000F2692FAA2F2B2FA82F303248AE0012554
:102F50009D402A407ED04D68012D01D0022D20D108
:102F60008D68876892FAA2FCBCFA8CFC4FEA4C0E82
:102F700004FA0EFC27EA0C0792FAA2FCBCFA8CFCBD
:102F80004FEA4C0C05FA0CF52F438760CF680D68AB
:102F9000D0F804C02CEA050C7D434CEA050CC0F8BF
:102FA00004C00F69D0F80CC092FAA2F5B5FA85F505
:102FB0004FEA450E04FA0EF52CEA050C92FAA2F53A
:102FC000B5FA85F56D00AF404CEA070CC0F80CC0AF
:102FD0004D68022D2FD1FF2A15D8D1F814C0056AEB
:102FE00092FAA2F7B7FA87F7BF0006FA07F7BD43D0
:102FF00092FAA2F7B7FA87F7BF000CFA07FC45EA86
:103000000C05056217E0D1F814E0476A150A95FA35
:10301000A5FCBCFA8CFC4FEA8C0C06FA0CFC95FA69
:10302000A5F5B5FA85F5AD0027EA0C070EFA05FE01
:1030300047EA0E0747624D68076892FAA2FCBCFA9D
:103040008CFC4FEA4C0C04FA0CFE27EA0E0792FAAD
:10305000A2F200E005E0B2FA82F2520095402F435E
:1030600007605B1C0A6832FA03F57FF470AF00203A
:10307000F0BD4FF47A71B0FBF1F14FF0E020491E42
:1030800041610021816105210161704710B5002473
:10309000C02823D11248D0F8880000F0C00040F4C6
:1030A00040004038B0F540000AD040280CD08028BD
:1030B0000FD001F0A9F901F077F901F085F901E0ED
:1030C00001F0A2F9044609E000F068F830B1054CBF
:1030D00004E000F06BF808B14FF40044204610BD46
:1030E000001002400024F40070B5002429492A4D44
:1030F0004FF40046032804D00C281AD030282FD0D3
:1031000040E0D1F888006FF4403100F0030040F453
:10311000403040180AD0012836D002282ED001F0C5
:1031200073F901F041F901F05FF917E001F06CF972
:1031300014E0D1F8880000F00C0040F44020001F9B
:10314000B0F54020F2D004281ED0082816D000BFC9
:1031500001F05AF901F028F901F036F9044611E0BE
:10316000D1F8880000F0300040F440101038B0F57D
:103170004010DBD0102807D02028E9D100F016F845
:1031800000B13446204670BD00F008F80028F9D0A0
:103190002C46F7E7001002400024F40002480068C3
:1031A000C0F3802070470000001002400248D0F8B1
:1031B0009000C0F3400070470010024003498A6845
:1031C00022F0F00202438A607047000000100240C3
:1031D00010B503680122C3F3801373BBD1E9002348
:1031E0001A43D1E9033423431A434B691A438B69C9
:1031F0001A43CB691A430B6A1A4303684FF6BF742C
:10320000A3431A430260426840F604739A434B6931
:1032100042EA13428B681A4342608A68B2F5006F33
:1032200003D2426842F4805242600A6AB2F5005FFB
:1032300002D1898C89B201610022C16921F4006147
:10324000C161104610BD00000149086070470000D0
:103250001000002030B50A7B8B681F4C1A434B6866
:1032600022F480621A430B6822F400621A43CB896D
:1032700022F480521A430B6922F400521A43CB6A9B
:1032800022F480421A4322F400421A43114B98421E
:1032900001D0A04207D14D6922F470222A438D69E2
:1032A00022F080522A43984201D0A0420FD14B6AAB
:1032B00022F470021A43CB6922F080721A430B6A1F
:1032C00022F000721A43896A22F000520A434264D3
:1032D000002030BD002C0140003401402DE9F043B6
:1032E0000268224B224D234E234C4FF080499842D6
:1032F00007D0484505D0A84203D0B04201D0A04233
:1033000003D14F6822F070023A431C4FDFF870C0BF
:10331000DFF8708098420DD048450BD0A84209D004
:10332000B04207D0A04205D0B84203D0604501D0DA
:10333000404503D1CD6822F440722A4302608A6876
:10334000C2620A888262984207D0A04205D0B84281
:1033500003D0604501D0404501D10969016341694D
:1033600041F0010141610020BDE8F083002C0140E3
:1033700000040040000800400034014000400140CB
:103380000044014000480140012922D0042922D0F4
:10339000102922D0402922D0B1F5807F21D0B1F56B
:1033A000806F20D0B1F5805F1FD0B1F5804F1ED067
:1033B000B1F5803F1DD009210F4A1830525C1044EE
:1033C00002680D4B0A335B5C042199408A4302601A
:1033D00070470021F0E70121EEE70221ECE703212D
:1033E000EAE70421E8E70521E6E70621E4E707210B
:1033F000E2E70821E0E70000586F0008012922D029
:10340000042922D0102922D0402922D0B1F5807F72
:1034100021D0B1F5806F20D0B1F5805F1FD0B1F51C
:10342000804F1ED0B1F5803F1DD009210F4A1830C2
:10343000525C104402680D4B0A335B5C08219940D2
:103440000A43026070470021F0E70121EEE7022104
:10345000ECE70321EAE70421E8E70521E6E7062196
:10346000E4E70721E2E70821E0E70000586F0008E1
:103470002DE9F0478C460121BCF5805F25D009DCA1
:10348000BCF1010F14D0BCF1100F15D0BCF5807F3A
:1034900016D116E0424B434C434D444E444F4FF03F
:1034A0000009BCF5803F14D0BCF5801F74D141E009
:1034B000114600F00FFE02E0114600F057FE0146F3
:1034C0006AE0114600F0A2FEF9E7114600F0ECFEBA
:1034D000F5E7016A21F480310162D0F820C0016D66
:1034E000DFF8D0802CF4003C01EA0801D2F800801B
:1034F000984241EA0801B2F810804CEA084CB2F850
:1035000004802CF4803C4CEA084C07D0A04205D043
:10351000A84203D0B04201D0B84206D143689469B2
:1035200023F4803343EA042343600165D168826C4D
:1035300081642EE0016A21F480110162D0F820C07C
:10354000016DDFF874802CF4001C01EA0801D2F848
:103550000080984241EA0821B2F810804CEA085CE9
:10356000B2F804802CF4801C4CEA085C07D0A0421E
:1035700005D0A84203D0B04201D0B84206D143687A
:10358000946923F4802343EA842343600165D1686E
:10359000C164C0F820C049460846BDE8F087000075
:1035A000002C014000340140004001400044014033
:1035B000004801408FFFFEFFFF8FFFFE2DE9F04125
:1035C000044600680D46012610F0010F4CD1296910
:1035D000A868EA69084369691143084321682B4ACE
:1035E000114008432060E868616821F440510143BC
:1035F0006160A869A16821F440710143A160244879
:10360000844201D1032008E02248844201D10C20E9
:1036100003E02148844203D13020FFF765FD05E037
:103620001E48844219D1C020FFF730FDA8B1696857
:1036300099B12A680026EB690B2A0ED8184FD2B22E
:10364000B3F5004F57F82220B0FBF2F00FD000EB9B
:103650005100B0FBF1F080B2E0602888E16A80B2EE
:1036600021F00F010143E1623046BDE8F0814000E6
:1036700000EB5100B0FBF1F081B24FF6F07201EABD
:103680000200C1F342010843E6E70000F369FFEFDF
:10369000003801400044004000480040004C004019
:1036A0006C6F000870B598B000241494159418211C
:1036B00006A81694FCF719FE119412941394109412
:1036C0000C940D940E94182168460F94FCF70DFE8F
:1036D0004FF40050FFF71AFC0420FFF717FC0220FC
:1036E000FFF714FC04200325CDE900055D4E694673
:1036F00004943046FFF722FC0820CDE90005694616
:1037000004943046FFF71AFC0226CDE900656946AD
:1037100055480494FFF712FC544800680022C0F397
:103720000220012100F0BCFC0146122001F009FB3F
:10373000122001F0F9FA4FF0A0451494159414A941
:1037400028461694FFF74AFB0694079408940994B8
:103750000A9406A928460B94FFF756FB0021284639
:10376000FFF7ACFB286940F20341884328614FF41E
:103770004030CDE9100410A93D48FFF7D1FA802070
:103780000C90CDE90D640CA928460F94FFF7F0FAD0
:10379000E8683849084040F00040E860E86C20F4F0
:1037A000C07040F08000E864A86833490840A86011
:1037B000A8683249084040F08050A860304831493C
:1037C0000068B0FBF1F000EB800080000A21B0FB44
:1037D000F1F000E0401E0028FCD12B4C06212246CF
:1037E0002846FFF73BFB012221462846FFF747FB0F
:1037F0007F2221462846FFF751FB244C092122460F
:103800002846FFF7DEFA042221462846FFF737FB59
:103810007F2221462846FFF741FB1D4C40F20F1145
:1038200022462846FFF7CDFA012221462846FFF717
:1038300026FB7F2221462846FFF730FB154C40F23D
:10384000152122462846FFF7BCFA012221462846C8
:10385000FFF715FB7F2221462846FFF71FFB18B014
:1038600070BD000000080048000400480CED00E0B6
:1038700000030050FFFFDF7FC0FFFF5FC0FFFF7F3F
:1038800010000020400D0300000021C30010603232
:10389000000180210002B02570B594B0002510957C
:1038A0001195182106A81295FCF71FFD0C950D9592
:1038B0000E95182168460F95FCF717FD4FF4005040
:1038C000FFF724FB0420FFF721FB0220FFF71EFB7C
:1038D00020200324CDE90004694604955648FFF7EB
:1038E0002DFB0420CDE90004694604955348FFF7F9
:1038F00025FB534800680022C0F30220012100F09C
:10390000CFFB0146122001F01CFA122001F00CFA44
:103910004C4C1095119510A920461295FFF75EFAB0
:1039200006950795089509950A9506A920460B95D1
:10393000FFF76AFA00212046FFF7C0FA206940F23B
:103940000341884320618020CDE90C050E950CA928
:1039500020460F95FFF70CFAE0683B49084040F01D
:103960000040E060E06C20F4C07040F08000E06453
:10397000A06836490840A060A068354E304040F04D
:103980008050A060334834490068B0FBF1F000EB90
:10399000800080000A21B0FBF1F000E0401E00280A
:1039A000FCD12E4D06212A462046FFF757FA012268
:1039B00029462046FFF763FA7F2229462046FFF773
:1039C0006DFA274D09212A462046FFF7FAF904220D
:1039D00029462046FFF753FA7F2229462046FFF763
:1039E0005DFA0A2000F06FFD4FF0A0457F212846C8
:1039F000FFF774FAA868C00FFCD17F212046FFF7BB
:103A00006DFAA068C00FFCD1A8683040401CA860C7
:103A1000A0683040401CA060606840F040006060DA
:103A2000A868304040F00800A860A068304040F02E
:103A30000800A06014B070BD0008004800040048F1
:103A40000CED00E000010050FFFFDF7FC0FFFF5FD3
:103A5000C0FFFF7F10000020400D03000008302E43
:103A6000001060322DE9F04387B018216846FCF75A
:103A70003CFC2020FFF73EFA0420FFF73BFA012030
:103A8000FFF738FA0220FFF735FA4FF09046022090
:103A9000B0620820B062284F4FF48059C7F82890D0
:103AA0004020B8621020B06100240125CDE9005407
:103AB000694630460494FFF741FA02200090CDE9B0
:103AC00001540394694630460494FFF737FA0820FE
:103AD0000090CDE901540394694630460494FFF701
:103AE0002DFA4FF01008CDF80080CDE90154039471
:103AF000694630460494FFF721FACDE9008469460F
:103B00000E480495FFF71AFACDF80090CDE901545C
:103B10000394694638460494FFF710FA4020009059
:103B2000CDE901540394694638460494FFF706FA38
:103B300007B0BDE8F083000000040048000800481A
:103B40002DE9F04192B0282106A8FCF7CEFB182100
:103B50006846FCF7CAFB2B48016E41F480510166B0
:103B6000006E00F4805010900120FFF7DBF9202751
:103B7000022500240097CDE901540526CDE904462D
:103B80004FF09048694640460394FFF7D7F940202C
:103B90000090CDE90154CDE90446694640460394BE
:103BA000FFF7CCF980200090CDE90154CDE904461F
:103BB000694640460394FFF7C1F94FF48270CDE99E
:103BC00006404FF47060CDE9080401200A904002DD
:103BD0000B900720CDE90C74CDE90E400A4C06A9E4
:103BE0002046FFF7F5FA606820F01000606060681A
:103BF00020F008006060206840F04000206012B0B3
:103C0000BDE8F08100100240003001402DE9F04194
:103C100092B0282106A8FCF768FB18216846FCF73B
:103C200064FB2C484FF48048816D41F480418165EC
:103C3000806D00F4804010900220FFF773F9022598
:103C40004FF40050CDE9000500240526CDE90254CB
:103C5000214FCDE9044669463846FFF76FF9CDE9B3
:103C60000085CDE90254CDE9044669463846FFF7A0
:103C700065F9A803CDE90005CDE90254CDE9044674
:103C800069463846FFF75AF94FF48270CDE906408D
:103C90004FF47060CDE9080401200A9040020B90B7
:103CA0001820CDE90C040720CDE90E400B4C06A9E5
:103CB0002046FFF78DFA606820F0100060606068B1
:103CC00020F008006060206840F04000206012B0E2
:103CD000BDE8F081001002400004004800380040B8
:103CE0002DE9F043A1B014211AA8FCF7FEFA202117
:103CF00006A8FCF7FAFA30210EA8FCF7F6FA18210C
:103D00006846FCF7F2FA614E4FF40069306E40F4F9
:103D100000603066306E002400F400601F90402088
:103D20001B9040F64850CDE91C040120584D1E90D0
:103D3000ADF868401AA92846FFF7D0FA286840F085
:103D40008000286001212846FFF758FB6020CDE95C
:103D5000060440F2A460CDE908400A940B940C9448
:103D600006AA012128460D94FFF782FB012128466F
:103D7000FFF70AFB10212846FFF740FB06AA102197
:103D80002846FFF775FB10212846FFF7FDFAAF150F
:103D900039462846FFF732FB06AA39462846FFF780
:103DA00067FB39462846FFF7EFFA4FF48058414643
:103DB0002846FFF723FB40F63E50099006AA4146ED
:103DC0002846FFF755FB41462846FFF7DDFA6868AD
:103DD0003049084040F070006860686820F4700066
:103DE0006860A86820F08000A8600E946814CDE98F
:103DF00012040F948DF844401094ADF8464000032F
:103E00001494CDE91540179418940EA928461994D6
:103E1000FFF720FAF06C40F00100F064F06C0097BE
:103E200000F001001F900225CDE901540626CDE9DE
:103E300004464FF09047694638460394FFF77EF8F2
:103E400028020090CDE90154CDE904466946384680
:103E50000394FFF773F868020090CDE90154CDE9AF
:103E60000446694638460394FFF768F8CDF8009099
:103E7000CDE901540B20CDE904406946039438464E
:103E8000FFF75CF821B0BDE8F083000000100240AD
:103E9000002C01408FFFFFFD10B586B0142168464D
:103EA000FCF723FA2748816D41F002018165806D9E
:103EB00000F00200059024480068C0F30220C0F121
:103EC0000701042900D90421021D072A01D200207C
:103ED00000E0C01E01228A40521E02F0040181400F
:103EE0001A4A0020090182F800144FF0E0224FF036
:103EF0000051C2F80011ADF8000048F2D041CDE900
:103F00000101134C039069462046FFF7E7F920684A
:103F100020F080002060A0680E490840A060606822
:103F20000D4908406060A06820F08000A060E06853
:103F300040F00100E060206840F00100206006B021
:103F400010BD0000001002400CED00E01DE000E09C
:103F500000040040F8BFFEFF8FFFFFFD2DE9F04198
:103F600090B0202106A8FCF7C0F918216846FCF79C
:103F7000BCF94348816D41F400318165816D01F4E4
:103F800000310E91C16C41F00201C164C06C022489
:103F900000F002000E9008200025CDE90004032760
:103FA0000726CDE90275DFF8DC80CDE904566946C5
:103FB0004046FEF7C3FF10208DE8910001240596CE
:103FC000CDE9035469464046FEF7B8FF2E48006825
:103FD000C0F30220C0F10701042900D90421021D09
:103FE000072A01D2002000E0C01E8C40641E04F0AD
:103FF000030181400801254981F80004234940203C
:104000002239C1F800014FF4E130CDE906500C200F
:10401000CDE90A501E4C089509950C9506A9204635
:104020000D95FFF7CBFAA06865F35F70A060A068FC
:1040300020F06060A060206820F000502060606880
:1040400020F490406060A06820F02A00A060206802
:1040500040F001002060E069C0F340500028FAD031
:10406000E069C0F380500028F5D0206840F02000BF
:104070002060206840F01000206010B0BDE8F081A2
:1040800000100240000400480CED00E026E000E0D3
:1040900000440040FEF7BCF8FEE7FEF7B9F8FEE783
:1040A00030B500F00703C3F10704042C00D9042441
:1040B000181D072801D2002300E0DB1E012505FAA8
:1040C00004F0401E084098409D406D1E1540284356
:1040D00030BD000030B5026A22F001020262036ABC
:1040E000446882691B4D22F003022A400D6823F0C8
:1040F00002032A430D692B434D6823F001032B4330
:10410000154DA8420BD0154DA84208D0144DA84219
:1041100005D0144DA84202D0134DA84212D14D69CA
:1041200023F0080343EA85038D6823F0040343EA80
:1041300085038D6924F480742C43CD6924F40074C4
:1041400044EA450444608261C96841630362002017
:1041500030BD00008FFFFEFF002C01400034014005
:1041600000400140004401400048014030B5026A6F
:1041700022F010020262056A426883691D4C23F432
:10418000407323400C6843EA042425F020030D69A2
:1041900043EA05134D6823F0100343EA0513164D57
:1041A000A8420BD0154DA84208D0154DA84205D005
:1041B000144DA84202D0144DA84213D14D6923F0EA
:1041C000800343EA85138D6823F0400343EA851397
:1041D0008D6922F4806242EA8502CD6922F4006290
:1041E00042EAC50242608461C968816303620020BB
:1041F00030BD0000FF8FFFFE002C01400034014065
:1042000000400140004401400048014030B5026ACE
:1042100022F480720262046A4368C2691C4D22F073
:1042200003022A400D6824F400742A430D6944EA0D
:1042300005244D6824F4807444EA0524154DA842F1
:104240000BD0154DA84208D0144DA84205D0144DEE
:10425000A84202D0134DA84213D14D6924F4006442
:1042600044EA85248D6824F4806444EA85248D69B9
:1042700023F4805343EA0513CD6923F4005343EA42
:1042800045134360C261C968C1630462002030BD48
:104290008FFFFEFF002C0140003401400040014030
:1042A000004401400048014030B5026A22F48052C7
:1042B0000262056A4268C3691D4C23F440732340BF
:1042C0000C6843EA042425F400530D6943EA0533DE
:1042D0004D6823F4805343EA0533164DA8420BD0B2
:1042E000154DA84208D0154DA84205D0144DA8423E
:1042F00002D0144DA84213D14D6923F4004343EA80
:1043000085338D6823F4804343EA85338D6922F435
:10431000804242EA8512CD6922F4004242EAC51287
:104320004260C461C96801640362002030BD0000BE
:10433000FF8FFFFE002C014000340140004001408F
:1043400000440140004801400648416C21F400410E
:1043500041646FF001010161026912F0010FFBD0AD
:1043600001617047002C01400D4940F2A4600860D3
:10437000091F0860091F086009486FF001013C38F7
:104380000161026912F0010FFBD00161016A40F284
:10439000111211430162416C41F4004141647047C4
:1043A0003C2C01407047000005498968054A01F02E
:1043B000F0010909515C01F01F01C840704700007D
:1043C000001002409C6F000805498968054A01F405
:1043D000E06102EB1121097801F01F01C84070472C
:1043E00000100240AC6F000805498968054A01F4D5
:1043F000605102EBD121097801F01F01C8407047DC
:1044000000100240AC6F00081549886800F00C03EA
:104410001448042B0DD04210082B09D00C2B08D1C6
:10442000CB6803F00303022B05D0032B03D101E07B
:10443000104670471046CA68C2F306224243C86855
:10444000C96800F0F003012000EB1313B2FBF3F294
:1044500001F0C06100EB51604000B2FBF0F070472A
:10446000001002400024F4000022144903E0521C12
:1044700092B2C82A17D88B68C3F34003002BF6D03A
:10448000C86000200E4A03E0401C80B2C8280AD849
:104490009368C3F3C013002BF6D1002005E0401C45
:1044A00080B2C82801D9002070478A6812F0010F35
:1044B000F5D002480C30006880B2704700380040E8
:1044C00000300140704730B504464FF47A7502E081
:1044D000284600F003F8641EFAD230BDF0B54FF064
:1044E000E0240021A3690C4EAA25A269934202D9B7
:1044F000A3EB020303E003D2A6EB02073B441944FB
:104500001346B1FBF5F2824205D2801AB1FBF5F2F7
:1045100005FB1211E9E7F0BD109802000149096896
:10452000081A704714000020014800687047000016
:10453000140000204FF0E0210F4848610F48006848
:10454000C0F30220C0F10702042A00D90422031D8F
:10455000072B01D2002000E0C01E012393405B1E08
:1045600003F002028240064B0020120183F8142D52
:1045700088610720086170470F9802000CED00E089
:104580000FE000E002480168491C0160704700002C
:104590001400002070B53648016821F00F0141F089
:1045A00004010160016801F00F010429FAD13148CA
:1045B00050F8801F21F4807101602F4C206840F476
:1045C000803020602068C0F340400028FAD0E168C5
:1045D00045F21350294A11400843E060E06840F07A
:1045E0008070E060206840F0807020602068C0F338
:1045F00040600028FAD0A06840F00300A06080204E
:10460000FEF7DCFDA06800F00C000C28FAD11C4875
:10461000016841F0807101601A48016841F00101B0
:1046200001600021416041686429FCD30020FEF74D
:10463000C5FDA06820F4E060A060A06820F4605090
:10464000A060114D2846FEF714FD2846FEF7FCFD3C
:10465000D4F8880020F00C00C4F88800D4F8880052
:1046600020F0405040F00050C4F8880070BD0000B9
:104670000020024000700040001002400C80FFF952
:10468000FCED00E0001000E080FE210A0248016815
:1046900041F470010160704788ED00E02DE9F04FB2
:1046A000574895B0016911F0010F7DD06FF00101FD
:1046B0000161544C0025207818B125705248FDF74F
:1046C00091FF50488068322857D14E4885604F4846
:1046D000C06CFCF774F880464C488946806CFCF747
:1046E0006EF8064649480F46006DFCF768F8DFF89B
:1046F00020A104460D46DAF80400FCF760F8CDE985
:104700000A01DAF80800FCF75AF8CDE90801DAF8EE
:104710000000FCF754F882463E488B46006AFCF7DE
:104720004EF8CDE906013B480068FCF748F8CDE9B2
:1047300004013648C069FCF742F8CDE9020133486C
:104740008069FCF73CF8CDE9000130484069FCF78E
:1047500036F841EC100B0EA853EC102B80E8F00358
:10476000DDE90A01CDE90C01DDE90801CDE90A0125
:1047700029A0CDE908AB00F0C7FA2248304C816887
:10478000491C8160D4F86801022835D12069FCF702
:1047900016F841EC100B2BA053EC102B00F0B4FAE0
:1047A0006069FCF70CF800E026E041EC100B2BA050
:1047B00053EC102B00F0A8FA606AFCF700F80546ED
:1047C0000E46206AFBF7FBFF41EC100BCDE90056CB
:1047D00053EC102B27A000F097FA2AA0E16800F014
:1047E00093FA2DA0216E00F08FFA31A0616E00F0D7
:1047F0008BFA0120C4F8680115B0BDE8F08F000005
:104800000004004000000020480100203002002089
:10481000980200205C0100206D75746520256620DB
:10482000256620256620256620256620256620250C
:10483000662025662025662025662025660D0A004F
:10484000A402002070686173655F72657369737498
:10485000616E6365203D2025660A0D0070686173F6
:10486000655F696E64756374616E6365203D2025C4
:10487000660A0D0050493A202566202025660A0D5B
:1048800000000000506F6C65207061697273203DFC
:104890002025640A0D000000456E636F6465722078
:1048A00064697220726576203D2025640A0D00003F
:1048B000456E636F646572204F6666736574203D54
:1048C0002025640A0D0000003349DFED320AB5EE01
:1048D000C00AD1ED001A91ED021A3048F1EE10FA3B
:1048E00002D2C0ED001A16E091ED062AF6EE002A7B
:1048F000B4EEC20AF1EE10FA13D2D1ED030A41EE82
:10490000001A20EEA22A60EE002A00EE801A42EE83
:10491000221AC0ED001A80ED011A00BFC0ED020A94
:10492000704791ED071A32EE011AB4EEC01AF1EE9B
:1049300010FA0ADD70EE421A91ED091A91ED040A9F
:1049400000EE211A80ED001A17E0D0ED031A124A8A
:10495000F4EEC01A92ED011AF1EE10FA10DD30EE0D
:10496000610AD1ED050A60EEA21A20EE002A20EEBF
:10497000800A01EE821A80ED001A80ED010ACDE76F
:10498000F4EEC01AF1EE10FACAD880ED001AC0EDAC
:10499000010AC3E700000000180100205C34002079
:1049A00010B52DED0A8BB0EE62BAF0EE418AB0EE92
:1049B00000CAB0EE609A68EEA8BA6BEE0C0AF0EE90
:1049C00040AA84B0B0EE42AA8BEEA00AF0EE61CA13
:1049D0007AEEC99A10EE100AFBF7F1FECDE902015A
:1049E00018EE900AFBF7EBFECDE900010399019860
:1049F00061F31E0003909DED020B51EC100BFBF7D1
:104A000021FF00EE100A39EEC00A10EE100A00284D
:104A100002DABFEE008A01E0B7EE008A5F4C28EEB2
:104A20000A0A28EE281A68EE4B0A84ED030A28EEDB
:104A30002C0AC4ED050A84ED040A68EE001AB4EEEF
:104A4000E11AF1EE10FA03DD28EE4A1A84ED031A9A
:104A500030EE682A94ED031AF1EE402AB6EE00AA71
:104A6000C2EE011A82EEA02A70EE282AC4ED061AC0
:104A700061EE8A1A61EEA21A84ED082A22EE0A2A51
:104A800042EE001A28EE292A68EE212AB4EEE22A24
:104A9000F1EE10FA58D221EE0C0A6BEEA01A20EEBD
:104AA000200A70EEC10A40EE291A81EEA00A10EE2B
:104AB000100AFBF784FE9FED3ABB41EC100BB0EE01
:104AC0004B1AF0EE6B1A00F0CBF951EC100BFBF720
:104AD000B9FE00EE100A00F053FC20EE088A84EDC7
:104AE000048A78EE680A94ED031A80EE810A10EECB
:104AF000100AFBF764FE41EC110BB0EE4B0AF0EE2E
:104B00006B0A00F0ADF951EC100BFBF79BFEA061B6
:104B100094ED051AF1EE480A80EE810A10EE100AB3
:104B2000FBF74DFE41EC110BB0EE4B0AF0EE6B0AB9
:104B300000F096F951EC100BFBF784FE9FED1A0A7A
:104B4000206284ED070A05E079EEE10A80EE801A22
:104B500084ED071A94ED060AD4ED070A94ED081ABD
:104B6000124870EE200A70EE810AC0ED030A84ED4F
:104B7000009AC4ED01AAC4ED028AD4ED030A08EE3E
:104B8000809A20EE000A60EE8A0A00EE809A84ED98
:104B9000099A04B0BDEC0A8B10BD0000180100207A
:104BA0000000000000000000000000005C34002055
:104BB00030B5124CE0690022C0F30011104B1148CF
:104BC000012529B11021216241785A5405704270A3
:104BD000E169C1F3401161B14178122903D9DA7456
:104BE0000570427005E002781AB9626A5A54491C8D
:104BF0004170024908201831086030BD004400406F
:104C0000480100200000002070B50F4C002542F242
:104C10000806206818B93046FDF7E2FF20603246EA
:104C20000A49FBF749FB002242F20401206801F027
:104C3000EBF9216801F500514968814201D04FF03C
:104C4000FF35284670BD0000B000002000B8010804
:104C50002DE9F0471A4D286858B1EFF3108472B669
:104C6000FDF768FB05213720FDF7D6FA060004D0D2
:104C70001FE04FF0FF30BDE8F087002242F2040150
:104C8000286801F0C1F92F6842F20401DFF834808E
:104C9000C85100254FF4806907EBC500D0E9002317
:104CA00008EBC500FDF72AFB060002D16D1C4D453F
:104CB000F2D9FDF715FB84F310883046DBE70000DE
:104CC000B000002000B8010810B50B4C206820B9D6
:104CD00042F20800FDF784FF20609FED080AD4F837
:104CE000001000204FF4006201EB8003401C83EDB4
:104CF000000A9042F8DB10BDB00000200000000068
:104D0000FDF786FAFEE700000FB4054B10B503A9C6
:104D1000044A029800F0FCFC10BC5DF814FB000093
:104D20009D65000840010020002809DB00F01F02FB
:104D3000012191404009800000F1E020C0F80011FD
:104D400070470907090E002804DB00F1E02080F815
:104D50000014704700F00F0000F1E02080F8141DEF
:104D6000704700000000000030B52DED048B81B0CD
:104D7000B0EE408AF0EE608A6A4651EC180B01F002
:104D80001BFC00989FED329B7E300090002821DCB8
:104D900053EC192B51EC180BFBF724FD1AD0002112
:104DA00040F60800FBF7F2FE044651EC180BFBF747
:104DB00049FD08EE100A40F6080004EA0001FBF77E
:104DC000E5FEB5EEC08AF1EE10FA04BF022000F055
:104DD000CFFB2DE00098FF2830DB00210846FBF7D1
:104DE000D5FE00F4400553EC192B51EC180BFBF7E2
:104DF00011FD8CBF00240124022000F0B9FB9FEDBF
:104E0000168A4DB1002C0CBF4FF400004FF4800007
:104E1000A84218BF9FED118A04210846FBF7B6FE91
:104E2000002C01BFB1EE480A01B0BDEC048B30BDCF
:104E3000B0EE480A01B0BDEC048B30BD51EC180B4C
:104E4000FBF700FD01B000EE100ABDEC048B30BD95
:104E500000000000000000000000807FFFFF7F7F57
:104E600000B52DED048BB0EE418AF0EE618AB0EE14
:104E7000409AF0EE609A83B053EC182B51EC190B6A
:104E8000FBF754FE00F07040B0F1005F1AD018EE4E
:104E9000101A18EE900A8DED008B002918BF012121
:104EA000084320F00040C0F17F6000F1E040C00FF7
:104EB00001BFB0EE480AF0EE680A03B0BDEC048B07
:104EC00008BF00BDB0EE490A03B0F0EE690ABDECC0
:104ED000048B00BD0000000070B5D94B00242DEDFF
:104EE000020B2DED108BDDE91010984205DA20F051
:104EF00000429A4201D809D141B19DED100BBDECA1
:104F0000108B02B0BDE8704000F0FEBAB0F5801F13
:104F100026DA11430BD0002813DA012000F028FB19
:104F2000BDEC108B02B0BDE8704000F0F9BA022071
:104F300000F01EFB00F0D0FA51EC100B81F00041A4
:104F40009EE06FF035049FEDC00B53EC102B9DEDF0
:104F5000100B51EC100BFBF714FBCDE910010846C8
:104F600004EB2051C0F31304B948A1F2FF312044EF
:104F700000F4801080F07F6282F04052224301EB07
:104F800020559FEDB50B119253EC102B9DED100B9E
:104F900051EC100BFBF7EFFA41EC180BA01CC0F31F
:104FA00013009FEDAFDB9FEDB0EBB14E7E440328C5
:104FB0006CD296ED000B51EC180B53EC102BFBF759
:104FC00011FC1DD1002D01BF96ED000BBDEC108B27
:104FD00002B070BD2846FBF7B5FB41EC180B53EC53
:104FE0001D2BFBF7CEFA41EC190B53EC1E2B51ECA9
:104FF000180BFBF7C6FA53EC192BFBF71BFA3FE033
:105000009FED9D0B51EC180B53EC102BFBF7B9FAED
:105010009FED9B1B53EC112BFBF7B0FA41EC190BE6
:1050200053EC182B51EC180BFBF7ABFA53EC192B84
:10503000FBF7A7FA41EC190B002D04BF53EC192B19
:1050400051EC180B1AD02846FBF77CFB41EC1A0BED
:1050500053EC1D2BFBF795FA53EC192BFBF78EFA4B
:1050600053EC182BFBF787FA41EC180B53EC1E2B73
:1050700051EC1A0BFBF785FA53EC182BFBF77BFA74
:10508000BDEC108B02B041EC100B70BD9FED7E0BA0
:1050900051EC180B53EC102BFBF7CCF941EC100B37
:1050A00051EC180B53EC102BFBF7DDFA41EC190B0C
:1050B0002846FBF747FB41EC1B0B53EC192B51EC3B
:1050C000190BFBF75EFA41EC1A0B714853EC1A2BE3
:1050D000261851EC1A0BFBF754FA41EC1F0B6D48E4
:1050E000C4F1510404F5D724B0EE4F0AF0EE6F0A74
:1050F0000321784400F072F953EC1F2B51EC100B94
:10510000FBF73FFA41EC1C0B6348B0EE4F0AF0EEA0
:105110006F0A0421784400F061F953EC1A2B51EC2A
:10512000100BFBF72EFA344353EC1C2BFBF782F9E0
:1051300041EC1C0B002C4CDD9FED510B51EC180B7E
:1051400053EC102BFBF71DFA53EC182BFBF719FA55
:1051500041EC1A0B55B353EC1D2B51EC1B0BFBF719
:1051600010FA41EC1D0B53EC1C2B51EC1A0BFBF706
:1051700061F953EC192BFBF704FA53EC1D2BFBF7E9
:1051800059F953EC1A2BFBF7F9F953EC182BFBF7F1
:10519000F2F941EC180B53EC1E2B51EC1B0BFBF7F7
:1051A000F0F953EC182BFBF7E6F969E753EC1C2BED
:1051B00051EC1A0BFBF73EF953EC192BFBF7E1F915
:1051C00053EC1A2BFBF7DAF953EC182BFBF7D6F953
:1051D00056E735B353EC1D2B51EC1B0BFBF7D1F904
:1051E00041EC1A0B53EC1C2B51EC180BFBF7C3F9D9
:1051F00053EC192BFBF7C5F953EC1A2BFBF7BBF952
:1052000053EC182BFBF7B7F941EC180B53EC1E2BA2
:1052100051EC1B0BFBF7B5F953EC182BFBF7ABF973
:105220002EE753EC1C2B51EC180BFBF7A4F953ECB5
:10523000192BFBF7A6F953EC182BFBF79FF91FE787
:105240000000F07F0000000000000000000050435C
:10525000645F090000000000000000000000F03F53
:10526000763C7935EF39EA3D0000E0FE422EE63F1C
:10527000402C000000000000555555555555D53FB0
:10528000000000000000E03F0000000000000040BF
:1052900086EBF9FFC22A0000B82A000000000000D7
:1052A00010B52DED020B2DED088B84B09DED0C0B90
:1052B00051EC100BFBF7DEFB41EC180B9DED0C0BDA
:1052C00053EC182B51EC100BFBF755F941EC190B73
:1052D0000D989FED290B10F0004F53EC102B51EC63
:1052E000190B9FED21AB9FED22BB0ED0FBF77AFA95
:1052F0000ED953EC1B2B51EC190BFBF78BFA1CD27C
:1053000014E000BF41EC180B17E0FBF76BFA06D274
:1053100053EC1A2B51EC180BFBF72DF9F2E753EC79
:105320001B2B51EC190BFBF775FA06D853EC1A2B13
:1053300051EC180BFBF77EF8E4E78DED028B9DED49
:105340000C0B18EE901A10EE900A8DED000B61F325
:105350001E0003909DED020B04B0BDEC088B02B063
:1053600010BD000000000000000000000000F03F41
:10537000000000000000E03F000000000000E0BF6F
:1053800010B52DED028BB1EEC08A18EE100A20F098
:105390000040C0F1FF40C00F0AD010EE100A20F00C
:1053A0000040C0F1FF40C00F04BF012000F0E0F852
:1053B000B0EE480ABDEC028B10BD000008B59FEDB1
:1053C000060A0A4601468DED000A6846FBF7B0FA68
:1053D0009DED000A08BD00000000000070B5044605
:1053E0002DED028B4D1E00EBC500B0EE408AF0EEB5
:1053F000608A90ED000B35F0060017D053EC182BA7
:1054000051EC100BFBF7BDF841EC100B6D1E04EBDB
:10541000C50090ED001B51EC100B53EC112BFBF76A
:1054200009F841EC100B35F00600E7D1022D36D01B
:10543000042D1CD0062D1CBFBDEC028B70BD53EC9F
:10544000182B51EC100BFBF79CF894ED0A1B53EC56
:10545000112BFAF7EFFF53EC182BFBF792F894EDB2
:10546000081B53EC112BFAF7E5FF41EC100B53EC42
:10547000182B51EC100BFBF784F894ED061B53EC42
:10548000112BFAF7D7FF53EC182BFBF77AF894EDB2
:10549000040B53EC102BFAF7CDFF41EC100B53EC3F
:1054A000182B51EC100BFBF76CF894ED021B53EC2E
:1054B000112BFAF7BFFF53EC182BFBF762F894EDB2
:1054C000001B53EC112BFAF7B5FFBDEC028B41EC3E
:1054D000100B70BD000000009FED070B10B553ECE2
:1054E000102B9FED070B51EC100BFBF7BCF841ECB8
:1054F000100B10BD000000000000000000000000C4
:10550000000000000000F03F10B553EC102B51ECF0
:10551000100BFAF78FFF41EC100B10BD00000000DC
:105520009FED050B10B553EC102B51EC100BFBF756
:105530009AF841EC100B10BD0000000000000000C4
:1055400010B5044691ED000BFFF70EFC84ED000A48
:1055500010BD02E008C8121F08C1002AFAD1704726
:105560007047002001E001C1121F002AFBD17047E3
:105570000149086070470000440100202DE9FF5FE9
:1055800082B00021DDE90430020DDDF840B00343B4
:1055900018D044F61050A2F2FF324243151411986D
:1055A00001281FD0A5EB0B00401C5FEA000A4FF05A
:1055B00000064E4FDFF83891B046504615D5CAF177
:1055C000000413E0119801244AA3012801D16FEAD5
:1055D0000B010298119AC0E90031C0E9024206B0FD
:1055E000BDE8F09FCBF10000DFE704460021404A10
:1055F000491842EB0450CDE9001012E0E00707D053
:1056000032463B4640464946FAF7BBFF804689464C
:1056100032463B4610461946FAF7B3FF06460F4698
:105620006410002CEAD1DDE90401DDE90023BAF1C0
:10563000000F06DAFAF7A5FF42464B46FAF7A1FF3C
:1056400005E0FBF710F842464B46FBF70CF8044622
:105650000E460022284BFBF7DDF803D84FF0FF3051
:10566000014607E00022254B20463146FAF7E2FECC
:10567000FBF744FA102409E0002C0ADB0A2200237D
:10568000FAF7C8FD039B30321A55641E50EA010236
:10569000F2D1641C039AC4F111031444119A012A33
:1056A00003D0012208430DD10AE0084304D00020B2
:1056B0004FF0110B119072E7A3EB0B056D1E0DE07F
:1056C0005B4504DD4FF0000205F1010504E003DA5B
:1056D0004FF00002A5F10105002AECD002981199C3
:1056E000C0E90231C0E9004579E70000000014403C
:1056F0000000F03F300000000000F0430000E03FF9
:1057000030380A2801D2012070470020704700007D
:105710002DE9FF4F95B09A46884606460025EEE1F2
:10572000252877D100242746F94A0121039400E077
:10573000044316F8013F203B01FA03F01042F7D171
:1057400030782A2811D06FF02F033078A0F1300282
:10575000092A16D8039A44F0020402EB820203EBF2
:1057600042021044761C0390EFE758F8042B039292
:10577000002A03DA504244F40054039044F0020437
:10578000761C30782E2816D116F8010F44F0040448
:105790002A280DD06FF02F023078A0F13003092BAA
:1057A00009D807EB870302EB4303C718761CF3E71E
:1057B00058F8047B761C30786C280FD006DC4C2817
:1057C00017D068280DD06A2814D104E0742810D0AE
:1057D0007A280FD10DE044F400140AE044F4801458
:1057E00001E044F440147278824202D104F580143E
:1057F000761C761C307866280BD013DC582877D0BE
:1058000009DC002875D04528F6D04628F4D0472872
:105810001AD193E118E0632835D0642879D065283F
:1058200012D18BE1702873D008DC6728F1D0692889
:105830006FD06E280DD06F2806D1ACE073282CD025
:10584000752874D0782853D05246179990476D1C0C
:1058500054E1C4F30250022809D003280DD0D8F82F
:10586000001004280DD00D6008F1040846E1D8F8B6
:105870000010EA17C1E90052F6E7D8F800100D80D1
:10588000F2E70D70F0E718F8041B8DF80010002007
:105890008DF80100EB46012003E058F804BB4FF0FF
:1058A000FF3061074FF0000102D40DE009F1010162
:1058B0008946B9420FDA8145F8DB1BF80910002947
:1058C000F4D108E009F1010189468142FADB1BF8B5
:1058D00009100029F6D103985346A0EB0907214689
:1058E0003846179A00F080FA284400EB090507E0D3
:1058F00044E008E10DE01BF8010B52461799904770
:10590000B9F10109F7D2534621463846179AF2E019
:1059100039E00A21C4F302524FF0000B0091022A31
:1059200006D058F8040BC117032A09D00AE023E077
:1059300008F1070020F00702F2E80201904605E0B6
:1059400000B2C117042A01D140B2C117002906DAFA
:105950000A460021404261EB02012D2202E02205AD
:1059600004D52B228DF80420012203E0E20701D0A8
:105970002022F7E7914657E00A2100E010214FF07E
:10598000000B00910BE010214FF0000B44F00404D9
:105990000827009103E008204FF0000B0090C4F3AB
:1059A0000252022A05D058F8040B0021032A08D01D
:1059B00008E008F1070020F00702F2E80201904633
:1059C00003E080B2042A00D1C0B24FF000092207E0
:1059D0002AD53278702A07D0DDF800C08CF0100C80
:1059E0005CEA0B0C05D00EE040228DF80420012269
:1059F00008E050EA010306D030238DF804308DF81A
:105A0000052002229146009B83F0080353EA0B0312
:105A10000AD150EA010201D1620705D530228DF882
:105A200004204FF001097F1E3278582A04D039A291
:105A30000C920CAA02920BE03BA2F9E75B46009A9B
:105A4000FAF7E8FB0C9B9B5C029A521E02921370C1
:105A500050EA0102F2D1029804A9081A00F1200BC1
:105A6000600702D524F4803400E001275F4502DDA1
:105A7000A7EB0B0000E0002000EB0B010090039867
:105A80004944401A0390E00306D453462146179A2E
:105A9000039800F0A9F90544002706E001A8524642
:105AA000C05D179990476D1C7F1C4F45F6DBE003E6
:105AB0000CD553462146179A039800F095F90544F2
:105AC00004E030205246179990476D1C0099481EFB
:105AD00000900029F5DC08E002980299524600780F
